:020000040800F2
:10000000B840002099010008895700088D48000871
:10001000855700080D1300089D62000800000000CD
:1000200000000000000000000000000001010008C6
:10003000B5130008000000004501000857590008EA
:10004000B3010008B3010008B3010008B3010008C0
:10005000B3010008B3010008B3010008B3010008B0
:10006000B3010008B3010008B30100081113000830
:100070002113000845130008B3010008B30100086C
:100080005513000865130008B3010008B301000808
:10009000B3010008B3010008B3010008B301000870
:1000A000B3010008B3010008B3010008B301000860
:1000B000B3010008F1590008B3010008B3010008BA
:1000C000B3010008B3010008B3010008B301000840
:1000D000B3010008B3010008C1600008E96100082D
:1000E00025180008B3010008B3010008DFF80CD0A0
:1000F00000F052FE0048004781770008B840002019
:10010000224B19680868B0E8F00F80F30988BFF344
:100110006F8F4FF0000080F311884EF00D0E704786
:100120000000000006480068006880F3088862B696
:1001300061B6BFF34F8FBFF36F8F00DF00BF00BF0B
:1001400008ED00E0EFF30980BFF36F8F0F4B1A68E3
:1001500020E9F00F106008B54FF0500080F31188CF
:10016000BFF34F8FBFF36F8F0AF00CFC4FF000000E
:1001700080F31188BDE8084019680868B0E8F00FFE
:1001800080F30988BFF36F8F704700BF30010020F4
:10019000EFF3058070470000064880470648004797
:1001A000FEE7FEE7FEE7FEE7FEE7FEE7FEE7FEE727
:1001B000FEE7FEE7EF590008ED000008202A04DB07
:1001C000203A21FA02F00021704721FA02F3D040D0
:1001D000C2F12002914008431946704740EA0103EA
:1001E0009B0703D009E008C9121F08C0042AFAD2ED
:1001F00003E011F8013B00F8013B521EF9D27047B1
:10020000D2B201E000F8012B491EFBD27047002258
:10021000F6E710B513460A4604461946FFF7F0FF05
:10022000204610BD421E12F8013F002BFBD111F8F1
:10023000013B02F8013B002BF9D1704730B5054670
:100240002A460B4612F8010B13F8014B08B1A042E5
:10025000F8D01CB1002802D06D1CF1E7284630BD53
:10026000421C10F8011B0029FBD1801A704703467D
:1002700011F8012B00F8012B002AF9D1184670471C
:100280000FB400B58DB010A909900B9000914FF0FC
:10029000FF300A9000200C90054806900548079012
:1002A0006A4609A80F9900F085FC0DB05DF814FBB3
:1002B000D10B0008EF0B00082DE9FF5F1D464FF042
:1002C000FF3BD5E9014691465F464FF00008A9691A
:1002D0007F1C01988847296A824688470028F6D102
:1002E000BAF1FF3F0CD024F4C064002E19DD600683
:1002F00014D5BAF12B0F09D0BAF12D0F0ED103E0AE
:10030000584604B0BDE8F09F44F48064A9697F1C9E
:1003100001988847761E8246002E02DDBAF1300F22
:1003200003D0B9F1000F26D032E0A969761E44F45B
:1003300000747F1C019888478246002E05DDBAF1C3
:10034000780F06D0BAF1580F03D0B9F1000F10D0D2
:100350001EE0B9F1000F02D0B9F1100F18D1A96950
:10036000761E24F400747F1C019888478246102072
:1003700002E0082000E00A20814609E008FB0908A5
:10038000A969761E44F400747F1C01988847824650
:10039000002E05DD4946504600F0F8FB0028EDDA56
:1003A000E96901988847A00502D46FF00100A8E729
:1003B000E00725D1600613D5600502D5C8F100001D
:1003C00000E0404629680A1D2A600968220501D517
:1003D000087015E0220701D5088011E008600FE0E1
:1003E0002868011D29600068210502D580F8008079
:1003F00006E0210702D5A0F8008001E0C0F80080E7
:1004000038467EE72DE9FF5FD2E901A74FF00008EB
:10041000916999461446DDF838B0464601988847F8
:10042000054659EA0B0005D009E0A169761C019840
:1004300088470546216A284688470028F5D1681C68
:1004400003D05FEACA7005D015E04FF0FF3004B06A
:10045000BDE8F09F2068011D2160D0F800800AE00F
:100460005FEACA7001D108F8015BA169761C7F1EA2
:10047000019888470546002F1ADD681C18D0B9F18D
:10048000000F0DD0E81705EBD060421120F01F00DF
:1004900059F822102A1A012090400142E0D107E0C9
:1004A000BBF1000FDCD1216A284688470028D7D04D
:1004B000E16901988847BBF1000F07D1002E05DDE7
:1004C0005FEACA7002D1002188F80010A068B84223
:1004D00003DDBBF1000F03D017B16FF00100B6E7E9
:1004E0003046B4E7F0B480EA0102D40F4200B2EB28
:1004F000410F02D20246084611464A0042D0C30DBF
:10050000DDB2C1F3C752AD1A202D35DAC1F31601A1
:1005100041F4000204B15242C5F1200602FA06F18C
:100520002A411044B3EBD05F23D0C4B1012DA0EB1E
:10053000C35009DCF0BC4FF0004202EAC352DBB208
:1005400000F5000000F06DBB400000F1807000EB92
:10055000C350A0F1807040EAD170490009E0490819
:1005600041EAC071A0EBC35000F50000400800EB69
:10057000C350F0BC00F04CBB6142012202EB4101D0
:10058000001BF6E7F0BC704781F00041AAE780F05D
:100590000040A7E780EA010210B502F000434000E6
:1005A00022D04A001FD0010E01EB1261C0F35600A9
:1005B000C2F3560240F4000042F40002A0FB022005
:1005C00000047F39140400D0401C50EA124001D4CA
:1005D0004000491EC2B20C0604EBD010401C40087B
:1005E000802A02D003E0002010BD20F00100002985
:1005F00000DA0020184310BD30B480EA010202F096
:10060000004530F0004221F0004013D090B1C30DFE
:10061000D40DC2F31601C0F31600E41A41F4000130
:1006200040F400027D34914201D3641C00E0490093
:10063000002C02DA30BC002070474FF40000002389
:10064000914201D3891A034340084FEA4101F7D18F
:1006500051B1914202D14FF0004105E002D24FF07A
:10066000010101E06FF0010103EBC450284430BCEC
:1006700000F0CEBA2DE9FE4F804681EA0300C00F9C
:100680000C46009021F0004123F00045B8EB020039
:10069000A94105D24046214690461C460B460246DB
:1006A00023F00040104347D0270DC7F30A00C3F3DF
:1006B0000A510290401A019040286BDAC3F31300EC
:1006C00040F4801B0098924620B10023D2EB030A2D
:1006D00063EB0B0B01985946C0F14002504600F005
:1006E00034FA06460D4650465946019A00F03CFA47
:1006F00010EB08006141002487EA115284EAE77395
:100700001A4340D0009A62B3019A012A4FEA075275
:1007100015DC001B61EB02014FF0004202EA0752B8
:10072000CDE90042001C41F5801132462B4600F015
:10073000B5FA03B0BDE8F08F40462146F9E7001B4B
:1007400061EB0201001C41F5801300185B41201889
:10075000A2F5001747EB030140EAD570B6196D41C9
:1007600011E06D084FEA360645EAC0754FEA0752B8
:10077000001B61EB0201001C41F5801149084FEAA2
:1007800030000019514132462B4603B0BDE8F04F0E
:1007900000F075BA0098012240000023D0EB02025D
:1007A00063EBE073009821464FEAE074B8EB000079
:1007B00061EB0401E9E783F000435BE781F000416E
:1007C00058E72DE9FE4F81EA030404F0004421F0CC
:1007D000004100944FF0000B23F0004350EA010465
:1007E0005ED052EA03045BD0C3F30A54C1F30A5546
:1007F0002C44A4F2F3340194A0FB0254C1F313017E
:1008000041F48011C3F3130343F4801301FB02444A
:1008100000FB034E840A970A44EA815447EA83574F
:10082000A4FB076802958D0A05FB07854FEA932C08
:1008300004FB0C542705029D4FEA065847EA163779
:10084000B5EB08056EEB070C870E920E47EA811791
:1008500042EA8312A7FB0201B6EB0B0164EB000432
:100860002B0D43EA0C335E1844EB1C50DA4651461C
:10087000E7FB0201C5F313044FEA0B3343EA1453B9
:100880004FEA0432019C43EA0603A4F10C040294EB
:10089000009CCDE900B400F001FA03B0BDE8F08F90
:1008A00000200146F9E72DE9F04D81EA030404F048
:1008B000004B21F0004514464FF0000A23F00041A0
:1008C00050EA050220D054EA01021DD0C5F30A57B0
:1008D0000246C5F31303C1F31300C1F30A5640F4F3
:1008E000801543F48013A7EB0608101BD64608F2C8
:1008F000FD3873EB050002D308F1010801E09218FE
:100900005B41B8F1000F03DA00200146BDE8F08D2D
:1009100000204FF48011064684460EE0171B73EB4F
:10092000050705D3121B63EB050306434CEA010CD4
:1009300049084FEA300092185B4150EA0107EDD1B7
:1009400052EA030012D082EA040083EA0501084358
:1009500005D0101BAB4106D20122002306E0002285
:100960004FF0004302E06FF0010253101AEB060053
:100970004CEB085110EB0A0041EB0B01BDE8F04DC8
:1009800000F07DB9C10F80EAE0700844CA079623E1
:10099000002100F046B996230022114600F041B92B
:1009A0000EB5C10F80EAE0700844CA07002140F28A
:1009B00033438DE80E000A460B4600F06FF903B092
:1009C00000BD0EB540F2334102910021CDE9001186
:1009D0000A460B4600F062F903B000BD00F0004289
:1009E00020F00040C10DC0F3160040F400007F2944
:1009F00001DA00207047962903DCC1F19601C84056
:100A000001E096398840002AF4D04042704720F037
:100A10000040C10DC0F3160040F400007F2901DA48
:100A200000207047962903DCC1F19601C840704749
:100A300096398840704700F0004230F000400AD0FC
:100A4000C10D01F56071C0F3160042EA0151C20800
:100A500040071143704700200146704701F00043F2
:100A600030B421F0004150EA010206D00A0DA2F58F
:100A70006072C1F31301002A02DC30BC0020704711
:100A8000440F44EAC104C100E01830BC00EBC2507E
:100A900000F0BEB8002801DBC0F10040002901DBF6
:100AA000C1F1004181427047002801DBC0F10040E4
:100AB000002901DBC1F100418842704730B50B4687
:100AC000014600202022012409E021FA02F59D427E
:100AD00005D303FA02F5491B04FA02F52844151E52
:100AE000A2F10102F1DC30BD2DE9F05F05460020E6
:100AF00092469B4688460646814640241BE028468F
:100B0000414647462246FFF759FB53465A46C01A0C
:100B1000914110D311461846224600F016F82D1ABE
:100B200067EB01084F4622460120002100F00DF836
:100B300017EB00094E41201EA4F10104DFDC4846FA
:100B400031462A464346BDE8F09F202A04DB203A7E
:100B500000FA02F1002070479140C2F1200320FA10
:100B600003F3194390407047202A06DBCB17203A45
:100B700041FA02F043EAE07306E041FA02F3D040A2
:100B8000C2F1200291400843194670473A2800D22A
:100B9000303820F02002412A01D3A2F137008842E8
:100BA00001D34FF0FF3070470268114413780160A1
:100BB00018467047D160044951610449116200210F
:100BC0001161114600F000B9A90B0008BD0D000825
:100BD000426842B1016811F8013B23B1521EC0E9DD
:100BE0000012184670470121C160881E7047426894
:100BF0005AB1C368016843B983688B4205D0491E66
:100C0000521CC0E90012002070474FF0FF307047BF
:100C10000029A8BF7047401C490008BF20F0010010
:100C2000704710B4B0FA80FC00FA0CF050EA0104EE
:100C300004BF10BC704749B1CCF1200421FA04F480
:100C400011FA0CF118BF012121430843A3EB0C0159
:100C5000CB1D4FEA00614FEA102042BF002010BCBC
:100C6000704700EBC35010440029A4BF10BC70476C
:100C7000401C490008BF20F0010010BC704710B5AF
:100C8000141E73F1000408DA401C41F100019218AF
:100C90005B411A4301D120F0010010BD2DE9F04D58
:100CA00092469B4611B1B1FA81F202E0B0FA80F2AD
:100CB00020329046FFF749FF04460F4640EA0A00FB
:100CC00041EA0B0153465A46084313D0114653EAF2
:100CD000010019D0C8F140025046FFF76FFA0546EF
:100CE0000E46504659464246FFF72FFF084305D0AF
:100CF000012004E020463946BDE8F08D0020054380
:100D000046EAE0762C4337430A986305E40AA0EBF1
:100D100008000022FD0A44EA47540A3002D50020A8
:100D20000146E9E7010510196941DDE908450019A7
:100D30006941BDE8F04DA2E7C1F30A52C1F31301C6
:100D400040F2FF3341F480119A4202DA002001465A
:100D5000704740F233439A42A2F2334202DC5242DD
:100D6000FFF72CBAFFF7F1BE30B5041E71F1000495
:100D700004DB4FF00044404264EB0101141E73F1A8
:100D8000000405DB1C464FF00043524263EB0403B2
:100D9000994208BF904230BD064C074D06E0E0681E
:100DA00040F0010394E8070098471034AC42F6D3B2
:100DB000FFF7A0F908C8000828C80008C0B24FF41F
:100DC000F05100F0AFB900002DE9F34F8BB04FF0B8
:100DD000000801F10C000C464FF0010B46460DF1E6
:100DE000080A01906269012101989047051E2DD0E3
:100DF000252D2CD0216A8847C0B162690121019854
:100E00009047216A88470028F7D1411E62690198FE
:100E1000904700E0761CA1690B988847216A8847B3
:100E20000028F7D1E1690B988847DBE7A1690B98A7
:100E300088470746A84201D1761CD3E7E1690B98A1
:100E400088477F1C02D1B8F1000F6FD046E1002720
:100E500062693D463946019890472A2804D1626963
:100E60000121019890470125DFF8849262690121F0
:100E700001989047A0F130010A290AD24F45E5DCDC
:100E800007EB870100EB4107303FDFD445F0100549
:100E9000ECE7E90601D46FF000476C280AD04C2833
:100EA00014D0682815D06A280DD074281CD07A2850
:100EB0001AD01DE062690121019890476C2802D088
:100EC00045F0040514E045F002050DE045F020056D
:100ED0000AE06269012101989047682802D045F034
:100EE000080505E045F40065626901210198904715
:100EF000C4E9015765283DD019DC58287AD00CDCAC
:100F0000452837D004DC252826D0412831D131E0CE
:100F100046282FD047282CD12CE05B2877D0612899
:100F200028D063287CD0642823D15AE0D0E06F28F1
:100F300048D008DC66281DD067281BD0692821D03E
:100F40006E2816D127E0702845D0732868D0752800
:100F500047D078280DD14DE0A1690B988847054608
:100F600025283FF469AFE1690B9888476D1C3FF471
:100F70006AAFB3E023466A466FF001000B99AFF306
:100F800000809EE045F040006060A80723464FF0D7
:100F9000000236D43EE0E8077FF447AF2068011D29
:100FA00021600068290501D506701BE7290701D5D6
:100FB000068017E7A90703D5F117C0E9006111E71B
:100FC00006600FE745F040006060A80723464FF039
:100FD000080216D41EE040F60E0125EA010060600A
:100FE00016E045F040006060A80723464FF00A0273
:100FF00007D40FE045F040006060A80708D52346FD
:1010000010226FF001000B99AFF3008059E007E068
:10101000234610226FF001000B99FFF74DF950E0C5
:101020004FF000094F464B46632802D05B2806D09C
:1010300040E0E80601D40120A06001273AE062699F
:101040000121019890475E2805D14FF0010962699E
:10105000494601989047216939B900210A4653460B
:1010600043F82120491C0829FADBB0B3216969B98A
:10107000C11700EBD16253110AEB830122F01F026A
:10108000821A01200B68904003430B6062690121C2
:10109000019890475D28E8D1B9F1000F09D00020F0
:1010A000514651F82020D24341F82020401C082806
:1010B000F7DB02AB224600976FF001000B99FFF7B8
:1010C000A1F900280CDA401C08D1BBF1000F05D0B3
:1010D0004FF0FF300DB0BDE8F08FFFE74046F9E775
:1010E000E90701D108F1010806444FF0000B79E649
:1010F000CCCCCC0C70B521F0004303430CD0C1F331
:101100000A550024D5EB040564EB0403D617AD1A89
:10111000B34102DB0020014670BD201841EB0251B3
:1011200070BD00007F2801D9002208E0064A02EBCA
:101130005002C007127800D1120902F00F020120FC
:10114000904008407047000080C7000870B58C18B8
:1011500010F8015B15F0070301D110F8013B2A11CB
:1011600006D110F8012B03E010F8016B01F8016BB8
:101170005B1EF9D12B0705D40023521E0DD401F8B4
:10118000013BFAE710F8013BCB1A921C03E013F87D
:10119000015B01F8015B521EF9D5A142D8D30020B2
:1011A00070BD70B5044600252068806800F001001D
:1011B00018B32068806820F001002168886001F081
:1011C00003F9054613E001F0FFF8401B02280ED991
:1011D0002068806800F0010048B1A06A40F010006B
:1011E000A062E06A40F00100E062012070BD20686A
:1011F000806800F001000028E5D10020F6E770B516
:1012000005466C6AA06A00F05000E0B9A06A40F49C
:101210000070A0622068806800F46020B0F5602F44
:101220000DD1207B58B9A06A20F48070A062A06A1A
:1012300000F4805018B9A06A40F00100A062204676
:1012400000F0A8FB03E0206A016B2846884770BDC8
:1012500070B505466C6AA06A40F04000A062E06A82
:1012600040F00400E062204600F096FB70BD70B5CF
:101270000446656A284600F08EFB70BD38B504460A
:101280000025002000902068806800F0010078BBF5
:101290002068806840F00100216888601948006873
:1012A0001949B0FBF1F0009002E00098401E009058
:1012B00000980028F9D101F087F8054619E001F0FF
:1012C00083F8401B022814D92068806800F00100D0
:1012D00078B9A06A40F01000A062E06A40F0010016
:1012E000E06200BF002084F8240000BF012038BD68
:1012F00005E02068806800F001000028DFD00020B1
:10130000F5E700002800002040420F0000BFFEE784
:1013100010B5024800F028FD10BD000018040020A0
:1013200010B50648006800F0200028B120200349CD
:101330004860034803F072F810BD0000000002404E
:101340005806002010B5024800F00EFD10BD000048
:101350002407002010B5024800F006FD10BD000073
:101360009C06002010B50648006800F0007030B1FF
:101370004FF0007002494860024803F04FF810BD7A
:10138000000002401406002030B590F840500124BF
:10139000AC40C56B6C60046863604468102C04D179
:1013A0000468A2600468E16003E00468A160046866
:1013B000E26030BD704700002DE9F04385B004467F
:1013C0000D464FF0000805F08FFC06F09BF98046B3
:1013D00025480088401C24490880084600880A21C6
:1013E00090FBF1F201FB120008B907F0CBFA1F499C
:1013F0001F4807F0A1FC06F059F98146FFF71BFBD7
:10140000064632460B461BA1684604F059FF05F11B
:10141000100082B2A1B26B46154807F029FC06F015
:1014200055F90646324616A1684604F049FF05F113
:10143000200082B2A1B26B460D4807F019FC40466D
:10144000FFF7F9FA064632460B4610A1684604F04B
:1014500037FF05F1300082B2A1B26B46044807F0B5
:1014600007FC05B0BDE8F08310010020F6BB0008C2
:10147000B4120020616E676C653A252E326600005A
:101480006469733A2564206D6D000000706F7765A4
:10149000723A252E3266000030B585B004460D46FE
:1014A0001449154807F048FC14A1684604F008FFE9
:1014B00005F1100082B2A1B26B460F4807F0D8FBCD
:1014C00012A1684604F0FCFE05F1200082B2A1B230
:1014D0006B46094807F0CCFB10A1684604F0F0FE0B
:1014E00005F1300082B2A1B26B46034807F0C0FBA1
:1014F00005B030BDF6BB0008B412002061757468F9
:101500006F723A736E71782D6C71680076657273C4
:10151000696F6E3A76312E30000000005468616EBB
:101520006B20596F7500000030B585B004460D463C
:101530001449154807F000FC14A1684604F0C0FEE9
:1015400005F1100082B2A1B26B460F4807F090FB84
:1015500012A1684604F0B4FE05F1200082B2A1B2E7
:101560006B46094807F084FB10A1684604F0A8FE0A
:1015700005F1300082B2A1B26B46034807F078FB58
:1015800005B030BDF6BB0008B4120020776966696B
:101590002073657474696E670000000069703A31E9
:1015A00039322E3136382E342E31000074637020DB
:1015B000706F72743A3333330000000000B585B0A9
:1015C00006A1684604F07CFE4FF4FA73002207A1DE
:1015D000684600F069F805B000BD000041542B4397
:1015E00049505345525645523D3100004F4B000083
:1015F00010B586B004460CB1012000E00020024680
:1016000006A101A804F05CFE4FF4FA73002207A1C2
:1016100001A800F049F806B010BD000041542B436A
:1016200049504D55583D2564000000004F4B0000C7
:1016300010B5044624B1012C0AD0022C18D10FE0B9
:1016400040F6C4130BA20EA10EA000F02DF810BDA1
:1016500040F6C41307A20AA10DA000F025F8F6E792
:1016600040F6C41303A206A10CA000F01DF8EEE79B
:101670000020ECE76E6F206368616E676500000014
:101680004F4B000041542B43574D4F44453D3100D3
:1016900041542B43574D4F44453D320041542B4359
:1016A000574D4F44453D33002DE9F04188B0064683
:1016B0000C4615461F4620216846FEF7A8FD4FF050
:1016C00000081EB9002008B0BDE8F0812F4800884E
:1016D000401C00B22D49088001202D4908802D486A
:1016E000B0F800046FF30E002A49A1F80004324656
:1016F00029A1684604F0E4FD6846FEF7B1FD00F05C
:10170000FF084146684605F03BFF14B90DB90120BA
:10171000D9E7384608F088FF00201E49B1F80014C8
:10172000C1F30E011B4A505411461DA004F0B8FD30
:10173000002017490880B4B1ADB121461548FEF725
:101740007DFD08B1012000E0002040B92946114884
:10175000FEF774FD08B1012000E0002008B101206F
:10176000B1E70020AFE744B121460A48FEF766FD25
:1017700008B10120A7E70020A5E729460548FEF7A4
:101780005DFD08B101209EE700209CE74E0000208F
:1017900050000020AC07002025730D0A0000000057
:1017A0002573000010B50FA004F07AFD0120FFF7AB
:1017B0003FFF044614B90FA004F072FD0120FFF7AB
:1017C00017FF044614B90EA004F06AFDFFF7F6FEF9
:1017D000044614B90DA004F063FD0FA004F060FDF1
:1017E00010BD000053657420455350383236360D15
:1017F0000A0000000D0A6572726F7220310000004D
:101800000D0A6572726F7220320000000D0A657257
:10181000726F7220330000000D0AC5E4D6C3CDEA12
:10182000B3C9000010B54FF4804000F021FC10BD9A
:101830007047000038B5024600230020009000BF2A
:1018400092F82400012801D1022038BD012082F83D
:10185000240000BF4868072812D21068406B0C793A
:10186000641E04EB84051F24AC40A0430D796D1E5B
:1018700005EB85050C68AC4020431468606327E0E5
:1018800048680D2812D21068006B0C79E41F04EB35
:1018900084051F24AC40A0430D79ED1F05EB8505A1
:1018A0000C68AC4020431468206311E01068C06AE3
:1018B0000C790D3C04EB84051F24AC40A0430D794A
:1018C0000D3D05EB85050C68AC4020431468E062D3
:1018D00008680A2812D31068C0680C780A3C04EB28
:1018E00044050724AC40A0430D780A3D05EB4505AF
:1018F0008C68AC4020431468E0600FE01068006919
:101900000C7804EB44050724AC40A0430D7805EBAC
:1019100045058C68AC402043146820610868102895
:1019200002D00868112827D1174C1068A0421ED198
:101930001068806800F40000F0B91068806840F416
:1019400000001468A0600868102815D10F480068CE
:101950000F4CB0FBF4F000EB80004000009002E080
:101960000098401E009000980028F9D104E0906A89
:1019700040F020009062012300BF002082F8240084
:1019800000BF184661E70000002401402800002045
:1019900040420F0070477047704700002DE9F0414A
:1019A0000446002700250026A84614B90120BDE8FA
:1019B000F081A06810B1207D00B100BFA06A30B9ED
:1019C0000020E06284F82400204600F089F82046D8
:1019D000FFF7E7FB0746A06A00F01000002873D16C
:1019E000002F71D1A06A20F4885040F00200A0625C
:1019F000E16960680843217B40EA41000643A06832
:101A0000B0F5807F02D0A068012802D14FF4807029
:101A100000E000200543207D012811D1207B38B94A
:101A2000A069401E4FF4006141EA4030054307E0E1
:101A3000A06A40F02000A062E06A40F00100E0628D
:101A40002068406820F46940284321684860206885
:101A5000806821490840304321688860A068B0F55B
:101A6000807F02D0A068012802D14FF4807000E08E
:101A70000020B0F5807F03D1208A401E4FEA005835
:101A80002068C06A20F4700040EA08002168C8623B
:101A90002068806811490840B04208D10020E06207
:101AA000A06A20F0020040F00100A06211E0A06AEC
:101AB00020F0020040F01000A062E06A40F0010057
:101AC000E062012705E0FFE7A06A40F01000A06295
:101AD000012738466BE70000FDF7E1FFFE0E1FFF10
:101AE00010B586B004460020029003900490059043
:101AF0002249206888423ED100BF2148806940F4D5
:101B000000701F4988610846806900F400700190E8
:101B100000BF00BF00BF0846806940F00400886134
:101B20000846806900F00400019000BF00BFF0206B
:101B300002900320039002A9124800F0A7FA12486D
:101B4000124908600020486000211048816080210F
:101B5000C16049000161890041612021816100214A
:101B6000C16100F0CFF908B1FFF762FE00BF07487E
:101B70002062446200BF06B010BD00000024014096
:101B80000010024000080140080002401804002034
:101B90002DE9F04104460D461646002757492068B6
:101BA000884203D056492068884205D15348001D19
:101BB000006800F4702000E0002000287ED100BF03
:101BC00094F82400012802D10220BDE8F081012010
:101BD00084F8240000BF2046FFF750FB0746002F83
:101BE0006DD1A06A40F60161884340F48070A06224
:101BF00043492068884209D14048001D006800F42C
:101C0000702008B9012002E0002000E0012078B136
:101C1000A06A20F48010A0622068406800F4806010
:101C200000B3A06A20F4005040F48050A06219E094
:101C3000A06A40F48010A06230492068884203D036
:101C40002F492068884205D12C48001D006800F407
:101C5000806000E0002028B1A06A20F4005040F429
:101C60008050A062A06A00F4805020B1E06A20F0A9
:101C70000600E06201E00020E06200BF002084F87E
:101C8000240000BF1F48216A88621F48216AC86279
:101C90001E48216A08636FF002002168086020680E
:101CA000806840F4807021688860226802F14C01ED
:101CB00033462A46206A00F059F901E01AE014E0A0
:101CC0002068806800F46020B0F5602F06D120689D
:101CD000806840F4A000216888600CE0206880687B
:101CE00040F480102168886005E000BF002084F87F
:101CF000240000E00127384667E700000024014087
:101D000000280140FF1100086F120008511200085E
:101D10000146002291F82100022808D0042088639F
:101D200000BF002081F8200000BF01207047086834
:101D3000006820F00E000B6818600868006820F04A
:101D400001000B68186091F8403001209840CB6B7F
:101D50005860012081F8210000BF002081F8200098
:101D600000BF1046E2E7000070B50446E06B05686E
:101D70002068066894F84010042088402840002815
:101D800046D006F00400002842D02068006800F029
:101D9000200028B92068006820F00400216808604D
:101DA00057492068884201D1042027E05449143162
:101DB0002068884201D1402020E051492831206824
:101DC000884201D1001519E04D493C312068884214
:101DD00002D14FF4804011E04949503120688842D7
:101DE00002D14FF4802009E04549643120688842DF
:101DF00002D14FF4800001E04FF080604049083983
:101E00004860E06A00287AD02046E16A884776E098
:101E100094F84010022088402840A0B306F0020049
:101E200088B32068006800F0200040B9206800688E
:101E300020F00A0021680860012084F82100304960
:101E40002068884201D1022028E02D491431206801
:101E5000884201D1202021E0294928312068884288
:101E600001D140151AE026493C312068884202D150
:101E70004FF4005012E0224950312068884203D1CB
:101E80004FF400300AE017E01D49643120688842B1
:101E900002D14FF4001001E04FF0007018490839EA
:101EA000486000BF002084F8200000BFA06A30B363
:101EB0002046A16A884722E094F840100820884014
:101EC0002840E0B106F00800C8B12068006820F0A2
:101ED0000E002168086094F8401001208840E16BF2
:101EE00048600120A06384F8210000BF002084F82E
:101EF000200000BF206B10B12046216B884770BDC9
:101F0000080002400146002209B901207047164B23
:101F10000868C01A1423B0FBF3F08000086412486C
:101F20000838C863022081F821000868026843F677
:101F3000F0708243D1E901031843CB6818430B6961
:101F400018434B6918438B691843CB691843024304
:101F50000868026000208863012081F821000020C9
:101F600081F8200000BFD1E7080002402DE9F041D0
:101F700004460D4616461F464FF0000800BF94F871
:101F80002000012802D10220BDE8F081012084F860
:101F9000200000BF94F8210001282CD1022084F8F1
:101FA00021000020A0632068006820F00100216863
:101FB00008603B46324629462046FFF7E5F9E06ACD
:101FC00030B12068006840F00E00216808600BE026
:101FD0002068006820F0040021680860206800681C
:101FE00040F00A00216808602068006840F00100A5
:101FF0002168086006E000BF002084F8200000BFD0
:102000004FF002084046BFE770B5044600F0DCF927
:1020100006462546681C10B104480078054400BFF8
:1020200000F0D2F9801BA842FAD370BD2400002032
:1020300010B50446B4F5804F13D109F01FFA0128FA
:102040000FD008490848006808F02EFB05480068D2
:1020500038B14FF0805005490860BFF34F8FBFF390
:102060006F8F10BD0C010020FC00002004ED00E08B
:1020700010B5044604480068204020B102480460BE
:102080002046FFF7D5FF10BD140401402DE9F847A5
:102090000346002294466EE14FF0010808FA02F46C
:1020A000D1F8008008EA0400A0427DD1DFF8DCA26C
:1020B000D1F80480A8EB0A09D0453AD014DCB8F175
:1020C000030F50D009DCB8F1000F31D0B8F1010F87
:1020D0001CD0B8F1020F49D120E0B8F1110F18D08F
:1020E000B8F1120F42D11EE0B9F5881F25D006DCE9
:1020F000B9F5803F20D0B9F5801F37D11AE0B9F586
:10210000001F18D0B9F5041F30D117E0D1F80CC06A
:102110002DE0D1F80C8008F1040C28E0D1F80C80F7
:1021200008F1080C23E0D1F80C8008F10C0C1EE03B
:1021300000BF00BF00BF00BF00BF00BFD1F80880D4
:10214000B8F1000F02D14FF0040C0BE0D1F8088079
:10215000B8F1010F03D14FF0080C1C6102E04FF001
:10216000080C5C6103E04FF0000C00E000BF00BF12
:10217000FF2801D8984601E003F104084646FF28ED
:1021800002D84FEA820803E0A2F108084FEA880863
:102190004746D6F800804FF00F0909FA07F928EAF8
:1021A00009080CFA07F900E088E048EA0908C6F8CF
:1021B0000080D1F8048008F08058B8F1805F7DD1AC
:1021C00000BFDFF8CC81D8F8188048F00108DFF8AC
:1021D000C091C9F81880C846D8F8188008F00108DE
:1021E000CDF8008000BF00BF4FEAB9384FEA92092E
:1021F00058F829504FEA82784FEA18794FF00F08C3
:1022000008FA09F825EA0805DFF88881434502D174
:102210004FF0000816E0DFF88081434502D14FF00F
:1022200001080FE0DFF87481434502D14FF0020846
:1022300008E0DFF86C81434502D14FF0030801E06C
:102240004FF004084FEA82794FEA197908FA09F841
:1022500048EA0505DFF84C814FEA920948F8295011
:10226000D1F8048008F48038B8F5803F0AD1DFF84F
:102270003881D8F8008048EA0008DFF82C91C9F8C6
:10228000008009E0DFF82081D8F8008028EA000803
:10229000DFF81491C9F80080D1F8048008F4003800
:1022A000B8F5003F10D1DFF8008108F10408D8F834
:1022B000008048EA0008DFF8F09000E05AE009F1F9
:1022C0000409C9F800800DE0DFF8DC8008F104089B
:1022D000D8F8008028EA0008DFF8CC9009F104095A
:1022E000C9F80080D1F8048008F48018B8F5801F80
:1022F0000ED1DFF8B48008F10808D8F8008048EA69
:102300000008DFF8A49009F10809C9F800800DE081
:10231000DFF8948008F10808D8F8008028EA00085F
:10232000DFF8849009F10809C9F80080D1F8048029
:1023300008F40018B8F5001F0ED1DFF86C8008F122
:102340000C08D8F8008048EA0008DFF85C9009F132
:102350000C09C9F800800DE0DFF84C8008F10C088A
:10236000D8F8008028EA0008DFF83C9009F10C0951
:10237000C9F80080521CD1F8008028FA02F8B8F1A0
:10238000000F7FF489AEBDE8F8870000000011104F
:102390000010024000080140000C01400010014004
:1023A0000014014008000140000401400246936807
:1023B0000B400BB1012000E0002070470AB1016121
:1023C00001E00B040361704701480068704700009A
:1023D0001C00002070B504460CB9012070BD94F8B3
:1023E0003D0028B9002084F83C00204600F0F6FBB0
:1023F000242084F83D002068006820F00100216856
:1024000008602068006840F4004021680860206887
:10241000006820F400402168086000F05BFE05467B
:102420005C496068884206D85B48854201D2012039
:1024300007E0002005E05948854201D2012000E074
:102440000020012800D1C9E75548B5FBF0F6206807
:10245000406820F03F003043216848604D49606883
:10246000884201D8701C07E04FF4967070434FF417
:102470007A71B0FBF1F0401C2168096A21F03F013C
:1024800008432168086243496068884214D8681E7E
:1024900061684900B0FBF1F0401CC0F30B00042858
:1024A00001D204203DE0681E61684900B0FBF1F0F4
:1024B000401CC0F30B0034E0A06838B9681E6168A6
:1024C00001EB4101B0FBF1F0401C0AE0681E6168BD
:1024D00001EBC10202EB0111B0FBF1F0401C40F432
:1024E0008040C0F30B0008B901201AE0A06848B989
:1024F000681E616801EB4101B0FBF1F0401CC0F3C4
:102500000B000CE0681E616801EBC10202EB0111D7
:10251000B0FBF1F0401CC0F30B0040F4804040F4ED
:1025200000402168C9694CF6FF7291430843216855
:10253000C861D4E9070108432168096821F0C00196
:10254000084321680860D4E90310084321688968BA
:1025500048F2FF329143084321688860D4E90501BD
:1025600008432168C96821F0FF0108432168C86059
:102570002068006840F001002168086000202064A5
:10258000202084F83D000020206384F83E0000BF36
:1025900024E70000A086010080841E0000093D00A1
:1025A00040420F002DE9F8430446894616461F466F
:1025B000DDF82080FFF708FF054694F83D0020284D
:1025C0007ED11923012251492046009502F02EFBAD
:1025D00010B10220BDE8F88300BF94F83C00012848
:1025E00001D10220F6E7012084F83C0000BF2068FA
:1025F000006800F0010028B92068006840F0010080
:10260000216808602068006820F400602168086084
:10261000212084F83D00102084F83E000020206432
:1026200066626785608D20853948E0622B464246A8
:102630004946204602F04CF908B10120CAE700BF24
:102640000020009020684069009020688069009018
:1026500000BF00BF44E02A464146204602F0CBFBC3
:1026600050B1206C042805D12068006840F4007047
:10267000216808600120ADE7606A00782168086180
:10268000606A401C6062608D401E6085208D401E27
:10269000208520684069C0F3800070B1208D60B152
:1026A000606A007821680861606A401C6062608D21
:1026B000401E6085208D401E20852A46414600E050
:1026C00022E0204602F084FA50B1206C042805D1A3
:1026D0002068006840F4007021680860012079E7F4
:1026E000208D0028B7D12068006840F40070216870
:1026F0000860202084F83D00002084F83E0000BFE0
:1027000084F83C0000BF65E7022063E70200100088
:102710000000FFFF2DE9FE4F04460F469046994604
:10272000DDE90CAB0E9E00200290FFF74DFE054642
:1027300094F83D00202872D119230122CA4920466D
:10274000009502F073FA10B10220BDE8FE8F00BFC1
:1027500094F83C00012801D10220F6E7012084F81A
:102760003C0000BF2068006800F0010028B9206824
:10277000006840F00100216808602068006820F4CB
:10278000006021680860222084F83D00402084F821
:102790003E0000202064C4F824A0A4F82AB0608D74
:1027A0002085B248E0624B46424639462046CDE994
:1027B000006502F0EDF808B10120C6E7208D88B968
:1027C00000BF002001902068406901902068806966
:1027D000019000BF00BF2068006840F400702168CD
:1027E00008604BE0208D01281AD12068006820F491
:1027F00080602168086072B600BF002001902068E8
:102800004069019020688069019000BF00BF206886
:10281000006840F400702168086062B62EE020E194
:10282000208D022819D12068006840F400602168DA
:10283000086072B600BF00200190206840690190D6
:1028400020688069019000BF00BF2068006820F404
:1028500080602168086062B610E02068006840F47B
:1028600080602168086000BF0020019020684069F6
:10287000019020688069019000BF00BFE2E0208DD8
:1028800003287DD8208D012815D12A4631462046BF
:1028900002F071FA08B1012057E720680069616A07
:1028A0000870606A401C6062208D401E2085608D2B
:1028B000401E6085C6E0208D02282CD133460022C0
:1028C0006B492046009502F0B1F908B101203CE7C0
:1028D00072B62068006840F40070216808602068C3
:1028E0000069616A0870606A401C6062208D401E49
:1028F0002085608D401E608562B620680069616A2F
:102900000870606A401C6062208D401E2085608DCA
:10291000401E608596E033460022554920460095CA
:1029200002F084F908B101200FE72068006820F464
:1029300080602168086072B620680069616A08706A
:10294000606A401C6062208D401E2085608D401EA4
:102950006085484800681921B0FBF1F04FF47A71A6
:10296000B0FBF1F0C0EBC00000EB8000029000BFB4
:102970000298401E02900298A8B90020206300E04F
:1029800039E0202084F83D00002084F83E00206CCF
:1029900040F02000206462B600BF002084F83C00B4
:1029A00000BF0120D1E620684069C0F38000002804
:1029B000DED02068006840F400702168086020685C
:1029C0000069616A0870606A401C6062208D401E68
:1029D0002085608D401E608562B620680069616A4E
:1029E0000870606A401C6062208D401E2085608DEA
:1029F000401E608526E02A463146204602F0BBF99B
:102A000008B10120A1E620680069616A0870606A67
:102A1000401C6062208D401E2085608D401E6085B8
:102A200020684069C0F3800060B120680069616A75
:102A30000870606A401C6062208D401E2085608D99
:102A4000401E6085208D00287FF419AF202084F877
:102A50003D00002084F83E0000BF84F83C0000BF29
:102A600073E6022071E60000020010000000FFFF84
:102A700004000100280000202DE9FC5F04460F46F9
:102A800090469946DDE90CAB0E9EFFF79DFC05468E
:102A900094F83D0020287DD1192301224D4920467C
:102AA000009502F0C3F810B10220BDE8FC9F00BF02
:102AB00094F83C00012801D10220F6E7012084F8B7
:102AC0003C0000BF2068006800F0010028B92068C1
:102AD000006840F00100216808602068006820F468
:102AE000006021680860212084F83D00402084F8BF
:102AF0003E0000202064C4F824A0A4F82AB0608D11
:102B000020853548E0624B46424639462046CDE9AD
:102B1000006501F0EDFF08B10120C6E731E02A466B
:102B20003146204602F067F950B1206C042805D1E7
:102B30002068006840F40070216808600120B4E754
:102B4000606A007821680861606A401C6062208DBC
:102B5000401E2085608D401E608520684069C0F35E
:102B6000800070B1208D60B1606A007821680861D2
:102B7000606A401C6062208D401E2085608D401E72
:102B80006085208D0028CAD12A463146204602F0B1
:102B90001FF800E01CE050B1206C042805D120682B
:102BA000006840F400702168086001207DE720681B
:102BB000006840F4007021680860202084F83D001F
:102BC000002084F83E0000BF84F83C0000BF6CE7A2
:102BD00002206AE7020010000000FFFF10B586B077
:102BE0000446002002900390049005901A49206842
:102BF00088422FD100BF1948806940F0080017496A
:102C000088610846806900F00800019000BF00BF9D
:102C10004FF440700290122003900320059002A907
:102C20000F48FFF733FA00BF0E49486840F0E060F4
:102C300040F00200486000BF00BF0848C06940F48F
:102C400000100649C8610846C06900F400100190F0
:102C500000BF00BF06B010BD00540040001002408D
:102C6000000C014000000140034800680349097856
:102C700008440149086070471C000020240000201F
:102C800010B50848006840F01000064908600320AD
:102C900000F0A8F8002000F007F800F02BF8002062
:102CA00010BD00000020024070B504460E480078B8
:102CB0004FF47A71B1FBF0F00C490968B1FBF0F503
:102CC000284600F0A3FC08B1012070BD102C07D2EB
:102CD00000222146501E00F047F80548046001E03C
:102CE0000120F2E70020F0E7240000202800002067
:102CF0002000002008B500BF1148806940F00100A5
:102D00000F4988610846806900F00100009000BF0B
:102D100000BF00BF0846C06940F08050C861084647
:102D2000C06900F08050009000BF00BF00BF05499F
:102D3000486820F0E06040F00070486000BF08BDC7
:102D4000001002400000014001460846002809DB4F
:102D500000F01F0301229A4043099B0003F1E02386
:102D6000C3F8002100BF70472DE9F05F80460D4693
:102D70001646002703F0CCFA074639462A46334662
:102D800001F00700C0F1070ABAF1040F02D94FF0B1
:102D9000040A01E0C0F1070AD14600F1040ABAF1C1
:102DA000070F02D24FF0000A01E0A0F1030AD44657
:102DB0004FF0010A0AFA09FAAAF1010A0AEA020A1C
:102DC0000AFA0CFA4FF0010B0BFA0CFBABF1010BFA
:102DD0000BEA030B4AEA0B042146404603F0A0FA33
:102DE000BDE8F09F00BF00F00702064B19684FF6E0
:102DF000FF031940044B0B4343EA0221014B1960C6
:102E000000BF70470CED00E00000FA05F8B504467D
:102E100000260025207800F0010000286BD0002754
:102E20004348C06900F0805070B900BF4048C06995
:102E300040F080503E49C8610846C06900F08050AB
:102E4000009000BF00BF01273A48006800F480707E
:102E5000B0B93848006840F4807036490860FFF720
:102E6000B3FA064606E0FFF7AFFA801B642801D9E3
:102E70000320F8BD2F48006800F480700028F2D0CD
:102E80002B48006A00F440752DB3A08800F4407010
:102E9000A84220D02648006A20F440750120264927
:102EA0000860002008602248056205F0010090B12A
:102EB000FFF78AFA064608E0FFF786FA801B41F220
:102EC0008831884201D90320D3E71948006A00F00D
:102ED00002000028F0D01648006A20F440706168B3
:102EE000084313490862012F04D10846C06920F045
:102EF0008050C86100BF207800F00200022807D18E
:102F00000B48406820F44040A168084308494860E5
:102F1000207800F01000102807D10548406820F400
:102F20008000E1680843024948600020A1E70000F2
:102F300000100240007000404004424270B5044658
:102F40000D460CB9012070BD5A48006800F007001A
:102F5000A8420ED25748006820F007002843554980
:102F600008600846006800F00700A84201D0012070
:102F7000E9E7207800F0020002281DD1207800F057
:102F80000400042805D14C48406840F4E0604A49F8
:102F90004860207800F00800082805D146484068BD
:102FA00040F46050444948604348406820F0F000D5
:102FB000A168084340494860207800F0010078B3D8
:102FC0006068012806D13C48006800F4003090B9E0
:102FD0000120B8E76068022806D13748006800F091
:102FE000007040B90120AEE73348006800F00200ED
:102FF00008B90120A7E73048406820F00300616865
:1030000008432D494860FFF7DFF9064609E0FFF75E
:10301000DBF9801B41F28831884202D9032092E714
:1030200007E02548406800F00C006168B0EB810FB4
:10303000EDD12048006800F00700A8420ED91D48D5
:10304000006820F0070028431A4908600846006815
:1030500000F00700A84201D0012074E7207800F0BA
:103060000400042807D11448406820F4E060E168B7
:10307000084311494860207800F00800082808D16A
:103080000D48406820F46050216940EAC1000A49B7
:10309000486000F03FF808494968C1F30311074A46
:1030A000515CC8400649086006480068FFF7FCFD0F
:1030B000002048E70020024000100240B8B9000894
:1030C0002800002020000020014800687047000010
:1030D0002800002000B5FFF7F7FF04494968C1F355
:1030E0000221034A515CC84000BD000000100240AC
:1030F000C8B9000800B5FFF7E7FF04494968C1F304
:10310000C221034A515CC84000BD000000100240CB
:10311000C8B90008F0B585B00FF26C0C9CE8E0105F
:1031200001A8A0E8E0101CA52D6800950021002250
:10313000002300240020194D696801F00C05F5B149
:10314000042D02D0082D19D101E0154819E001AD78
:10315000C1F38346AC5D01F4803555B10F4D6D6808
:10316000C5F340451DF805200D4D6543B5FBF2F351
:1031700002E00C4D04FB05F3184602E000BF0848CE
:1031800000BF00BF05B0F0BD020304050607080933
:103190000A0B0C0D0E0F101001020000001002406F
:1031A00000127A0000093D00F8B504460CB9012070
:1031B000F8BD207800F00100002878D0F848406879
:1031C00000F00C0004280CD0F548406800F00C001A
:1031D000082811D1F248406800F48030B0F5803FF3
:1031E0000AD1EF48006800F4003000285FD0606822
:1031F00000285CD10120DBE700BF6068B0F5803FAC
:1032000006D1E748006840F48030E549086028E0CE
:10321000606858B9E248006820F48030E0490860EE
:103220000846006820F4802008601AE06068B0F565
:10323000A02F0BD1DA48006840F48020D8490860FC
:103240000846006840F4803008600AE0D44800680E
:1032500020F48030D24908600846006820F48020BD
:10326000086000BF606888B1FFF7AEF8054606E069
:10327000FFF7AAF8401B642801D9032098E7C84843
:10328000006800F400300028F2D010E0FFF79CF84E
:10329000054606E0FFF798F8401B642801D9032093
:1032A00086E7BF48006800F400300028F2D120789B
:1032B00000F00200022857D1B948406800F00C0025
:1032C00050B1B748406800F00C00082818D1B44845
:1032D000406800F4803098B9B148006800F00200FE
:1032E00020B12069012801D0012061E7AC480068C5
:1032F00020F0F800616940EAC100A949086033E0A4
:103300002069E8B10120A7490860FFF75DF805468C
:1033100006E0FFF759F8401B022801D9032047E7D0
:103320009F48006800F002000028F2D09C48006826
:1033300020F0F800616940EAC1009949086013E093
:10334000002098490860FFF73FF8054606E0FFF7C0
:103350003BF8401B022801D9032029E79048006868
:1033600000F002000028F2D1207800F008000828C0
:103370002DD1A069B8B101208B490860FFF724F86E
:10338000054606E0FFF720F8401B022801D903207C
:103390000EE78348406A00F002000028F2D00120C6
:1033A00002F0C0FA13E000207F490860FFF70CF834
:1033B000054606E0FFF708F8401B022801D9032064
:1033C000F6E67748406A00F002000028F2D1207843
:1033D00000F00400042873D100277148C06900F090
:1033E000805070B900BF6E48C06940F080506C4991
:1033F000C8610846C06900F08050009000BF00BF5F
:1034000001276A48006800F48070B0B96748006816
:1034100040F4807065490860FEF7D6FF054606E077
:10342000FEF7D2FF401B642801D90320C0E65F48A5
:10343000006800F480700028F2D000BFE068012826
:1034400006D15748006A40F001005549086227E05C
:10345000E06858B95248006A20F0010050490862FB
:103460000846006A20F00400086219E0E0680528B8
:103470000BD14B48006A40F00400494908620846F5
:10348000006A40F0010008620AE04548006A20F046
:103490000100434908620846006A20F004000862FF
:1034A00000BFE068A0B1FEF78FFF054609E0FEF718
:1034B0008BFF401B41F28831884202D9032077E616
:1034C00022E03748006A00F002000028EFD012E046
:1034D000FEF77AFF054608E0FEF776FF401B41F253
:1034E0008831884201D9032062E62D48006A00F045
:1034F00002000028F0D1012F05D12948C06920F031
:1035000080502749C86100BFE069C8B324484068BB
:1035100000F00C00082860D0E069022848D10020A3
:1035200020490866FEF750FF054606E0FEF74CFF0F
:10353000401B022801D903203AE61948006800F030
:1035400000700028F2D1206AB0F5803F07D11448FE
:10355000406820F40030A168084311494860D4E96C
:10356000080108430E49496821F4741108430C49C5
:10357000486001200B490866FEF726FF054607E074
:103580003DE0FEF721FF401B022801D903200FE692
:103590000348006800F000700028F2D02FE000001F
:1035A000001002400000424280044242007000408D
:1035B000002014490866FEF707FF054606E0FEF7FF
:1035C00003FF401B022801D90320F1E50E480068E3
:1035D00000F000700028F2D111E0E069012800D16C
:1035E000E6E50948466806F48031206A814204D144
:1035F00006F47011606A814201D00120D8E50020F4
:10360000D6E50000000042420010024070B50446BA
:103610002546681EB0F1807F01D301200FE0681EAF
:103620004FF0E02148610F214FF0FF3002F078FEAB
:1036300000204FF0E021886107200861002070BD64
:103640007047704710B50346002200BF93F83C0056
:10365000012801D1022010BD012083F83C0000BFE9
:1036600022F0FF00CC6840EA040222F440708C682B
:1036700040EA040222F480604C6840EA040222F42A
:1036800000600C6840EA040222F480500C6940EAB1
:10369000040222F400504C6940EA040222F4804003
:1036A000CC6940EA04021868426400BF002083F835
:1036B0003C0000BF00BFCEE730B502460B4600BF5E
:1036C00092F83C00012801D1022030BD012082F88F
:1036D0003C0000BF022082F83D001068446810687A
:1036E000816824F070041868044310684460104D29
:1036F0001068A8420BD01068B0F1804F07D00D4D74
:103700001068A84203D00C4D1068A84205D121F0E2
:1037100080015868014310688160012082F83D00F3
:1037200000BF002082F83C0000BF00BFCDE70000D2
:10373000002C0140000400400008004010B5044681
:103740000CB9012010BD94F83D0028B9002084F880
:103750003C00204600F026F8022084F83D00211DA0
:10376000206802F04DF9012084F8460000BF84F87B
:103770003E0001213F2001554020015541200155C7
:1037800000BF00BF012084F84200432001554420BF
:1037900001554520015500BF012084F83D0000205F
:1037A000D0E7000010B586B00446002002900390D8
:1037B000049005902249206888420DD100BF21481D
:1037C000806940F400601F4988610846806900F400
:1037D0000060019000BF30E01B49206888422CD176
:1037E00000BF1848C06940F002001649C861084689
:1037F000C06900F00200019000BF00BF00BF084692
:10380000806940F0080088610846806900F008007F
:10381000019000BF00BF0120029000200390022011
:10382000049002A90948FEF731FC002206211D2060
:10383000FFF79AFA1D20FFF787FA06B010BD0000C7
:10384000002C01400010024000040040000C014028
:10385000014691F83D00012801D001207047022067
:1038600081F83D00124B086898420BD00868B0F10F
:10387000804F07D00F4B0868984203D00E4B086862
:1038800098420CD10868806800F00702062A0CD024
:103890000868006840F001000B68186005E00868DF
:1038A000006840F001000B6818600020D6E70000B7
:1038B000002C01400004004000080040014691F83F
:1038C0003D00012801D001207047022081F83D0011
:1038D0000868C06840F001000B68D860124B0868A7
:1038E00098420BD00868B0F1804F07D00F4B0868A2
:1038F000984203D00E4B086898420CD10868806843
:1039000000F00702062A0CD00868006840F00100A9
:103910000B68186005E00868006840F001000B685B
:1039200018600020D0E70000002C01400004004097
:10393000000800402DE9F04104460D4600BF94F810
:103940003C00012802D10220BDE8F081012084F86A
:103950003C0000BF022084F83D002068866826F005
:10396000770626F47F46206886602868502833D082
:103970000CDC202850D004DC00284BD0102851D17A
:1039800049E0302849D040284CD139E060282DD07A
:10399000702807D0B0F5805F03D0B0F5005F41D14B
:1039A0000DE040E0D5E902136A68206802F073F880
:1039B0002068866846F077062068866033E0D5E99F
:1039C00002136A68206802F066F82068806840F494
:1039D00080402168886026E0EA686968206802F013
:1039E0002BF95021206802F061F81CE0EA68696850
:1039F000206802F069F96021206802F057F812E0AF
:103A0000EA686968206802F017F94021206802F02E
:103A10004DF808E000BF00BF00BF2968206802F031
:103A200045F800E000BF00BF012084F83D0000BF62
:103A3000002084F83C0000BF00BF85E72DE9F0417D
:103A400004460D4614B90120BDE8F08194F83D000C
:103A500028B9002084F83C00204600F051F80220EC
:103A600084F83D002068806844F20701884321689B
:103A70008860211D206801F0C3FF2068D0F808800D
:103A8000206886692068076A286840EA080840F2CA
:103A900003308643A969A86840EA0120064340F63E
:103AA0000C4086434FF2F0008643E969E86840EA3B
:103AB0000120064328690001296A40EA01300643D3
:103AC00027F022076969686840EA01100743206807
:103AD000C0F808802068866120680762012084F8A9
:103AE000460084F83E0001213F200155012084F862
:103AF000420043200155012084F83D000020A3E747
:103B000010B586B004460020029003900490059002
:103B10002068B0F1804F24D100BF2748C06940F031
:103B200001002549C8610846C06900F00100019004
:103B300000BF00BF00BF0846806940F004008861F4
:103B40000846806900F00400019000BF00BF032018
:103B5000029000200390049002A91848FEF796FAFC
:103B600027E017492068884223D100BF1248C06966
:103B700040F004001049C8610846C06900F0040024
:103B8000019000BF00BF00BF0846806940F00800F8
:103B900088610846806900F00800019000BF00BFFE
:103BA000C020029000200390049002A90548FEF76F
:103BB0006DFA06B010BD0000001002400008014080
:103BC00000080040000C01402DE9F04304460D467A
:103BD00094F83E603F20075D94F84280432010F83F
:103BE00004906DB9012E02D1B8F1010F02D001206D
:103BF000BDE8F083022084F83E0084F8420025E00E
:103C0000042D0CD1012F02D1B9F1010F01D00120F7
:103C1000EEE702213F2001554320015516E0012E19
:103C200007D1012F05D1B8F1010F02D1B9F1010F70
:103C300001D00120DCE7022084F83E0002213F2071
:103C40000155022084F842004320015515B1042D8E
:103C50000CD105E001220021206801F00BFF10E0EB
:103C600001220421206801F005FF0AE00122002161
:103C7000206801F0FFFE01220421206801F0FAFE15
:103C800000BF00BF2068006840F0010021680860A4
:103C90000020ADE726490978E9B90021254A1160DD
:103CA000254A12685162254A116000BF22490968FD
:103CB000096A21F40071204A126811621E490968DC
:103CC000096A41F400711C4A1268116200BF0121A7
:103CD000174A11702BE018490968C96B174A11601F
:103CE00000BF15490968096A21F40071124A126877
:103CF000116211490968096A0F4A1268116200BF0E
:103D000000210B4A117001210D4A117011460978EA
:103D100001290CD107490988C1EB014207490988EB
:103D2000491C1144074A11800021054A117070474F
:103D30006400002060000020400500205C0000209E
:103D400065000020660000202DE9F04104460D4684
:103D5000164600BF94F83C00012802D10220BDE8BD
:103D6000F081012084F83C0000BF96B9EB68D5E9EA
:103D70000012206801F074FF2068806920F00C00B8
:103D80002168886120688069A96808432168886182
:103D90003DE0042E13D1EB68D5E90012206801F054
:103DA000A7FF2068806920F440602168886120684E
:103DB0008069A96840EA01202168886127E0082E0F
:103DC00012D1EB68D5E90012206801F0AEFF20683F
:103DD000C06920F00C002168C8612068C069A9682A
:103DE00008432168C86112E0EB68D5E90012206839
:103DF00001F0B7FF2068C06920F440602168C86105
:103E00002068C069A96840EA01202168C86100BF34
:103E1000002084F83C0000BF00BFA0E710B50446B6
:103E20000CB9012010BD94F83D0028B9002084F899
:103E30003C00204600F025F8022084F83D00211DBA
:103E4000206801F0DDFD012084F8460000BF84F801
:103E50003E0001213F2001554020015541200155E0
:103E600000BF00BF012084F84200432001554420D8
:103E700001554520015500BF012084F83D00002078
:103E8000D0E770472DE9F04104460D4615B994F886
:103E90003E000BE0042D02D13F20005D06E0082D1E
:103EA00002D14020005D01E04120005D074615B9C8
:103EB00094F842000BE0042D02D14320005D06E09F
:103EC000082D02D14420005D01E04520005D8046C0
:103ED000012F02D1B8F1010F02D00120BDE8F0811D
:103EE0001DB9022084F83E000EE0042D03D102210A
:103EF0003F20015508E0082D03D102214020015543
:103F000002E00221412001551DB9022084F842003F
:103F10000EE0042D03D102214320015508E0082DB5
:103F200003D102214420015502E002214520015520
:103F300035B1042D0BD0082D10D00C2D1CD114E060
:103F40002068C06840F002002168C86015E0206861
:103F5000C06840F004002168C8600EE02068C068B6
:103F600040F008002168C86007E02068C06840F0A1
:103F700010002168C86000E000BF00BF0122294690
:103F8000206801F077FD1249206888420BD0206834
:103F9000B0F1804F07D00F492068884203D00E4906
:103FA000206888420CD12068806800F00706062E41
:103FB0000CD02068006840F001002168086005E02E
:103FC0002068006840F0010021680860002085E753
:103FD000002C0140000400400008004010B50446D9
:103FE00020680069C0F34000D8B12068C068C0F301
:103FF0004000B0B16FF00200216808610120207715
:104000002068806900F0030018B12046FFF742FEE7
:1040100005E0204600F0DAF8204600F08AF900209A
:10402000207720680069C0F38000D8B12068C0689C
:10403000C0F38000B0B16FF0040021680861022075
:1040400020772068806900F4407018B12046FFF79F
:1040500021FE05E0204600F0B9F8204600F069F99D
:104060000020207720680069C0F3C000D8B1206824
:10407000C068C0F3C000B0B16FF0080021680861EB
:10408000042020772068C06900F0030018B12046A2
:10409000FFF700FE05E0204600F098F8204600F00B
:1040A00048F90020207720680069C0F30010D8B1DB
:1040B0002068C068C0F30010B0B16FF01000216834
:1040C0000861082020772068C06900F4407018B1AA
:1040D0002046FFF7DFFD05E0204600F077F8204698
:1040E00000F027F9002020772068006900F0010027
:1040F00058B12068C06800F0010030B16FF00100D5
:1041000021680861204600F07FF920680069C0F34B
:10411000C01058B12068C068C0F3C01030B16FF053
:104120008000216808612046FFF78AFA206800694C
:10413000C0F3801058B12068C068C0F3801030B15F
:104140006FF0400021680861204600F065F92068A2
:104150000069C0F3401058B12068C068C0F3401037
:1041600030B16FF02000216808612046FFF769FA3E
:1041700010BD000010B586B00446002002900390E8
:10418000049005900E492068884217D100BF0D4861
:10419000806940F004000B4988610846806900F09E
:1041A0000400019000BF00BF4FF410600290022095
:1041B0000390059002A90448FDF768FF06B010BD02
:1041C000002C01400010024000080140704770B50B
:1041D00004460D46164600BF94F83C00012801D164
:1041E000022070BD012084F83C0000BF36B1042ECF
:1041F0001BD0082E31D00C2E5ED145E02946206818
:1042000001F05EFC2068806940F008002168886148
:104210002068806920F00400216888612068806936
:10422000296908432168886147E02946206801F030
:1042300077FC2068806940F400602168886120680C
:10424000806920F48060216888612068806929691C
:1042500040EA0120216888612FE02946206801F0AA
:1042600093FC2068C06940F008002168C86120689C
:10427000C06920F004002168C8612068C06929690C
:1042800008432168C86118E02946206801F0B0FCA5
:104290002068C06940F400602168C8612068C06976
:1042A00020F480602168C8612068C069296940EAFB
:1042B00001202168C86100E000BF00BF00BF0020EE
:1042C00084F83C0000BF00BF8BE710B504460CB972
:1042D000012010BD94F83D0028B9002084F83C006E
:1042E000204600F025F8022084F83D00211D2068BA
:1042F00001F086FB012084F8460000BF84F83E00F0
:1043000001213F200155402001554120015500BFAA
:1043100000BF012084F8420043200155442001558C
:104320004520015500BF012084F83D000020D0E762
:104330007047704770B504460D4615B994F83E00B5
:104340000BE0042D02D13F20005D06E0082D02D1D4
:104350004020005D01E04120005D012801D00120E6
:1043600070BD1DB9022084F83E000EE0042D03D17B
:1043700002213F20015508E0082D03D102214020F1
:10438000015502E002214120015501222946206801
:1043900001F070FB19492068884201D1012000E03A
:1043A000002028B12068406C40F400402168486437
:1043B0001249206888420BD02068B0F1804F07D0A6
:1043C0000F492068884203D00E49206888420CD1EA
:1043D0002068806800F00706062E0CD02068006870
:1043E00040F001002168086005E02068006840F0A6
:1043F0000100216808600020B2E70000002C0140A5
:10440000000400400008004002490968491C014AB4
:1044100011607047600000207047704770B5044617
:10442000002520684069C0F3C01594F83D0021289C
:104430000ED16DB12068406920F08000216848618C
:10444000606B10B1606BFDF763FC204601F02EFD40
:1044500020684069C0F3801594F83E0022280ED1F0
:104460006DB12068406920F0400021684861A06B70
:1044700010B1A06BFDF74CFC204601F0FCFC0020C5
:1044800070BD704710B504460CB9012010BDA0697D
:1044900000B100E000BF94F83D0028B9002084F886
:1044A0003C00204600F028F8242084F83D002068D5
:1044B000C06820F400502168C860204601F000FD6B
:1044C0002068006920F490402168086120684069F4
:1044D00020F02A00216848612068C06840F400503C
:1044E0002168C86000202064202084F83D0084F802
:1044F0003E000020CAE7000010B586B00446002048
:1045000002900390049005908F492068884237D12B
:1045100000BF8E48806940F480408C49886108461D
:10452000806900F48040019000BF00BF00BF0846D2
:10453000806940F0040088610846806900F004004A
:10454000019000BF00BF4815029002200390032095
:10455000059002A97E48FDF799FD4FF48060029016
:1045600000200390049002A97948FDF78FFD0022F6
:1045700006212520FEF7F8FB2520FEF7E5FBE0E00D
:104580007449206888426BD100BF7048C06940F40C
:1045900000306E49C8610846C06900F400300190DF
:1045A00000BF00BF00BF0846806940F0040088617A
:1045B0000846806900F00400019000BF00BF04209D
:1045C0000290022003900320059002A96048FDF7A5
:1045D0005DFD0820029000200390049002A95C4831
:1045E000FDF754FD5C485D490860002048600021EB
:1045F0005A4881608021C160002101614161202110
:1046000081610021C161FDF77DFC08B1FDF710F962
:1046100000BF5248A063446200BF4F481430504965
:1046200008601020486000214D4881608021C160F1
:104630000021016141618161C161FDF763FC08B145
:10464000FDF7F6F800BF46486063446200BF0022F1
:1046500006212620FEF788FB2620FEF775FB70E07A
:104660004049206888426CD100BF3848C06940F496
:1046700080203649C8610846C06900F48020019056
:1046800000BF00BF00BF0846806940F00800886195
:104690000846806900F00800019000BF00BF0815BF
:1046A0000290022003900320059002A92E48FDF7F6
:1046B000EDFC4FF40060029000200390049002A9EA
:1046C0002948FDF7E3FC24483C38284908600020CD
:1046D00048600021254881608021C160002101617E
:1046E0004161202181610021C161FDF70BFC08B10E
:1046F000FDF79EF800BF1D48A063446200BF164846
:1047000050381B490860102048600021184881601B
:104710008021C1600021016141618161C161FDF7BA
:10472000F1FB08B1FDF784F800BF114860634462F3
:1047300000BF002206212720FEF716FB2720FEF7E8
:1047400003FB06B010BD000000380140001002401D
:1047500000080140004400406C0002409C0600201C
:10476000E006002000480040000C01402407002023
:104770006807002070B504460D46164694F83E00C2
:10478000202816D105B10EB9012070BD00BF94F8E4
:104790003C00012801D10220F7E7012084F83C0009
:1047A00000BF0020206332462946204601F006FC67
:1047B000EBE70220E9E7704770472DE9F84F044620
:1047C0000E46174699464FF0000A94F83D002028FF
:1047D0005AD106B117B90120BDE8F88F00BF94F88F
:1047E0003C00012801D10220F6E7012084F83C00BA
:1047F00000BF00202064212084F83D00FDF7E4FD87
:104800008246A784E784A068B0F5805F04D1206960
:1048100010B90025B04602E035464FF0000800BF51
:10482000002084F83C0000BF1BE05346002280219A
:104830002046CDF8009001F00DFC08B10320CBE735
:1048400045B9B8F80000C0F308002168486008F1D5
:10485000020803E02878216848606D1CE08C401E47
:10486000E084E08C0028E0D153460022402120461D
:10487000CDF8009001F0EEFB08B10320ACE720205A
:1048800084F83D000020A7E70220A5E700BFFEE76F
:10489000014608684069C0F38020B0B16FF48060C1
:1048A0000A68506100200863202081F83D00002044
:1048B00081F83E00086C40F00400086400BF00204E
:1048C00081F83C0000BF012070470020FCE7000099
:1048D0002DE9F84304460D4617469846E66A082E29
:1048E00004D0012E02D016F5803F06D12068006862
:1048F00040F480702168086008E0206B122805D120
:104900002068006840F48070216808603B460022FF
:104910004FF001112046CDF8008000F087F960B11A
:104920002068006800F48070B0F5807F02D14FF4F9
:10493000007020640320BDE8F8832069B0F5804F43
:1049400004D105F0FE002168086112E005F4407012
:10495000F02141EAE0102168086143463A460B49DC
:10496000204600F0A6F908B10120E4E7E8B221688A
:10497000086143463A460549891F204600F099F9E7
:1049800008B10120D7E70020D5E7000008000100AA
:104990002DE9F84304460F4615469946DDE9088699
:1049A0002068006840F48060216808602068006822
:1049B00040F4807021680860434600224FF00111E6
:1049C0002046009600F032F960B12068006800F4DB
:1049D0008070B0F5807F02D14FF400702064032016
:1049E000BDE8F88307F0FE002168086133464246BF
:1049F0003E49204600F05DF908B10120F0E700BF14
:104A00000020009020684069009020688069009034
:104A100000BF00BF32464146204600F0ECF950B1DD
:104A2000206C042805D12068006840F400702168DB
:104A300008600120D4E7B9F1010F03D1E8B2216881
:104A4000086117E0C5F30720216808613246414636
:104A5000204600F0D0F950B1206C042805D1206820
:104A6000006840F40070216808600120B8E7E8B2EF
:104A70002168086132464146204600F0BCF950B139
:104A8000206C042805D12068006840F4007021687B
:104A900008600120A4E72068006840F48070216865
:104AA0000860434600224FF001112046009600F0B6
:104AB000BDF858B12068006800F48070B0F5807FC0
:104AC00002D14FF400702064032089E7F8B240F06F
:104AD000010021680861334642460449204600F03F
:104AE000E8F808B101207BE7002079E70200010027
:104AF0002DE9F8430446884615469946DDE90867DE
:104B00002068006840F48070216808603346002205
:104B10004FF001112046009700F088F860B120683E
:104B2000006800F48070B0F5807F02D14FF400700F
:104B300020640320BDE8F88308F0FE0021680861C6
:104B40003B4632462149204600F0B3F808B1012027
:104B5000F0E700BF002000902068406900902068C6
:104B60008069009000BF00BF3A463146204600F001
:104B700042F950B1206C042805D12068006840F447
:104B80000070216808600120D4E7B9F1010F03D15A
:104B9000E8B22168086117E0C5F3072021680861C1
:104BA0003A463146204600F026F950B1206C0428E0
:104BB00005D12068006840F4007021680860012079
:104BC000B8E7E8B2216808610020B3E702000100FD
:104BD00070B504460D46164620E02046FFF758FE05
:104BE00008B1012070BD681CC0B1FDF7EDFB801B52
:104BF000A84200D895B900202063202084F83D0009
:104C0000002084F83E00206C40F02000206400BFAB
:104C1000002084F83C0000BF0120E3E720684069E1
:104C2000C0F380000028D8D00020DBE72DE9F04158
:104C300004460D4617461E46DDF818801CE0701C21
:104C4000D0B1FDF7C1FBA0EB0800B04200D89EB97F
:104C500000202063202084F83D00002084F83E00DE
:104C6000206C40F02000206400BF002084F83C004D
:104C700000BF0120BDE8F081C5F3074001280AD13B
:104C800020684069A9B20840A9B2884201D1012038
:104C90000BE0002009E020688069A9B20840A9B2B1
:104CA000884201D1012000E00020B842C7D0002096
:104CB000E0E72DE9F04104460D4616461F463DE06B
:104CC00020684069C0F38020E8B12068006840F4A3
:104CD0000070216808606FF48060216848610020DE
:104CE0002063202084F83D00002084F83E00206CE2
:104CF00040F00400206400BF002084F83C0000BFA6
:104D00000120BDE8F081701CC0B1FDF75DFBC01B48
:104D1000B04200D896B900202063202084F83D00DE
:104D2000002084F83E00206C40F02000206400BF8A
:104D3000002084F83C0000BF0120E2E7C5F30740F3
:104D400001280AD120684069A9B20840A9B2884266
:104D500001D101200BE0002009E020688069A9B2A0
:104D60000840A9B2884201D1012000E000200028BB
:104D7000A6D00020C5E770B504460D46164632E0C1
:104D800020684069C0F30010A0B16FF010002168E6
:104D9000486100202063202084F83D00002084F832
:104DA0003E00206C206400BF002084F83C0000BF5F
:104DB000012070BDFDF708FB801BA84200D895B903
:104DC00000202063202084F83D00002084F83E006D
:104DD000206C40F02000206400BF002084F83C00DC
:104DE00000BF0120E5E720684069C0F3801000287B
:104DF000C6D00020DDE770B504460D46164620E01B
:104E00002046FFF745FD08B1012070BD681CC0B108
:104E1000FDF7DAFA801BA84200D895B9002020637C
:104E2000202084F83D00002084F83E00206C40F0F3
:104E30002000206400BF002084F83C0000BF012057
:104E4000E3E720684069C0F3C0100028D8D00020F4
:104E5000DBE72DE9F04F97B0824616461F46DDE9A5
:104E60002245DAE908B35A46DDE92001FBF7A3FC45
:104E7000CDE9140120462946DDE91423FBF7A1FC06
:104E8000CDE90801DAE906B35A46FBF7F3FBCAE9B4
:104E90000601DAE910B35A4620462946FBF791FC91
:104EA000CDE90001DAE90CB35A46FBF784FCCDE901
:104EB0000201DAE90EB35A46FBF77DFCCDE90401A5
:104EC000DAE900B35A46FBF7D5FB22462B46CDE97B
:104ED0000601FBF776FCCDE90801DAE90AB35A4688
:104EE000FBF7C8FBCAE90A01DAE910B35A462046C3
:104EF0002946FBF766FCCDE90801DAE90CB35A460E
:104F0000FBF75CFCCAE90C01DAE910B35A4620460B
:104F10002946FBF756FCCDE90801DAE90EB35A46FB
:104F2000FBF74CFCCAE90E0122462B46DAE902B136
:104F30005846FBF746FCCDE90801DAE910B35A46BA
:104F4000FBF798FBCAE91001DAE904B3DAE90A01D0
:104F50005A46CDE90801FBF78DFB8046894642465B
:104F60004B46DAE90AB15846FBF79DFCCDE9100142
:104F700042464B46DAE90EB15846FBF794FCCDE9C0
:104F80001201DAE906B35A4630463946FBF713FCFC
:104F9000CDE90E01DDE90F3B58460E9A1199FBF75A
:104FA00010FCCDE90801DAE906B35A46FBF762FBCB
:104FB000CAE90601DDE912B15846DDE90E23FBF727
:104FC00000FCCDE90801DAE908B35A46FBF752FBC9
:104FD000CAE90801DAE90A01CDE90C01DAE90C01B4
:104FE000CDE90A01DDE910B15846DDE90C23FBF7F4
:104FF000E8FBCDE90801DAE90AB35A46FBF7DEFB24
:10500000CAE90A01DDE910B15846DDE90A23FBF7D8
:10501000D8FBCDE90801DAE90CB35A46FBF7CEFB21
:10502000CAE90C01DDE912B15846DDE90C23FBF7B2
:10503000C8FBCDE90801DAE90EB35A46FBF7BEFB1F
:10504000CAE90E01DDE912B15846DDE90A23FBF792
:10505000B8FBCDE90801DAE910B35A46FBF7AEFB1D
:10506000CAE91001DAE9060117B0BDE8F08F0000C7
:1050700010B50446012C02D10020214908602048C7
:10508000006850BB4FF480411E48FDF78FF928B1EE
:105090004FF400411B48FDF789F9F0B91A48006840
:1050A000401C1949086008460068022825DD0120D7
:1050B000134908600020144908604FF480411148EA
:1050C000FDF774F908B9012010BD4FF400410D48F7
:1050D000FDF76CF988B90220F6E74FF480410948E2
:1050E000FDF764F9012808D1C1030648FDF75EF910
:1050F000012802D10020024908600020E4E70000F6
:1051000030000020001001402C0000200EB50020CF
:10511000009001900290234823490860811522489D
:1051200081600021017301754FF46021C16100208D
:105130001D49486004211C480161FCF72FFC08B19F
:10514000FCF776FB042000900120019005200290DE
:1051500069461548FCF76EFB08B1FCF769FB0520B2
:1051600000900220019069460F48FCF763FB08B1EC
:10517000FCF75EFB062000900320019069460A4878
:10518000FCF758FB08B1FCF753FB07200090042004
:10519000019069460448FCF74DFB08B1FCF748FB59
:1051A0000EBD000000240140E803002008B500BF48
:1051B0001A48406940F001001849486108464069B2
:1051C00000F00100009000BF00BF002206210B206C
:1051D000FDF7CAFD0B20FDF7B7FD002206210C20CC
:1051E000FDF7C2FD0C20FDF7AFFD002206210D20CA
:1051F000FDF7BAFD0D20FDF7A7FD002206211020C6
:10520000FDF7B2FD1020FDF79FFD002206211120C1
:10521000FDF7AAFD1120FDF797FD08BD0010024023
:1052200000B5ABB002F0A2F91C22244924A8FAF779
:10523000D5FF002124A802F02CFD214908601C2282
:105240001E491C311DA8FAF7C9FF00211DA802F054
:1052500020FD1C4908601C221849383116A8FAF7AD
:10526000BDFF002116A802F014FD174908601C229A
:10527000124954310FA8FAF7B1FF00210FA802F02C
:1052800008FD124908601C220C49703108A8FAF781
:10529000A5FF002108A802F0FCFC0D4908601C22B3
:1052A00006498C3101A8FAF799FF002101A802F004
:1052B000F0FC084908602BB000BD000010B90008E0
:1052C000140000200000002004000020080000203E
:1052D0000C0000201000002000B585B000200190D7
:1052E00002900390049000BF4948806940F010008C
:1052F000474988610846806900F01000009000BFAF
:1053000000BF00BF0846806940F020008861084661
:10531000806900F02000009000BF00BF00BF084679
:10532000806940F0040088610846806900F004004C
:10533000009000BF00BF00BF0846806940F0080031
:1053400088610846806900F00800009000BF00BF37
:10535000012251032F48FDF731F8002243F22A01C0
:105360002D48FDF72BF800224FF410412B48FDF794
:1053700025F84FF400500190012002900390049012
:1053800001A92448FCF782FE4FF440400190002020
:1053900002900120039001A91E48FCF777FE43F21A
:1053A0002A0001900120029003900320049001A99B
:1053B0001948FCF76BFE4FF48040019018480290AA
:1053C0000120039001A91448FCF760FE48F2100088
:1053D0000190002002900120039001A90E48FCF7E3
:1053E00055FE4FF4104001900120029003900220DE
:1053F000049001A90948FCF749FE00220621282053
:10540000FDF7B2FC2820FDF79FFC05B000BD0000B1
:105410000010024000100140000C01400008014053
:105420000000211010B50B480B4908600B4848607C
:10543000002109488160C1604FF480410161002171
:1054400041618161C1610162FCF7C4FF08B1FCF7F1
:10545000EFF910BD005400405C040020801A0600E3
:1054600000B595B0002011901290139014900F90F9
:1054700010901C2108A8FAF7CAFE20216846FAF706
:10548000C6FE2F482F4908600020486000212D48A3
:10549000816041F61F41C16000210161416181616C
:1054A000FEF74CF908B1FCF7C3F94FF480501190A6
:1054B00011A92448FEF73EFA08B1FCF7B9F92148D2
:1054C000FEF703FF08B1FCF7B3F900200F9010902E
:1054D0000FA91C48FEF7F0F808B1FCF7A9F9602005
:1054E0000890002009900A900B900C900D900E905F
:1054F000002208A91348FEF76AFE08B1FCF798F9E4
:105500000C2208A90F48FEF762FE08B1FCF790F9DB
:105510000020009001900290039004904FF40050FE
:1055200005900020079069460648FEF78BF808B101
:10553000FCF77EF90348FEF71DFE15B000BD000024
:10554000002C0140B004002000B58BB0242102A83B
:10555000FAF75DFE0020009001904FF0804017495F
:105560000860002048600021144881604FF6FF71F8
:10557000C16000210161816103200290002003903D
:1055800001200490002005900690079001200890CB
:10559000002009900A9002A90848FEF74FFA08B1C6
:1055A000FCF746F900200090019069460348FEF799
:1055B00083F808B1FCF73CF90BB000BDF8040020FB
:1055C00000B58BB000200790089009900A900590D4
:1055D000069001900290039004901F481F490860B4
:1055E0004720486000211D4881604FF6FF71C1606F
:1055F0000021016180218161FEF7A0F808B1FCF76C
:1056000017F94FF48050079007A91448FEF792F954
:1056100008B1FCF70DF91148FEF700FC08B1FCF7E2
:1056200007F900200590069005A90C48FEF744F8FC
:1056300008B1FCF7FDF80020019001200290002045
:1056400003900490082201A90448FEF77DFB08B1ED
:10565000FCF7EEF80BB000BD000400404005002050
:1056600000B58BB0242102A8FAF7D1FD00200090EC
:105670000190184818490860002048600021164829
:1056800081604FF6FF71C1600021016181610320DB
:1056900002900020039001200490002005900690C5
:1056A000079001200890002009900A9002A90A485A
:1056B000FEF7C4F908B1FCF7BBF800200090019098
:1056C00069460548FDF7F8FF08B1FCF7B1F80BB0E3
:1056D00000BD0000000800408805002010B50B4800
:1056E0000B4908604FF4E1304860002108488160B0
:1056F000C16001610C21416100218161C161FEF73E
:10570000C1FE08B1FCF794F810BD0000003801405C
:10571000D005002010B50B480B4908604FF4E1306C
:105720004860002108488160C16001610C2141612D
:1057300000218161C161FEF7A5FE08B1FCF778F890
:1057400010BD0000004400401406002010B50B48B6
:105750000B4908604FF4E13048600021084881603F
:10576000C16001610C21416100218161C161FEF7CD
:1057700089FE08B1FCF75CF810BD0000004800404D
:105780005806002000BFFEE77047000010B5052254
:105790000D49302000F097F805220B49102000F049
:1057A0004BF8002406E00848005DAA2800D003E07A
:1057B000601CC4B2052CF6DB00BF052C01D0012013
:1057C00010BD0020FCE700004800002010B505488F
:1057D00002F088FF002002F017FF012002F026FFF0
:1057E00010BD00003400002010B5002002F00CFFB6
:1057F000052210492A2000F066F80121212000F03E
:105800007EF80121222000F07AF82821252000F0DE
:1058100076F82021312000F072F80F21262000F0C8
:105820006EF80F21202000F06AF8012002F0ECFE53
:1058300010BD0000D5B900082DE9F04107460D461E
:105840001646002002F0F2FE384602F03BF9804690
:10585000002405E0FF2002F035F92855601CC4B291
:10586000B442F7DB012002F0E1FE4046BDE8F081E2
:1058700070B50446002002F0D9FE204602F022F95D
:10588000FF2002F01FF90546012002F0CFFE284656
:1058900070BD70B504460720FFF7EAFF05462946AC
:1058A000272000F02CF805F0400050B120222146BE
:1058B0006120FFF7C1FFFF21E22000F020F8002067
:1058C00070BD0120FCE72DE9F04107460C46154666
:1058D000002002F0ABFE384602F0F4F880460026C5
:1058E00005E014F8010B02F0EDF8701CC6B2AE42F0
:1058F000F7DB012002F09AFE4046BDE8F08170B56A
:1059000005460C46002002F091FE284602F0DAF827
:105910000646204602F0D6F8012002F087FE304607
:1059200070BD000008B508490968C9084FF47A72CB
:10593000B1FBF2F14143009100BF00BF00994A1E44
:1059400000920029F9D108BD2800002000BF0120E5
:1059500002F08EF9FBE710B5FDF786F905F08EFD34
:10596000012801D005F0D0F810BD00B593B0282172
:1059700009A8FAF74CFC142104A8FAF748FC002007
:1059800000900190029003900120099000040A9079
:1059900000200B9001200D9002201090C103119166
:1059A0004FF4E011129109A8FDF7FEFB08B1FBF7D7
:1059B0003FFF0F20049002200590002006904FF436
:1059C0008060079000200890022104A8FDF7B6FA35
:1059D00008B1FBF72DFF022000908003029068467B
:1059E000FDF714FA08B1FBF723FF13B000BD7047B1
:1059F00010B50248FEF7F2FA10BD00004005002085
:105A000010B50268184B984208D0B0F1804F05D00D
:105A1000164B984202D0164B984203D122F07002E6
:105A20004B681A43104B984208D0B0F1804F05D014
:105A30000E4B984202D00E4B984203D122F4407292
:105A4000CB681A4322F080034C6943EA04020260E7
:105A50008B68C3620B688362034B984201D10B6968
:105A600003630123436110BD002C0140000400408A
:105A70000008004030B501F01F05012404FA05F3C9
:105A8000046A9C430462046A01F01F0502FA05F5EA
:105A90002C43046230BD30B50C46816821F47F414F
:105AA00042EA032525432943816030BD0A468168C7
:105AB00021F0700142F00703194381607047000034
:105AC00030B5056A25F001050562026A43688469FC
:105AD00024F0700424F003040D682C4322F0020229
