:020000040800F2
:10000000C0080020450100086308000875040008C6
:100010005F0800088D010008CB16000800000000F2
:10002000000000000000000000000000DD0C0008DF
:1000300091010008000000007D0B0008F10D000890
:100040005F0100085F0100085F0100085F01000810
:100050005F0100085F0100085F0100085F01000800
:100060005F0100085F0100085F0100085F010008F0
:100070005F0100085F0100085F0100085F010008E0
:100080005F0100085F0100085F0100085F010008D0
:100090005F0100085F0100085F010008AD01000872
:1000A0005F0100085F0100085F0100085F010008B0
:1000B00095100008AD100008C91000085F01000885
:1000C0005F0100085F0100085F0100085F01000890
:1000D0005F010008C91400085F010008ED14000862
:1000E0005F0100085F0100085F0100085F01000870
:1000F0005F0100085F0100085F0100085F01000860
:100100005F0100085F0100085F0100085F0100084F
:100110005F0100085F0100085F0100085F0100083F
:100120005F0100085F0100085F0100085F0100082F
:10013000DFF80CD000F018F8004800471D1C00083C
:10014000C00800200648804706480047FEE7FEE753
:10015000FEE7FEE7FEE7FEE7FEE7FEE7FEE7FEE777
:10016000F50D000831010008064C074D06E0E06877
:1001700040F0010394E8070098471034AC42F6D3EE
:10018000FFF7DAFFAC1C0008CC1C000800BFFEE73C
:100190007047000010B5044801F08EFAC4B2214641
:1001A000014801F08EFA10BD0038014010B5202042
:1001B00000F00AF8202000F001F810BD01490860A5
:1001C0007047000014040140014600200022074B44
:1001D0001B6803EA0102054B14331B680B4013B183
:1001E0000AB1012000E00020704700000004014037
:1001F000002123498279002A3AD00A46126803680E
:100200009A430B461A600A1D126803689A430B1D35
:100210001A60027911440A6803681A430A60184A8E
:100220000832126803689A43154B08331A601A1D86
:10023000126803689A43124B0C331A604279102AF1
:100240000ED11A1F126803681A430D4B08331A6047
:100250001A1D126803681A43094B0C331A600DE02B
:100260000749427911440A6803681A430A6005E0A5
:10027000027911440A6803689A430A6070470000D3
:100280000004014030B500228B071C0F0F2303FA36
:1002900004F20B4B8C1053F824309343084C8D1010
:1002A00044F8253023468C1053F824308C07240F53
:1002B00000FA04F42343024C8D1044F8253030BD7D
:1002C000080001402DE9F0410246002500260020EB
:1002D00000230024002791F803C00CF00F0591F8CB
:1002E00003C00CF0100CBCF1000F03D091F802C059
:1002F0004CEA050591F800C0BCF1000F31D014683C
:1003000000202BE04FF0010C0CFA00F3B1F800C014
:100310000CEA03069E4220D183004FF00F0C0CFA2A
:1003200003F7BC4305FA03FC4CEA040491F803C04C
:10033000BCF1280F06D14FF0010C0CFA00FCC2F8FA
:1003400014C00AE091F803C0BCF1480F05D14FF08A
:10035000010C0CFA00FCC2F810C0401C0828D1D3D4
:100360001460B1F800C0BCF1FF0F34DD5468002008
:100370002EE000F1080C4FF0010808FA0CF3B1F878
:1003800000C00CEA03069E4221D183004FF00F0CFF
:100390000CFA03F7BC4305FA03FC4CEA040491F899
:1003A00003C0BCF1280F05D100F1080C08FA0CF8C5
:1003B000C2F8148091F803C0BCF1480F07D100F1D6
:1003C000080C4FF0010808FA0CF8C2F81080401C25
:1003D0000828CED35460BDE8F0810000F0B50A468D
:1003E000002300240021002500F00046B6F1004F54
:1003F00002D11D4EF16901E01B4E7168C0F3034547
:1004000083B200F44016B6F5401F08D121F07061A8
:10041000154E766826F07066134F7E6012E000F489
:100420008016B6F5801F06D1032606FA05F4A1430F
:1004300041F0706106E0460D360103FA06F6B1435D
:1004400041F0706122B1460D360103FA06F63143E0
:1004500000F00046B6F1004F02D1034EF16101E019
:10046000014E7160F0BD0000000001404161704725
:100470000161704700BFFEE710B500200949086020
:1004800000F01AFC00200849C1F8A40100F0CEF8E1
:1004900001200449086000F0C9F800200249C1F8B1
:1004A000A00110BDA08121420080214210B5002092
:1004B0000949086000F000FC01200849C1F8A401C6
:1004C00000F0B4F801200449086000F0AFF8002003
:1004D0000249C1F8A00110BDA08121420080214243
:1004E00070B50546002400F0D5FB002614E000207E
:1004F0000E49086000F09AF801200D49C1F8A001EA
:100500006006040E09487C38006808B1601CC4B25B
:1005100000F08CF8701CC6B2082EE8DB15B9FFF7A6
:10052000C5FF01E0FFF7A8FF204670BDA081214272
:100530000080214270B5044600F0BEFB00200D494A
:100540000860002512E0E0090A49091D08606006FC
:10055000040E01200849C1F8A00100F067F800204E
:100560000449086000F062F8681CC5B2082DEADB97
:1005700070BD0000A08121420080214210B500F032
:100580009BFB0120084908600849C1F8A00100F060
:100590004DF800200449086000F048F800200349A5
:1005A000C1F8A00110BD0000A481214200802142B9
:1005B00010B500F081FB0020074908600749C1F829
:1005C000A40100F033F80120034908600349C1F891
:1005D000A40100F02BF810BDA0812142008021422F
:1005E00010B5002400F056FB01200E49086000F011
:1005F0001DF801200C49C1F8A00100F017F807E030
:10060000601CC4B2FA2C03DDFFF7D2FF012010BD3D
:100610000448803800680028F2D10249091F0860A8
:1006200000BFF4E7A48121420080214210B50220DE
:1006300001F0B2FA10BD000008B50121082000F059
:10064000AFFA4FF48070ADF8000003208DF802007F
:1006500014208DF8030069460B48FFF733FE4FF472
:100660000070ADF8000003208DF8020014208DF812
:10067000030069460448FFF725FE0120034908608E
:100680000349C1F8A40108BD000C0140A08121422A
:100690000080214210B5FFF7CFFF80226B21682038
:1006A00000F0B7F8642001F051FA00226B216820B5
:1006B00000F0AFF8032000F065F8002000F059F8D2
:1006C000C82000F088F801223821682000F0A1F845
:1006D00000226A21682000F09CF800222321682073
:1006E00000F097F89C223721682000F092F87521DD
:1006F000682000F019F80B4908700846007868284F
:100700000CD101226B2100F084F800226C216820BA
:1007100000F07FF8C82000F05EF801E0012010BD75
:100720000020FCE73C00002070B504460D46002682
:10073000FFF724FF002141EA4401C8B2FFF7FAFEA7
:10074000FFF74EFF2846FFF7F5FEFFF749FFFFF7DB
:1007500015FF012101EB4401C8B2FFF7EBFEFFF7E3
:100760003FFF0020FFF7BCFE0646FFF721FF3046A3
:1007700070BD10B50446E006020E1C21682000F092
:1007800048F810BD10B50446032000EBC400C2B207
:100790001B21682000F03DF810BD70B5044600250F
:1007A000BC2C01DB012510E0622C01DB02250CE0F2
:1007B0002A2C01DB032508E0142C01DB042504E0CE
:1007C0000A2C01DB052500E006252A461A216820AF
:1007D00000F01FF870BD70B50446B4F57A7F01DDF6
:1007E0004FF47A74042C00DA04244FF47A7090FBEE
:1007F000F4F0401EC5B22A461921682000F009F81D
:100800000546264604EBD671C1F34F00FFF7C5FF3E
:1008100070BD70B504460D461646FFF7AFFE0021C9
:1008200041EA4401C8B2FFF785FEFFF7D9FE18B1CF
:10083000FFF7BEFE012070BD2846FFF77BFEFFF7E5
:10084000CFFE3046FFF776FEFFF7CAFE18B1FFF77E
:10085000AFFE0120EFE7FFF7ABFE0020EBE700BFA4
:10086000FEE7704770B5002100230F22C47804B35F
:10087000154C246804F4E064C4F5E064210AC1F175
:100880000403CA40447804FA03F1847814402143F5
:1008900009010E4C0678A155047804F01F050124C7
:1008A000AC4005786D11AD0005F1E025C5F80041BB
:1008B00009E0047804F01F050124AC40044D0678DB
:1008C000761145F8264070BD0CED00E000E400E034
:1008D00080E100E002490143024A116070470000D4
:1008E0000000FA050CED00E070B500240CE00025D6
:1008F00006E00020074901EBC5010855681CC5B298
:10090000802DF6DB601CC4B2082CF0DB00F0DAF8B6
:1009100070BD00004000002008B50121084600F02D
:100920003FF901211C2000F03BF901216248FFF74B
:1009300055FD4FF40040ADF8000014208DF8030081
:1009400003208DF8020069465C48FFF7BBFC4FF4BA
:1009500000415A48FFF78CFD4FF48040ADF800008D
:1009600069465648FFF7AEFC4FF480415348FFF705
:100970007FFD4FF40050ADF8000010208DF803000B
:1009800003208DF8020069464C48FFF79BFC4FF4AA
:1009900000514A48FFF76CFD1020ADF800008DF8BB
:1009A000030003208DF8020069464548FFF78AFCE2
:1009B00010214348FFF75CFD4FF400513F48FFF71B
:1009C00055FDC82001F0C2F84FF400513B48FFF735
:1009D0004FFD0021AE2000F09BF80021084600F0FA
:1009E00097F80021102000F093F80021402000F03B
:1009F0008FF80021812000F08BF80021CF2000F03B
:100A000087F80021A12000F083F80021C82000F021
:100A10007FF80021A62000F07BF80021A82000F03C
:100A200077F800213F2000F073F80021D32000F078
:100A30006FF80021084600F06BF80021D52000F087
:100A400067F80021802000F063F80021D92000F031
:100A50005FF80021F12000F05BF80021DA2000F0BF
:100A600057F80021122000F053F80021DB2000F09D
:100A70004FF80021402000F04BF80021202000F02A
:100A800047F80021022000F043F800218D2000F0FB
:100A90003FF80021142000F03BF80021A42000F0D2
:100AA00037F80021A62000F033F8FFF71DFF0021E2
:100AB000AF2000F02DF808BD00023000001001400A
:100AC000000C014070B500241CE004F1B001C8B274
:100AD000002100F01DF80021084600F019F800215F
:100AE000102000F015F8002508E0084901EBC501C9
:100AF000085D012100F00CF8681CC5B2802DF4DB04
:100B0000601CC4B2082CE0DB70BD00004000002077
:100B100070B504460E4626B110211648FFF7A8FC12
:100B200003E010211348FFF7A1FC00251BE04FF460
:100B300000411148FFF79AFC04F0800028B14FF4FF
:100B400080410D48FFF794FC04E04FF480410A48CF
:100B5000FFF78CFC4FF400410748FFF789FC600663
:100B6000040E681CC5B2082DE1DB10210148FFF717
:100B70007FFC70BD000C0140001001407047000078
:100B800029B1064AD2690243044BDA6104E0034A00
:100B9000D2698243014BDA617047000000100240C5
:100BA00029B1064A92690243044B9A6104E0034A60
:100BB00092698243014B9A61704700000010024025
:100BC00030B500210022002400232D4D6D6805F072
:100BD0000C0121B1042905D0082923D105E0294DB4
:100BE000056022E0274D05601FE0254D6D6805F486
:100BF0007012234D6D6805F48034022505EB924296
:100C00001CB9214D554305600BE01D4D6D6805F481
:100C100000351DB11C4D5543056002E0194D55438B
:100C2000056002E0174D056000BF00BF144D6D6800
:100C300005F0F0010909154D6B5C0568DD40456064
:100C40000F4D6D6805F4E061090A104D6B5C456855
:100C5000DD4085600A4D6D6805F46051C90A0B4D91
:100C60006B5C4568DD40C560054D6D6805F440412D
:100C7000890B074D6B5CC568B5FBF3F5056130BDAD
:100C80000010024000127A0000093D001800002008
:100C90002800002008B54FF40070ADF800000320D4
:100CA0008DF8020048208DF8030069460148FFF7DF
:100CB00009FB08BD000C014008B54FF40070ADF809
:100CC000000003208DF8020014208DF8030069460F
:100CD0000148FFF7F7FA08BD000C0140704710B556
:100CE00000F002F810BD00000CB50020019000904B
:100CF0003348006840F480303149086000BF304814
:100D0000006800F4003000900198401C01900098A9
:100D100018B90198B0F5A06FF1D12948006800F426
:100D2000003010B10120009001E0002000900098F8
:100D3000012843D12348006840F010002149086091
:100D40000846006820F0030008600846006840F08C
:100D5000020008601A48406819494860084640681F
:100D600048600846406840F4806048600846406833
:100D700020F47C1048600846406840F4E810486061
:100D80000846006840F08070086000BF0C480068AA
:100D900000F000700028F9D00948406820F00300F6
:100DA000074948600846406840F00200486000BFBC
:100DB0000348406800F00C000828F9D10CBD000081
:100DC0000010024000200240042808D14FF0E0212A
:100DD000096941F004014FF0E022116107E04FF092
:100DE000E021096921F004014FF0E0221161704710
:100DF0007047000010B51348006840F00100114929
:100E0000086008464068104908400E494860084696
:100E100000680E4908400B4908600846006820F445
:100E2000802008600846406820F4FE0048604FF4C7
:100E30001F008860FFF753FF4FF00060044908600F
:100E400010BD0000001002400000FFF8FFFFF6FE9A
:100E500008ED00E0F0B50C46154600220021068C96
:100E60004FF6FE773E400684028B018C4FF60C76DF
:100E700032407E1C06EA03162E433243104EB04227
:100E80000ED0104EB0420BD0B0F1804F08D00E4EB5
:100E9000B04205D00D4EB04202D00D4EB04206D148
:100EA0004FF6FD76314044F00106314305E04FF640
:100EB000F576314044F00106314302830184F0BDF0
:100EC000002C0140003401400004004000080040B4
:100ED000000C0040F0B50C4615460022002100260B
:100EE000078C4FF6EF7C07EA0C070784028B018C16
:100EF0004FF6FF7707EA041640F6FF473A404FF6F1
:100F0000FF7707EA03373A434FF6FF7707EA0527EB
:100F10003A43114FB8420ED0104FB8420BD0B0F147
:100F2000804F08D00E4FB84205D00E4FB84202D0C5
:100F30000D4FB84206D14FF6DF77394046F0100723
:100F4000394305E04FF65F77394044F010073943E5
:100F500002830184F0BD0000002C014000340140F8
:100F60000004004000080040000C0040F0B50C46B2
:100F70001546002200210026078C4FF6FF6C07EA79
:100F80000C070784828B018C4FF6FF7707EA042653
:100F90004FF60C773A404FF6FF7707EA03172F43D7
:100FA0003A43114FB8420ED0104FB8420BD0B0F1B7
:100FB000804F08D00E4FB84205D00E4FB84202D035
:100FC0000D4FB84206D14FF6FF57394046F48077AF
:100FD000394305E04FF2FF57394044F480773943F5
:100FE00082830184F0BD0000002C014000340140E8
:100FF0000004004000080040000C0040F0B50C4622
:101000001546002200210026078C4EF6FF7C07EAD9
:101010000C070784828B018C4FF6FF7707EA0436B2
:1010200040F6FF473A404FF6FF7707EA05273A4375
:101030004FF6FF7707EA03373A43114FB8420ED015
:10104000104FB8420BD0B0F1804F08D00E4FB842CD
:1010500005D00E4FB84202D00D4FB84206D14DF622
:10106000FF77394046F48057394305E047F6FF578C
:10107000394044F48057394382830184F0BD000035
:10108000002C0140003401400004004000080040F2
:10109000000C00404FF08040008A4FF08040008AF2
:1010A00020F001004FF080410882704710B5012107
:1010B000044800F063F818B10121024800F01FF85D
:1010C00010BD000000040040044800880348008868
:1010D00020F001000149088070470000100800401E
:1010E00021B1028842F08002028004E002884FF6BB
:1010F0007F731A4002807047CA4302827047CA4316
:101100000282704721B1028842F00102028004E0AD
:1011100002884FF6FE731A400280704731B1B0F872
:10112000442042F40042A0F8442005E0B0F84420F6
:10113000C2F30E02A0F844207047F0B50C461546E5
:101140001E460021002200230189028B038C4FF6EA
:10115000F877394021434FF6FC473A4040F20117F7
:101160003A434FF6DD773B404FF6FF7707EA061725
:101170002F433B43018102830384F0BD30B5024617
:10118000002000230024158A05EA0103958905EA59
:10119000010413B10CB1012000E0002030BD0000BB
:1011A00070B505460C46244885420ED0234885423A
:1011B0000BD0B5F1804F08D02148854205D0214899
:1011C000854202D02048854200D100E000BF20883F
:1011D00050B92389A28861882846FFF73BFEE18841
:1011E000284600F0E8F825E0208804280AD1238961
:1011F000A28861882846FFF76DFEE188284600F046
:10120000E3F817E0208808280AD12389A28861889A
:101210002846FFF7ABFEE188284600F0E2F809E037
:101220002389A28861882846FFF7E8FEE1882846DE
:1012300000F0E0F870BD0000002C014000340140D7
:101240000004004000080040000C00400021018024
:101250004180012181800021C180018170471AB144
:1012600083890B43838102E083898B4383817047A9
:1012700070B5002400220023058C4FF6FE76354021
:101280000584028C8388048B4FF68F752C40B51E25
:101290002C400D882C43751E2A400D892A434D8809
:1012A0002A43144DA8420BD0134DA84208D0134D29
:1012B000A84205D0124DA84202D0124DA84213D127
:1012C0004FF6F7752A404D892A434FF6FB752A40A1
:1012D0008D882A434FF6FF652B404FF6FF552B4074
:1012E0008D892B43CD892B4383800483CD888586CC
:1012F000028470BD002C01400034014000400140D8
:1013000000440140004801400A460021018B4FF68D
:10131000F7731940114301837047000070B5002234
:1013200000230024058C4EF6FF7635400584038C9F
:101330008488828B48F6FF752A404FF6FF452A4085
:101340000D884FF6FF7606EA05252A434DF6FF7510
:101350002B400D8906EA05352B434D8806EA0535F5
:101360002B430B4DA84202D00A4DA84208D14BF6A0
:10137000FF752C408D894FF6FF7606EA85152C43C4
:1013800084808283CD88A0F84050038470BD000023
:10139000002C0140003401400A460021818B4FF2AD
:1013A000FF7319404FF6FF7303EA02231943818349
:1013B000704781847047028B4FF6F3731A400283A3
:1013C000028B0A4302837047028B4FF2FF331A40AD
:1013D0000283028B4FF6FF7303EA01231A43028351
:1013E0007047828B4FF6F3731A408283828B0A43D5
:1013F00082837047828B4FF2FF331A408283828B45
:101400004FF6FF7303EA01231A43828370470000FB
:10141000002202881D4B98420ED01D4B98420BD0E3
:10142000B0F1804F08D01B4B984205D01A4B984220
:1014300002D01A4B984204D14FF68F731A404B8852
:101440001A43174B984207D0164B984204D04FF6D8
:10145000FF431A40CB881A4302808B8883850B8810
:1014600003850A4B98420BD0094B984208D00E4B8B
:10147000984205D00D4B984202D00D4B984201D1B5
:101480000B7A03860123838270470000002C014001
:10149000003401400004004000080040000C0040FF
:1014A0000010004000140040004001400044014092
:1014B000004801404FF6FF71818000210180C1800A
:1014C000418001727047000010B540F22551064876
:1014D00000F037F830B1FEF75DFE40F225510248CA
:1014E00000F014F810BD00000038014010B540F2C3
:1014F0002551054800F025F820B140F22551024859
:1015000000F004F810BD00000048004010B50022B3
:10151000002340F66A14A14200D100BF0A12012440
:101520009440A3B2DC43048010BD21B1828942F40F
:101530000052828104E082894DF6FF731A40828155
:10154000704770B50246002400230025002040F6B5
:101550006A16B14200D100BFC1F3421501F01F036A
:10156000012606FA03F3012D02D19689334006E0E5
:10157000022D02D1168A334001E0968A33400C12C4
:10158000012606FA04F41688344013B10CB1012088
:1015900000E0002070BDF0B50346002400260025C1
:1015A000002040F66A17B94200D100BF1846C1F3C7
:1015B000421401F01F06012707FA06F5012C01D19C
:1015C0000C3004E0022C01D1103000E014301AB1CC
:1015D00007682F43076002E00768AF430760F0BD6C
:1015E0002DE9F04786B005460E460024A24600BF0E
:1015F000A1460027B08900B100BF2F462C8A4CF6C7
:10160000FF700440F08804432C82AC894EF6F3103E
:101610000440B08831890843718908430443AC8190
:10162000AC8A4FF6FF400440B0890443AC8201A865
:10163000FFF7C6FA1F48874202D1DDF810A001E08B
:10164000DDF80CA0A88900F4004040B10AEBCA0004
:1016500000EB0A1031684900B0FBF1F807E00AEB33
:10166000CA0000EB0A1031688900B0FBF1F8642071
:10167000B8FBF0F004012009642101FB1089A8895E
:1016800000F4004040B1322000EBC900B0FBF1F0A3
:1016900000F00700044308E0322000EB0910642149
:1016A000B0FBF1F000F00F0004432C8106B0BDE860
:1016B000F08700000038014001468888C0F3080028
:1016C0007047C1F308028280704700BFFEE702E066
:1016D00008C8121F08C1002AFAD1704770470020BD
:1016E00001E001C1121F002AFBD170470EB5012194
:1016F0000846FFF745FA01210420FFF751FA0320BD
:10170000ADF8080004208DF80B0002A94048FEF750
:10171000D9FD6846FFF7CEFE0020ADF800004FF679
:10172000FF70ADF804000020ADF80600ADF802002F
:1017300069464FF08040FFF76BFE00231A460321F5
:101740004FF08040FFF7F9FC6846FFF77FFD0A2065
:10175000ADF8080069464007FFF722FD0121880720
:10176000FFF7CAFC012211469007FFF778FD002120
:101770004FF08040FFF71DFE01218807FFF7C2FCF4
:1017800001210420FFF7FCF901210820FFF708FAE6
:10179000C020ADF8080004208DF80B0002A91D48F8
:1017A000FEF790FD6846FFF785FE0020ADF80000CB
:1017B0004FF6FF70ADF804000020ADF80600ADF85C
:1017C000020069461448FFF723FE00231A4603214E
:1017D0001148FFF7B2FC6846FFF738FD0A20ADF864
:1017E000080069460C48FFF7DBFC01210A48FFF7B7
:1017F00083FC012211460848FFF731FD002106480D
:10180000FFF7D7FD01210448FFF77CFC0EBD000067
:1018100000080140000C0140000800401CB50121F7
:101820000820FFF7BDF901210846FFF7B9F920208C
:10183000ADF8040048208DF8070001A91248FEF712
:1018400041FD2020009000208DF804000C208DF830
:10185000050001208DF806006846FEF7C9FC052149
:101860000120FEF70FFD17208DF8040002208DF8EF
:10187000050003208DF8060001208DF8070001A85F
:10188000FEF7F0FF1CBD0000000C014008B501216F
:101890000420FFF785F901210846FFF781F90121AE
:1018A0000748FEF79BFD4FF40040ADF800004820CC
:1018B0008DF8030069460348FEF704FD08BD0000EB
:1018C000000230000008014008B501210420FFF7A4
:1018D00067F901211020FFF763F94FF40050ADF8CC
:1018E000000010208DF8030003208DF802006946E7
:1018F0000548FEF7E7FC4FF48050ADF8000069465C
:101900000248FEF7DFFC08BD00100140000801405E
:1019100008B501210820FFF743F94FF47040ADF8F6
:10192000000010208DF8030003208DF802006946A6
:101930000148FEF7C7FC08BD000C014010B5FFF7D9
:10194000E7FF01214FF4E15000F004F8FFF7CEFE6D
:1019500010BD000030B589B005460C460121C80213
:10196000FFF71EF901210420FFF71AF94FF4106068
:10197000ADF8200018208DF8230003208DF82200F8
:1019800008A91E48FEF79EFC681E80B2ADF818003C
:10199000601E80B2ADF814000020ADF81A00ADF85A
:1019A000160005A91648FFF733FD6020ADF80400C6
:1019B0000120ADF806000020ADF80A00ADF80C00DB
:1019C00001A90F48FFF754FC01A90D48FFF7A6FC39
:1019D00001210B48FFF7A2FB08210948FFF794FCFF
:1019E00008210748FFF7D8FC01210548FFF778FBDD
:1019F00001210348FFF786FB09B030BD0008014014
:101A0000002C01403EB505460C4601210220FFF79F
:101A1000B7F8681E80B2ADF80400601E80B2ADF861
:101A200000000020ADF80600ADF8020069460E483F
:101A3000FFF7EEFC1D208DF8080003208DF809004B
:101A400000208DF80A0001208DF80B0002A8FEF797
:101A500009FF012211460448FFF701FC0121024859
:101A6000FFF750FB3EBD0000000400401FB50446D8
:101A7000012144F20400FFF793F84FF40070ADF831
:101A80000C0003208DF80E0018208DF80F0003A91C
:101A90001B48FEF717FC4FF48060ADF80C000420E3
:101AA0008DF80F0003A91648FEF70CFC25208DF8D1
:101AB0000C0003208DF80D008DF80E0001208DF82C
:101AC0000F0003A8FEF7CEFE00940020ADF804003E
:101AD000ADF80600ADF80800ADF80C000C20ADF82C
:101AE0000A0069460748FFF77BFD012240F22551B5
:101AF0000448FFF750FD01210248FFF716FD1FBD06
:101B0000000801400038014010B56FF00400FFF7F5
:101B10005BF90A4800680A49B0FBF1F0094908700E
:101B20000846007800EB4001C1EBC0104FF6FF7192
:101B300001EAC0000449088010BD00000000002038
:101B400000127A002C0000202E0000200146114ACD
:101B500012884A434FF0E0235A6100229A611A46E4
:101B6000126942F001021A6100BF4FF0E0221069D1
:101B700000F001021AB100F48032002AF5D04FF0D3
:101B8000E022126922F001024FF0E0231A610022E4
:101B90009A6170472E0000200146114A12784A438C
:101BA0004FF0E0235A6100229A611A46126942F00E
:101BB00001021A6100BF4FF0E022106900F001023B
:101BC0001AB100F48032002AF5D04FF0E0221269F9
:101BD00022F001024FF0E0231A6100229A6170475F
:101BE0002C00002010B5022000F038F809490988BF
:101BF000084400B207490880042000F02FF8064985
:101C00000988084400B2044908800520FFF79EFFB8
:101C100010BD000014000020160000204FF4A0604A
:101C2000FEF758FE4FF4E130FFF720FFFFF76CFF9F
:101C3000FFF74AFEFFF7F2FD482141F28830FFF737
:101C4000E1FEFFF723FEFFF779FEFEF723FDFEF727
:101C500063FE01E0FFF7C6FFFCE700000146022932
:101C600004D003290BD0042917D10FE04FF0804294
:101C7000928C10B200224FF080439A840FE0094A00
:101C8000128810B20022074B1A8008E0064A128818
:101C900010B20022044B1A8001E0002000BF00BFF8
:101CA000704700002404004024080040CC1C0008B9
:101CB0000000002040000000CE1600080C1D0008A7
:101CC0004000002080080000DE16000800A24A0440
:101CD00000000000000000000102030406070809DC
:101CE00000000000000000000102030401020304E0
:101CF00006070809020406080000000000000000B2
:0C1D0000000000000000000000000000D7
:0400000508000131BD
:00000001FF
