:020000040800F2
:1000000060090020450100085F130008E50B0008A7
:100010005B130008F70800088F21000800000000AB
:10002000000000000000000000000000D9170008D8
:10003000FB0800080000000079160008ED18000811
:100040005F0100085F0100085F0100085F01000810
:100050005F0100085F0100085F0100085F01000800
:100060005F0100085F0100085F0100085F010008F0
:100070005F0100085F0100085F0100085F010008E0
:100080005F0100085F0100085F0100085F010008D0
:100090005F0100085F0100085F0100081509000802
:1000A0005F0100085F0100085F0100085F010008B0
:1000B000911B0008A91B0008C51B00085F01000870
:1000C0005F0100085F0100085F0100085F01000890
:1000D0005F010008CD1F00085F0100085F010008F4
:1000E0005F0100085F0100085F0100085F01000870
:1000F0005F0100085F0100085F0100085F01000860
:100100005F0100085F0100085F0100085F0100084F
:100110005F0100085F0100085F0100085F0100083F
:100120005F0100085F0100085F0100085F0100082F
:10013000DFF80CD000F0B6FB00480047FD2C0008AB
:10014000600900200648804706480047FEE7FEE7B2
:10015000FEE7FEE7FEE7FEE7FEE7FEE7FEE7FEE777
:10016000F118000831010008F0B480EA0102D40F50
:100170004200B2EB410F02D20246084611464A0045
:1001800042D0C30DDDB2C1F3C752AD1A202D35DA0E
:10019000C1F3160141F4000204B15242C5F1200638
:1001A00002FA06F12A411044B3EBD05F23D0C4B168
:1001B000012DA0EBC35009DCF0BC4FF0004202EA75
:1001C000C352DBB200F5000000F0E0BA400000F1DD
:1001D000807000EBC350A0F1807040EAD1704900FC
:1001E00009E0490841EAC071A0EBC35000F50000E6
:1001F000400800EBC350F0BC00F0BFBA61420122DE
:1002000002EB4101001BF6E7F0BC704781F00041B2
:10021000AAE780F00040A7E780EA010210B502F0EB
:100220000043400022D04A001FD0010E01EB1261B2
:10023000C0F35600C2F3560240F4000042F400023C
:10024000A0FB022000047F39140400D0401C50EAB7
:10025000124001D44000491EC2B20C0604EBD0107B
:10026000401C4008802A02D003E0002010BD20F08E
:100270000100002900DA0020184310BD30B480EAE4
:10028000010202F0004530F0004221F0004013D09E
:1002900090B1C30DD40DC2F31601C0F31600E41AD9
:1002A00041F4000140F400027D34914201D3641C0A
:1002B00000E04900002C02DA30BC002070474FF407
:1002C00000000023914201D3891A034340084FEAFA
:1002D0004101F7D151B1914202D14FF0004105E007
:1002E00002D24FF0010101E06FF0010103EBC450B5
:1002F000284430BC00F041BA2DE9FE4F804681EA27
:100300000300C00F0C46009021F0004123F000458F
:10031000B8EB0200A94105D24046214690461C4652
:100320000B46024623F00040104347D0270DC7F389
:100330000A00C3F30A510290401A019040286BDA78
:10034000C3F3130040F4801B0098924620B10023B1
:10035000D2EB030A63EB0B0B01985946C0F1400244
:10036000504600F0D9F906460D4650465946019AC6
:1003700000F0F1F910EB08006141002487EA115206
:1003800084EAE7731A4340D0009A62B3019A012AC3
:100390004FEA075215DC001B61EB02014FF00042EF
:1003A00002EA0752CDE90042001C41F580113246B5
:1003B0002B4600F028FA03B0BDE8F08F40462146F6
:1003C000F9E7001B61EB0201001C41F580130018E6
:1003D0005B412018A2F5001747EB030140EAD570F6
:1003E000B6196D4111E06D084FEA360645EAC07551
:1003F0004FEA0752001B61EB0201001C41F580111E
:1004000049084FEA30000019514132462B4603B0EB
:10041000BDE8F04F00F0E8B9009801224000002349
:10042000D0EB020263EBE073009821464FEAE074E0
:10043000B8EB000061EB0401E9E783F000435BE700
:1004400081F0004158E72DE9FE4F81EA030404F0F2
:10045000004421F0004100944FF0000B23F00043D2
:1004600050EA01045ED052EA03045BD0C3F30A549D
:10047000C1F30A552C44A4F2F3340194A0FB0254B6
:10048000C1F3130141F48011C3F3130343F4801348
:1004900001FB024400FB034E840A970A44EA81549C
:1004A00047EA8357A4FB076802958D0A05FB078579
:1004B0004FEA932C04FB0C542705029D4FEA065883
:1004C00047EA1637B5EB08056EEB070C870E920E60
:1004D00047EA811742EA8312A7FB0201B6EB0B0140
:1004E00064EB00042B0D43EA0C335E1844EB1C5004
:1004F000DA465146E7FB0201C5F313044FEA0B331A
:1005000043EA14534FEA0432019C43EA0603A4F180
:100510000C040294009CCDE900B400F074F903B01F
:10052000BDE8F08F00200146F9E72DE9F04D81EAA2
:10053000030404F0004B21F0004514464FF0000A7C
:1005400023F0004150EA050220D054EA01021DD0F8
:10055000C5F30A570246C5F31303C1F31300C1F3F1
:100560000A5640F4801543F48013A7EB0608101BCD
:10057000D64608F2FD3873EB050002D308F10108F6
:1005800001E092185B41B8F1000F03DA0020014648
:10059000BDE8F08D00204FF48011064684460EE041
:1005A000171B73EB050705D3121B63EB050306430B
:1005B0004CEA010C49084FEA300092185B4150EABE
:1005C0000107EDD152EA030012D082EA040083EA67
:1005D0000501084305D0101BAB4106D201220023C0
:1005E00006E000224FF0004302E06FF001025310DA
:1005F0001AEB06004CEB085110EB0A0041EB0B0123
:10060000BDE8F04D00F0F0B8C10F80EAE07008449A
:10061000CA079623002100F0B9B89623002211469C
:1006200000F0B4B80EB5C10F80EAE0700844CA0704
:10063000002140F233438DE80E000A460B4600F0DD
:10064000E2F803B000BD00F0004220F00040C10D10
:10065000C0F3160040F400007F2901DA0020704743
:10066000962903DCC1F19601C84001E09639884023
:10067000002AF4D04042704770B5C1F30A5201F02D
:1006800000450024C1F3130140F2FF3341F480110F
:100690009A4201DA002070BD40F233439A42A2F23E
:1006A000334203DC524200F046F800E090402C4315
:1006B000F1D0404270BD000030B5041E71F100045D
:1006C00004DB4FF00044404264EB0101141E73F15F
:1006D000000405DB1C464FF00043524263EB040369
:1006E0008B4208BF824230BD30B5041E71F1000458
:1006F00004DB4FF00044404264EB0101141E73F12F
:10070000000405DB1C464FF00043524263EB040338
:10071000994208BF904230BD202A04DB203A00FAFB
:1007200002F1002070479140C2F1200320FA03F348
:10073000194390407047202A04DB203A21FA02F046
:100740000021704721FA02F3D040C2F1200291400B
:10075000084319467047202A06DBCB17203A41FA96
:1007600002F043EAE07306E041FA02F3D040C2F13E
:10077000200291400843194670470029A8BF7047DE
:10078000401C490008BF20F00100704710B4B0FAC7
:1007900080FC00FA0CF050EA010404BF10BC704762
:1007A00049B1CCF1200421FA04F411FA0CF118BF7C
:1007B000012121430843A3EB0C01CB1D4FEA00614B
:1007C0004FEA102042BF002010BC704700EBC3501E
:1007D00010440029A4BF10BC7047401C490008BF4A
:1007E00020F0010010BC704710B5141E73F1000416
:1007F00008DA401C41F1000192185B411A4301D113
:1008000020F0010010BD2DE9F04D92469B4611B13C
:10081000B1FA81F202E0B0FA80F220329046FFF79E
:100820007BFF04460F4640EA0A0041EA0B015346AB
:100830005A46084313D0114653EA010019D0C8F1B3
:1008400040025046FFF777FF05460E465046594690
:100850004246FFF761FF084305D0012004E020462F
:100860003946BDE8F08D0020054346EAE0762C438A
:1008700037430A986305E40AA0EB08000022FD0A4A
:1008800044EA47540A3002D500200146E9E7010551
:1008900010196941DDE9084500196941BDE8F04DCD
:1008A000A2E70000064C074D06E0E06840F00103B7
:1008B00094E8070098471034AC42F6D3FFF73CFCAD
:1008C000A0300008C030000870B521F00043034399
:1008D0000CD0C1F30A550024D5EB040564EB0403E6
:1008E000D617AD1AB34102DB0020014670BD2018B7
:1008F00041EB025170BD00BFFEE7704710B50448E0
:1009000001F03CFCC4B22146014801F03CFC10BDA2
:100910000038014010B5202000F00EF8012801D168
:1009200002F0D2F8202000F001F810BD0149086063
:100930007047000014040140014600200022074BCC
:100940001B6803EA0102054B14331B680B4013B10B
:100950000AB1012000E000207047000000040140BF
:10096000002123498279002A3AD00A461268036896
:100970009A430B461A600A1D126803689A430B1DBE
:100980001A60027911440A6803681A430A60184A17
:100990000832126803689A43154B08331A601A1D0F
:1009A000126803689A43124B0C331A604279102A7A
:1009B0000ED11A1F126803681A430D4B08331A60D0
:1009C0001A1D126803681A43094B0C331A600DE0B4
:1009D0000749427911440A6803681A430A6005E02E
:1009E000027911440A6803689A430A60704700005C
:1009F0000004014030B500228B071C0F0F2303FABF
:100A000004F20B4B8C1053F824309343084C8D1098
:100A100044F8253023468C1053F824308C07240FDB
:100A200000FA04F42343024C8D1044F8253030BD05
:100A3000080001402DE9F041024600250026002073
:100A400000230024002791F803C00CF00F0591F853
:100A500003C00CF0100CBCF1000F03D091F802C0E1
:100A60004CEA050591F800C0BCF1000F31D01468C4
:100A700000202BE04FF0010C0CFA00F3B1F800C09D
:100A80000CEA03069E4220D183004FF00F0C0CFAB3
:100A900003F7BC4305FA03FC4CEA040491F803C0D5
:100AA000BCF1280F06D14FF0010C0CFA00FCC2F883
:100AB00014C00AE091F803C0BCF1480F05D14FF013
:100AC000010C0CFA00FCC2F810C0401C0828D1D35D
:100AD0001460B1F800C0BCF1FF0F34DD5468002091
:100AE0002EE000F1080C4FF0010808FA0CF3B1F801
:100AF00000C00CEA03069E4221D183004FF00F0C88
:100B00000CFA03F7BC4305FA03FC4CEA040491F821
:100B100003C0BCF1280F05D100F1080C08FA0CF84D
:100B2000C2F8148091F803C0BCF1480F07D100F15E
:100B3000080C4FF0010808FA0CF8C2F81080401CAD
:100B40000828CED35460BDE8F0810000F0B50A4615
:100B5000002300240021002500F00046B6F1004FDC
:100B600002D11D4EF16901E01B4E7168C0F30345CF
:100B700083B200F44016B6F5401F08D121F0706131
:100B8000154E766826F07066134F7E6012E000F412
:100B90008016B6F5801F06D1032606FA05F4A14398
:100BA00041F0706106E0460D360103FA06F6B143E6
:100BB00041F0706122B1460D360103FA06F6314369
:100BC00000F00046B6F1004F02D1034EF16101E0A2
:100BD000014E7160F0BD00000000014041617047AE
:100BE0000161704700BFFEE710B5002009490860A9
:100BF00000F0E0FD00200849C1F8A40100F05AFA15
:100C000001200449086000F055FA00200249C1F8AB
:100C1000A00110BDA08121420080214210B500201A
:100C20000949086000F0C6FD01200849C1F8A40187
:100C300000F040FA01200449086000F03BFA00206F
:100C40000249C1F8A00110BDA081214200802142CB
:100C500070B50546002400F09BFD002614E000203E
:100C60000E49086000F026FA01200D49C1F8A001E4
:100C70006006040E09487C38006808B1601CC4B2E4
:100C800000F018FA701CC6B2082EE8DB15B9FFF7A1
:100C9000C5FF01E0FFF7A8FF204670BDA0812142FB
:100CA0000080214270B5044600F084FD00200D490B
:100CB0000860002512E0E0090A49091D0860600685
:100CC000040E01200849C1F8A00100F0F3F900204A
:100CD0000449086000F0EEF9681CC5B2082DEADB93
:100CE00070BD0000A08121420080214210B500F0BB
:100CF00061FD0120084908600849C1F8A00100F021
:100D0000D9F900200449086000F0D4F90020034913
:100D1000C1F8A00110BD0000A48121420080214241
:100D200010B500F047FD0020074908600749C1F8E9
:100D3000A40100F0BFF90120034908600349C1F88C
:100D4000A40100F0B7F910BDA0812142008021422A
:100D500010B5002400F01CFD01200E49086000F0D1
:100D6000A9F901200C49C1F8A00100F0A3F907E09E
:100D7000601CC4B2FA2C03DDFFF7D2FF012010BDC6
:100D80000448803800680028F2D10249091F086031
:100D900000BFF4E7A4812142008021422DE9F04107
:100DA00005460C46894801682046FFF72FFA07469A
:100DB000874801683846FFF72FFA064685480168DC
:100DC0003046FFF7D1F9834908608348416883487A
:100DD0000068FFF71BFA06467F4881683046FFF738
:100DE00015FA7F4908607C48C06880F00040486080
:100DF0007948C06880F0004088607A480068C86020
:100E0000086873490968FFF707FA064672480168DF
:100E10003046FFF7A9F970490860714948686C4984
:100E20000968FFF7F9F906466B4841683046FFF755
:100E30009BF9694948606A49886865490968FFF70C
:100E4000EBF90646644881683046FFF78DF9624940
:100E500088606349C8685E490968FFF7DDF906469E
:100E60005D48C1683046FFF77FF95B49C860594863
:100E700001682846FFF7CAF95B4908605B480078BB
:100E8000FFF7CBFB0646544801683046FFF7C4F92C
:100E90005749086055480078FFF7BFFB06464E48A3
:100EA00081683046FFF7B8F9524908604F4800782A
:100EB000FFF7B3FB07464E4801683846FFF7ACF929
:100EC00006464D4801683046FFF74EF94B49086029
:100ED0000846016846480068FFF7D0F948490860AD
:100EE0004648016843480068FFF7C8F9454908606B
:100EF0003F480068444908603C480078FFF78DFB94
:100F00000646354841683046FFF786F93F49086094
:100F10003D4801683A480068FFF77EF906462E48CA
:100F200001683046FFF775F92B49086037480168BA
:100F300033480068FFF770F9064627484168304695
:100F4000FFF767F9244948602F4801682D48006879
:100F5000FFF762F90646204881683046FFF759F9E5
:100F60001D4988602948016826480068FFF754F940
:100F700006461948C1683046FFF74BF91649C86064
:100F8000194801681E480068FFF746F906461148EF
:100F900001683046FFF7E8F80E490860124801681A
:100FA00018480068FFF738F90646084801683046D7
:100FB000FFF7DAF805490860084601682046FFF7A0
:100FC00025F913490860BDE8F08100008400002085
:100FD0007C000020B8000020A80000207000002045
:100FE000CC00002074000020880000208000002039
:100FF0008C00002090000020780000209400002049
:10100000980000209C000020A0000020A4000020E8
:101010006C0000202DE9FC4104460D4616466B4647
:1010200006223B21682000F0E8F80746BFB99DF88A
:1010300001009DF8001040EA012000B220809DF8D8
:1010400003009DF8021040EA012000B228809DF8BC
:1010500005009DF8041040EA012000B230803846B7
:10106000BDE8FC812DE9FC4104460D4616466B4661
:1010700006224321682000F0C0F80746BFB99DF85A
:1010800001009DF8001040EA012000B220809DF888
:1010900003009DF8021040EA012000B228809DF86C
:1010A00005009DF8041040EA012000B23080384667
:1010B000BDE8FC8110B5022001F0FAFD10BD000072
:1010C00008B50121082000F0E9FA4FF48070ADF86E
:1010D000000003208DF8020014208DF803006946FB
:1010E0000B48FFF7A7FC4FF40070ADF80000032099
:1010F0008DF8020014208DF8030069460448FFF7BC
:1011000099FC0120034908600349C1F8A40108BD06
:10111000000C0140A08121420080214210B5FFF760
:10112000CFFF80226B21682000F0F1F8642001F0ED
:1011300099FD00226B21682000F0E9F8032000F0FF
:101140009FF8002000F093F8C82000F0C2F80122B8
:101150003821682000F0DBF800226A21682000F0C6
:10116000D6F800222321682000F0D1F89C223721F4
:10117000682000F0CCF87521682000F019F80B49C0
:1011800008700846007868280CD101226B2100F015
:10119000BEF800226C21682000F0B9F8C82000F0E9
:1011A00098F801E0012010BD0020FCE7C8000020F5
:1011B00070B504460D460026FFF798FD002141EA70
:1011C0004401C8B2FFF76EFDFFF7C2FD2846FFF7E6
:1011D00069FDFFF7BDFDFFF789FD012101EB44012A
:1011E000C8B2FFF75FFDFFF7B3FD0020FFF730FD4A
:1011F0000646FFF795FD304670BD2DE9F0410646E5
:101200000F4614461D46FFF771FD002141EA4601D5
:10121000C8B2FFF747FDFFF79BFD20B1FFF780FD48
:101220000120BDE8F0813846FFF73CFDFFF790FD57
:10123000FFF75CFD012101EB4601C8B2FFF732FD6B
:10124000FFF786FD0DE0012C04D10020FFF700FD23
:10125000287003E00120FFF7FBFC2870601EC4B279
:101260006D1C002CEFD1FFF75BFD0020D9E710B516
:101270000446E006020E1C21682000F048F810BD6C
:1012800010B50446032000EBC400C2B21B21682045
:1012900000F03DF810BD70B504460025BC2C01DB04
:1012A000012510E0622C01DB02250CE02A2C01DB79
:1012B000032508E0142C01DB042504E00A2C01DBE3
:1012C000052500E006252A461A21682000F01FF8AF
:1012D00070BD70B50446B4F57A7F01DD4FF47A74C1
:1012E000042C00DA04244FF47A7090FBF4F0401ED2
:1012F000C5B22A461921682000F009F8054626469D
:1013000004EBD671C1F34F00FFF7C5FF70BD70B598
:1013100004460D461646FFF7E9FC002141EA440168
:10132000C8B2FFF7BFFCFFF713FD18B1FFF7F8FCD9
:10133000012070BD2846FFF7B5FCFFF709FD3046D8
:10134000FFF7B0FCFFF704FD18B1FFF7E9FC01203F
:10135000EFE7FFF7E5FC0020EBE700BFFEE7704793
:1013600070B5002100230F22C47804B3154C246803
:1013700004F4E064C4F5E064210AC1F10403CA4046
:10138000447804FA03F184781440214309010E4C97
:101390000678A155047804F01F050124AC400578B7
:1013A0006D11AD0005F1E025C5F8004109E00478B4
:1013B00004F01F050124AC40044D0678761145F871
:1013C000264070BD0CED00E000E400E080E100E0AC
:1013D00002490143024A1160704700000000FA050B
:1013E0000CED00E070B500240CE0002506E00020C4
:1013F000074901EBC5010855681CC5B2802DF6DB15
:10140000601CC4B2082CF0DB00F0DAF870BD0000FC
:10141000DC00002008B50121084600F03FF9012159
:101420001C2000F03BF901216248FFF78FFB4FF4CD
:101430000040ADF8000014208DF8030003208DF863
:10144000020069465C48FFF7F5FA4FF400415A483C
:10145000FFF7C6FB4FF48040ADF8000069465648E0
:10146000FFF7E8FA4FF480415348FFF7B9FB4FF418
:101470000050ADF8000010208DF8030003208DF817
:10148000020069464C48FFF7D5FA4FF400514A482C
:10149000FFF7A6FB1020ADF800008DF80300032035
:1014A0008DF8020069464548FFF7C4FA1021434809
:1014B000FFF796FB4FF400513F48FFF78FFBC82022
:1014C00001F0D0FB4FF400513B48FFF789FB0021AE
:1014D000AE2000F09BF80021084600F097F80021AC
:1014E000102000F093F80021402000F08FF8002138
:1014F000812000F08BF80021CF2000F087F8002138
:10150000A12000F083F80021C82000F07FF800211E
:10151000A62000F07BF80021A82000F077F8002139
:101520003F2000F073F80021D32000F06FF8002175
:10153000084600F06BF80021D52000F067F8002184
:10154000802000F063F80021D92000F05FF800212E
:10155000F12000F05BF80021DA2000F057F80021BC
:10156000122000F053F80021DB2000F04FF800219A
:10157000402000F04BF80021202000F047F8002127
:10158000022000F043F800218D2000F03FF80021F8
:10159000142000F03BF80021A42000F037F80021CF
:1015A000A62000F033F8FFF71DFF0021AF2000F068
:1015B0002DF808BD0002300000100140000C014071
:1015C00070B500241CE004F1B001C8B2002100F0A5
:1015D0001DF80021084600F019F80021102000F045
:1015E00015F8002508E0084901EBC501085D012157
:1015F00000F00CF8681CC5B2802DF4DB601CC4B28E
:10160000082CE0DB70BD0000DC00002070B5044653
:101610000E4626B110211648FFF7E2FA03E010212A
:101620001348FFF7DBFA00251BE04FF40041114897
:10163000FFF7D4FA04F0800028B14FF480410D4840
:10164000FFF7CEFA04E04FF480410A48FFF7C6FAEC
:101650004FF400410748FFF7C3FA6006040E681C08
:10166000C5B2082DE1DB10210148FFF7B9FA70BDC2
:10167000000C0140001001407047000029B1064AEB
:10168000D2690243044BDA6104E0034AD26982431F
:10169000014BDA61704700000010024029B1064A90
:1016A00092690243044B9A6104E0034A92698243BF
:1016B000014B9A61704700000010024030B50021D4
:1016C0000022002400232D4D6D6805F00C0121B18E
:1016D000042905D0082923D105E0294D056022E021
:1016E000274D05601FE0254D6D6805F47012234DF0
:1016F0006D6805F48034022505EB92421CB9214D3A
:10170000554305600BE01D4D6D6805F400351DB1B6
:101710001C4D5543056002E0194D5543056002E03C
:10172000174D056000BF00BF144D6D6805F0F00156
:101730000909154D6B5C0568DD4045600F4D6D680E
:1017400005F4E061090A104D6B5C4568DD40856079
:101750000A4D6D6805F46051C90A0B4D6B5C456814
:10176000DD40C560054D6D6805F44041890B074DAE
:101770006B5CC568B5FBF3F5056130BD0010024038
:1017800000127A0000093D0014000020240000200F
:1017900008B54FF40070ADF8000003208DF802008A
:1017A00048208DF8030069460148FFF743F908BD5A
:1017B000000C014008B54FF40070ADF800000320A4
:1017C0008DF8020014208DF8030069460148FFF7E8
:1017D00031F908BD000C0140704710B500F002F867
:1017E00010BD00000CB50020019000903348006847
:1017F00040F480303149086000BF3048006800F490
:10180000003000900198401C0190009818B9019890
:10181000B0F5A06FF1D12948006800F4003010B194
:101820000120009001E0002000900098012843D1A1
:101830002348006840F0100021490860084600680D
:1018400020F0030008600846006840F002000860CD
:101850001A48406819494860084640684860084688
:10186000406840F4806048600846406820F47C107E
:1018700048600846406840F4E81048600846006840
:1018800040F08070086000BF0C48006800F00070F5
:101890000028F9D00948406820F003000749486053
:1018A0000846406840F00200486000BF03484068B6
:1018B00000F00C000828F9D10CBD00000010024017
:1018C00000200240042808D14FF0E021096941F0CE
:1018D00004014FF0E022116107E04FF0E0210969B7
:1018E00021F004014FF0E0221161704770470000C1
:1018F00010B51348006840F001001149086008461F
:101900004068104908400E494860084600680E4982
:1019100008400B4908600846006820F480200860F1
:101920000846406820F4FE0048604FF41F008860BD
:10193000FFF753FF4FF000600449086010BD00003E
:10194000001002400000FFF8FFFFF6FE08ED00E087
:10195000F0B50C46154600220021068C4FF6FE77A6
:101960003E400684028B018C4FF60C7632407E1C82
:1019700006EA03162E433243104EB0420ED0104EEC
:10198000B0420BD0B0F1804F08D00E4EB04205D01F
:101990000D4EB04202D00D4EB04206D14FF6FD764C
:1019A000314044F00106314305E04FF6F576314011
:1019B00044F00106314302830184F0BD002C014054
:1019C000003401400004004000080040000C0040CA
:1019D000F0B50C461546002200210026078C4FF674
:1019E000EF7C07EA0C070784028B018C4FF6FF7728
:1019F00007EA041640F6FF473A404FF6FF7707EA3A
:101A000003373A434FF6FF7707EA05273A43114F6A
:101A1000B8420ED0104FB8420BD0B0F1804F08D072
:101A20000E4FB84205D00E4FB84202D00D4FB8420B
:101A300006D14FF6DF77394046F01007394305E00D
:101A40004FF65F77394044F0100739430283018431
:101A5000F0BD0000002C01400034014000040040B3
:101A600000080040000C0040F0B50C46154600226E
:101A700000210026078C4FF6FF6C07EA0C0707844D
:101A8000828B018C4FF6FF7707EA04264FF60C771E
:101A90003A404FF6FF7707EA03172F433A43114FB7
:101AA000B8420ED0104FB8420BD0B0F1804F08D0E2
:101AB0000E4FB84205D00E4FB84202D00D4FB8427B
:101AC00006D14FF6FF57394046F48077394305E099
:101AD0004FF2FF57394044F48077394382830184C1
:101AE000F0BD0000002C0140003401400004004023
:101AF00000080040000C0040F0B50C4615460022DE
:101B000000210026078C4EF6FF7C07EA0C070784AD
:101B1000828B018C4FF6FF7707EA043640F6FF47C9
:101B20003A404FF6FF7707EA05273A434FF6FF772B
:101B300007EA03373A43114FB8420ED0104FB8426C
:101B40000BD0B0F1804F08D00E4FB84205D00E4FE9
:101B5000B84202D00D4FB84206D14DF6FF7739405A
:101B600046F48057394305E047F6FF57394044F4BF
:101B70008057394382830184F0BD0000002C01406E
:101B8000003401400004004000080040000C004008
:101B90004FF08040008A4FF08040008A20F0010022
:101BA0004FF080410882704710B50121044800F0D1
:101BB00063F818B10121024800F01FF810BD0000C1
:101BC00000040040044800880348008820F0010019
:101BD00001490880704700001008004021B10288C8
:101BE00042F08002028004E002884FF67F731A40C0
:101BF00002807047CA4302827047CA43028270471C
:101C000021B1028842F00102028004E002884FF60E
:101C1000FE731A400280704731B1B0F8442042F49C
:101C20000042A0F8442005E0B0F84420C2F30E02C0
:101C3000A0F844207047F0B50C4615461E4600211A
:101C4000002200230189028B038C4FF6F87739407C
:101C500021434FF6FC473A4040F201173A434FF612
:101C6000DD773B404FF6FF7707EA06172F433B43EC
:101C7000018102830384F0BD30B5024600200023B9
:101C80000024158A05EA0103958905EA010413B1C8
:101C90000CB1012000E0002030BD000070B5054609
:101CA0000C46244885420ED0234885420BD0B5F11E
:101CB000804F08D02148854205D02148854202D076
:101CC0002048854200D100E000BF208850B9238918
:101CD000A28861882846FFF73BFEE188284600F08D
:101CE000EDF825E0208804280AD12389A28861889C
:101CF0002846FFF76DFEE188284600F0E8F817E077
:101D0000208808280AD12389A28861882846FFF7FD
:101D1000ABFEE188284600F0E7F809E02389A288B5
:101D200061882846FFF7E8FEE188284600F0E5F8DC
:101D300070BD0000002C0140003401400004004050
:101D400000080040000C004000210180418001217A
:101D500081800021C180018170471AB183890B43C2
:101D6000838102E083898B438381704770B50024AF
:101D700000220023058C4FF6FE7635400584028C48
:101D80008388048B4FF68F752C40B51E2C400D8830
:101D90002C43751E2A400D892A434D882A43144D31
:101DA000A8420BD0134DA84208D0134DA84205D02D
:101DB000124DA84202D0124DA84213D14FF6F7752A
:101DC0002A404D892A434FF6FB752A408D882A43C5
:101DD0004FF6FF652B404FF6FF552B408D892B4367
:101DE000CD892B4383800483CD888586028470BD92
:101DF000002C0140003401400040014000440140FB
:101E0000004801400A460021018B4FF6F773194044
:101E1000114301837047000070B5002200230024A5
:101E2000058C4EF6FF7635400584038C8488828BC2
:101E300048F6FF752A404FF6FF452A400D884FF6B9
:101E4000FF7606EA05252A434DF6FF752B400D89DE
:101E500006EA05352B434D8806EA05352B430B4D25
:101E6000A84202D00A4DA84208D14BF6FF752C407B
:101E70008D894FF6FF7606EA85152C438480828390
:101E8000CD88A0F84050038470BD0000002C0140B4
:101E9000003401400A460021818B4FF2FF73194044
:101EA0004FF6FF7303EA022319438183704781864B
:101EB0007047A0F84010704781847047028B4FF63E
:101EC000F3731A400283028B0A4302837047028B2A
:101ED0004FF2FF331A400283028B4FF6FF7303EA7F
:101EE00001231A4302837047828B4FF6F3731A4023
:101EF0008283828B0A4382837047828B4FF2FF3347
:101F00001A408283828B4FF6FF7303EA01231A4340
:101F100082837047002202881D4B98420ED01D4BD1
:101F200098420BD0B0F1804F08D01B4B984205D09F
:101F30001A4B984202D01A4B984204D14FF68F7335
:101F40001A404B881A43174B984207D0164B9842B9
:101F500004D04FF6FF431A40CB881A4302808B8887
:101F600083850B8803850A4B98420BD0094B984216
:101F700008D00E4B984205D00D4B984202D00D4B25
:101F8000984201D10B7A03860123838270470000B7
:101F9000002C0140003401400004004000080040D3
:101FA000000C0040001000400014004000400140C0
:101FB00000440140004801404FF6FF71818000213C
:101FC0000180C180418001727047000010B540F26D
:101FD0002551054800F016F828B1FEF78FFC40F2B5
:101FE0002550FEF7A3FC10BD0038014021B18289C5
:101FF00042F40052828104E082894DF6FF731A4058
:102000008281704770B5024600240023002500201D
:1020100040F66A16B14200D100BFC1F3421501F08B
:102020001F03012606FA03F3012D02D196893340DE
:1020300006E0022D02D1168A334001E0968A334031
:102040000C12012606FA04F41688344013B10CB1C0
:10205000012000E0002070BDF0B5034600240026FA
:102060000025002040F66A17B94200D100BF18468B
:10207000C1F3421401F01F06012707FA06F5012CEF
:1020800001D10C3004E0022C01D1103000E01430FA
:102090001AB107682F43076002E00768AF43076083
:1020A000F0BD00002DE9F04786B005460E4600243D
:1020B000A24600BFA1460027B08900B100BF2F464D
:1020C0002C8A4CF6FF700440F08804432C82AC89C3
:1020D0004EF6F3100440B0883189084371890843F3
:1020E0000443AC81AC8A4FF6FF400440B0890443FE
:1020F000AC8201A8FFF7E2FA1F48874202D1DDF85F
:1021000010A001E0DDF80CA0A88900F4004040B167
:102110000AEBCA0000EB0A1031684900B0FBF1F885
:1021200007E00AEBCA0000EB0A1031688900B0FB37
:10213000F1F86420B8FBF0F004012009642101FBF0
:102140001089A88900F4004040B1322000EBC9009A
:10215000B0FBF1F000F00700044308E0322000EB90
:1021600009106421B0FBF1F000F00F0004432C8152
:1021700006B0BDE8F08700000038014001468888BD
:10218000C0F308007047C1F308028280704700BFA7
:10219000FEE7490050EAC12018BF04204A0D18BFCD
:1021A00040F0010040F2FF72B2EB515F08BF40F017
:1021B0000200012808BF052070472DE9F0414F1E9D
:1021C00000EBC7010446D1E9000115461E4637F071
:1021D00006020DD02A463346FEF735F97F1E04EB82
:1021E000C703D3E90023FEF787F837F00602F1D1E1
:1021F000022F25D0042F13D0062F18BFBDE8F08181
:102200002A463346FEF71FF9D4E90A23FEF774F88D
:102210002A463346FEF717F9D4E90823FEF76CF88F
:102220002A463346FEF70FF9D4E90623FEF764F891
:102230002A463346FEF707F9D4E90423FEF75CF893
:102240002A463346FEF7FFF8D4E90223FEF754F896
:102250002A463346FEF7F7F8D4E90023BDE8F041FB
:10226000FEF74AB80122FEF72FBBFEF745B8000083
:10227000024A00201107FEF727BB000001FDFFFF07
:1022800002E008C8121F08C1002AFAD1704770473F
:10229000002001E001C1121F002AFBD1704700009D
:1022A0002DE9F0410024002500261248016812485B
:1022B0000068FDF7ABFF0446104801682046FDF7B3
:1022C000ABFF0746FEF7BFF905B20D48B0F90000B5
:1022D000FEF79AF980460B4801684046FDF79CFFDF
:1022E0000746FEF7B0F906B2A81900B20649088001
:1022F000BDE8F081B8000020300000203800002048
:10230000360000203C000020340000202DE9F84F6A
:1023100004460D4621F0004000917349814211DCD2
:102320007249884201DC06D12CB120462946BDE81D
:10233000F84FFFF797BF6E48002DCCBF6D496E492F
:10234000BDE8F88F6D49814211DD6D498142D8BFEA
:102350004FF0FF366DDD20462946FFF71AFF0428AF
:1023600008BFFFF785FF20462946BDE8F88F65497D
:10237000654F25F00045814233DD6449814219DD16
:10238000002632464FF0804320462946FDF7B4FF31
:1023900080468A46012220462946FEF795FA002209
:1023A0003B46FEF74AF842465346FEF7BEF804465F
:1023B0000D463EE001260022BA463B46204629460D
:1023C000FDF79AFF80460F460022534620462946D5
:1023D000FEF733F842463B46FEF7A7F804460D46A3
:1023E00027E04B4981421BDDDFF828A102260022AD
:1023F000534620462946FEF726F800223B46FDF7C5
:102400007BFF80460F460022534620462946FEF7B2
:1024100014F842463B46FEF788F804460D4608E0AD
:10242000032622462B4600203B49FEF77EF8044651
:102430000D4622462B4610461946FEF704F88B46F9
:10244000824602460B46FDF7FEFF0746024633482A
:1024500088460B4606217844FFF7AFFE52465B469E
:10246000FDF7F1FF82462E488B463A46434605214A
:102470007844FFF7A2FE3A464346FDF7E4FF0246E2
:102480000B46002E504659460CDAFDF735FF224622
:102490002B46FDF7D8FF01B022462B46BDE8F04F92
:1024A000FDF7CEBFFDF728FF22462B46FDF7CBFFF9
:1024B0001C4A7A4402EBC603D3E90023FDF7BDFFB3
:1024C00022462B46FDF7B9FF174A7A4402EBC603B2
:1024D000D3E90023FDF7B4FF009A002AB8BF81F0CA
:1024E0000041BDE8F88F0000000010440000F07FBC
:1024F000182D4454FB21F93FFB21F9BF0000DC3FBC
:102500000000203E0000F33F0000F03F0000E63FE7
:10251000008003400000F83F0000F0BF0E0C0000F8
:10252000CC0B00006A0B0000320B00002DE9F04DCF
:102530009446CCF1000423F000464CEA0404524FC8
:1025400046EAD4749A46884621F00042BC4206D836
:10255000454240EA050442EAD474BC4204D9BDE8CD
:10256000F04D6246FFF781BEAAF14055A5F17F65A7
:1025700055EA0C040BD0022404EAAA74434DDFF898
:1025800010E144EAD87452EA000B04D00CE0BDE834
:10259000F04DFFF7BBBE002C14BF012CBDE8F08D41
:1025A000022C30D0032C32D056EA0C0B0AD0BE429B
:1025B00020D1BA4209D126F0804622F0804233462B
:1025C000114617E000291ADB25E0DFF8C8B0FB440C
:1025D000002C04BFDBE90001BDE8F08D012C02BF37
:1025E000DBE9000181F00041BDE8F08D022C0AD04A
:1025F000032C0CD0BA4212D1B8F1000F0BDA2348E9
:102600002549BDE8F08D28462449BDE8F08D2846CF
:102610007146BDE8F08D1D482149BDE8F08D921B43
:1026200012153C2AC4BF19481D490EDCBAF1000F2F
:10263000BEBF12F13C0F0020014606DB6246FDF7EB
:1026400074FF21F00041FFF761FE002C08BFBDE8D8
:10265000F08D012C04BF81F00041BDE8F08D114ADE
:10266000114B022C07D0FDF7E8FE2A46BDE8F04DDD
:102670000A4BFDF7E2BEFDF7E0FE2A46BDE8F04D4D
:10268000064BFDF7DDBE00000000F07F182D44541E
:10269000FB2109C0C60A0000FB21F9BFFB2109404C
:1026A000FB21F93F075C143326A6A13C0EB501219E
:1026B0000846FEF7E3FF01210420FEF7EFFF0320A9
:1026C000ADF8080004208DF80B0002A94048FEF781
:1026D000B1F96846FFF770FC0020ADF800004FF636
:1026E000FF70ADF804000020ADF80600ADF8020060
:1026F00069464FF08040FFF70DFC00231A46032186
:102700004FF08040FFF797FA6846FFF71DFB0A205D
:10271000ADF8080069464007FFF7C0FA01218807B5
:10272000FFF768FA012211469007FFF716FB002118
:102730004FF08040FFF7C0FB01218807FFF760FAE8
:1027400001210420FEF79AFF01210820FEF7A6FFD1
:10275000C020ADF8080004208DF80B0002A91D4828
:10276000FEF768F96846FFF727FC0020ADF8000087
:102770004FF6FF70ADF804000020ADF80600ADF88C
:10278000020069461448FFF7C5FB00231A460321DF
:102790001148FFF750FA6846FFF7D6FA0A20ADF85D
:1027A000080069460C48FFF779FA01210A48FFF74B
:1027B00021FA012211460848FFF7CFFA0021064806
:1027C000FFF77AFB01210448FFF71AFA0EBD00005B
:1027D00000080140000C0140000800401CB5012128
:1027E0000820FEF75BFF01210846FEF757FF202077
:1027F000ADF8040048208DF8070001A91248FEF743
:1028000019F92020009000208DF804000C208DF88C
:10281000050001208DF806006846FEF7A1F80521A5
:102820000120FEF7E7F817208DF8040002208DF84C
:10283000050003208DF8060001208DF8070001A88F
:10284000FEF78EFD1CBD0000000C014008B5012103
:102850000420FEF723FF01210846FEF71FFF012198
:102860000748FEF773F94FF40040ADF80000482028
:102870008DF8030069460348FEF7DCF808BD000048
:10288000000230000008014008B501210420FEF7D5
:1028900005FF01211020FEF701FF4FF40050ADF8B5
:1028A000000010208DF8030003208DF80200694617
:1028B0000548FEF7BFF84FF48050ADF800006946B8
:1028C0000248FEF7B7F808BD0010014000080140BB
:1028D00008B501210820FEF7E1FE4FF47040ADF885
:1028E000000010208DF8030003208DF802006946D7
:1028F0000148FEF79FF808BD000C014010B5FFF736
:10290000E7FF01214FF4E15000F004F8FFF7CEFE9D
:1029100010BD000030B589B005460C460121C80243
:10292000FEF7BCFE01210420FEF7B8FE4FF4106054
:10293000ADF8200018208DF8230003208DF8220028
:1029400008A91E48FEF776F8681E80B2ADF8180098
:10295000601E80B2ADF814000020ADF81A00ADF88A
:10296000160005A91648FFF7D5FA6020ADF8040057
:102970000120ADF806000020ADF80A00ADF80C000B
:1029800001A90F48FFF7F2F901A90D48FFF744FA32
:1029900001210B48FFF740F908210948FFF732FAF7
:1029A00008210748FFF776FA01210548FFF716F9D5
:1029B00001210348FFF724F909B030BD00080140A8
:1029C000002C01403EB505460C4601210220FEF7D1
:1029D00055FE681E80B2ADF80400601E80B2ADF8EE
:1029E00000000020ADF80600ADF8020069460E4870
:1029F000FFF790FA1D208DF8080003208DF80900DC
:102A000000208DF80A0001208DF80B0002A8FEF7C7
:102A1000A7FC012211460448FFF79FF90121024853
:102A2000FFF7EEF83EBD0000000400401FB504466D
:102A3000012144F20400FEF731FE4FF40070ADF8BE
:102A40000C0003208DF80E0018208DF80F0003A94C
:102A50001B48FDF7EFFF4FF48060ADF80C00042039
:102A60008DF80F0003A91648FDF7E4FF25208DF827
:102A70000C0003208DF80D008DF80E0001208DF85C
:102A80000F0003A8FEF76CFC00940020ADF80400D2
:102A9000ADF80600ADF80800ADF80C000C20ADF85C
:102AA0000A0069460748FFF7FDFA012240F2255166
:102AB0000448FFF7D1FA01210248FFF797FA1FBD3A
:102AC00000080140003801402DE9FC5F43480078D0
:102AD00008B9012000E0002040490870084600784D
:102AE000012854D13E4A3F493F48FEF7BBFA3F4ACE
:102AF0003F494048FEF78EFA3C48B0F90000FDF728
:102B000091FD06460F463B48B0F90000FDF78AFDEF
:102B1000804632463B46FFF709FD04460022364B0D
:102B2000FDF791FC8246354A354BFDF7FEFCCDE9B9
:102B30000001FDF7A1FD00B22D4908802948B0F938
:102B40000000304908802748B0F90000FDF76AFD11
:102B500006464FF066322C4BFDF7E7FC0446FDF7C6
:102B60008BFD00B21F4908800846B0F900004042C2
:102B7000FDF74AFD04461E48B0F90000FDF744FD8C
:102B800005462146FEF70AF90020BDE8FC9FFFF745
:102B900087FB00F06DF900F011FA1C4800881C4911
:102BA000098808441B490988084400B21A4908806A
:102BB0001648008816490988084416490988401AA9
:102BC00000B2164908800846B0F900101248B0F962
:102BD000000000F0B1F80020D7E7000060000020FE
:102BE000C0000020BE000020BC000020C600002065
:102BF000C4000020C2000020008066401F85EB5109
:102C0000B81E0940360000206666304034000020BF
:102C100048000020540000202C0000202E0000203E
:102C200010B56FF00400FEF74DFE0A4800680A492F
:102C3000B0FBF1F0094908700846007800EB40014C
:102C4000C1EBC0104FF6FF7101EAC00004490880D3
:102C500010BD00000000002000127A0028000020B3
:102C60002A0000200146114A12884A434FF0E0230F
:102C70005A6100229A611A46126942F001021A61F1
:102C800000BF4FF0E022106900F001021AB100F419
:102C90008032002AF5D04FF0E022126922F00102C2
:102CA0004FF0E0231A6100229A6170472A00002049
:102CB0000146114A12784A434FF0E0235A6100223C
:102CC0009A611A46126942F001021A6100BF4FF080
:102CD000E022106900F001021AB100F48032002AEB
:102CE000F5D04FF0E022126922F001024FF0E0230C
:102CF0001A6100229A617047280000204FF4A060FA
:102D0000FEF766FB4FF4E130FFF790FEFFF788FF18
:102D1000FFF7BAFDFFF762FD482141F28830FFF767
:102D200051FEFFF793FDFFF7E9FDFEF7F7F9FEF718
:102D300071FB00BFFEE700002DE9F04105460C469F
:102D40002846FDF76FFC064600222F4BFDF7CCFC12
:102D500002D24FF4B45509E02846FDF763FC06465D
:102D600000222A4BFDF7A8FC00D2294D2046FDF792
:102D700059FC06460022244BFDF7B6FC02D24FF464
:102D8000B45409E02046FDF74DFC064600221F4BD7
:102D9000FDF792FC00D21E4C002D0BDD01201D49D9
:102DA000086000201C49C1F8B401A9B21B48FFF714
:102DB00080F80BE000201749086001201649C1F88F
:102DC000B401684281B21548FFF773F8002C0CDD9E
:102DD000002010490831086001200F49C1F8BC01EA
:102DE000A1B20E48FFF763F80CE001200949083151
:102DF000086000200849C1F8BC01604281B2074860
:102E0000FFF755F8BDE8F0810080B6400080B6C0FD
:102E100080E9FFFFB081214200802142002C014067
:102E20000146022904D003290BD0042917D10FE051
:102E30004FF08042928C10B200224FF080439A846F
:102E40000FE0094A128810B20022074B1A8008E0EE
:102E5000064A128810B20022044B1A8001E00020BA
:102E600000BF00BF70470000240400402408004059
:102E70002DE9F05F0024454D002600270220FFF7D2
:102E8000CFFF404200B2424908800420FFF7C8FF4C
:102E900000B2404908803E4800880988084400B2D2
:102EA0003D4908803D49B1F900103B4AB2F9002084
:102EB000881AFDF7A9FB04463948B0F90000FDF770
:102EC000A3FB83462946FDF7A7F9814629464FF023
:102ED0007E50FDF79BF983462146FDF79DF982461A
:102EE0004946FDF741F98046FDF7ADFB00B22D499B
:102EF00008800846B0F90000294908802A48B0F93E
:102F00000000FDF781FB81462146FDF72DF9804643
:102F1000FDF799FB00B2244908800846B0F900008B
:102F200042F21071884202DD08461F4908801E489F
:102F3000B0F900001D49884203DA4DF6F0001A4945
:102F400008801848B0F90000FDF75EFB814618487C
:102F500001684846FDF760F98046FDF774FB06B24C
:102F60001148B0F90000FDF74FFB81461148016898
:102F70004846FDF751F98046FDF765FB07B2F019A9
:102F800000B20D490880BDE8F09F0000CDCC4C3F59
:102F900040000020420000204600002044000020A5
:102FA000640000206200002066000020F0D8FFFFCF
:102FB0004C00002050000020480000202DE9F04186
:102FC0000024002500BF0A48B0F90000FDF71CFBF3
:102FD0000746084801683846FDF71EF90646FDF722
:102FE00032FB05B2601900B203490880BDE8F081E8
:102FF000C00000205C000020540000200000000001
:103000004FBB610567ACDD3F182D4454FB21E93F00
:103010009BF681D20B73EF3F182D4454FB21F93FEF
:10302000E2652F227F2B7A3C075C143326A6813C75
:10303000BDCBF07A8807703C075C143326A6913C20
:10304000C4EB98999999C9BF711623FEC671BCBF8C
:103050006D9A74AFF2B0B3BF9AFDDE522DDEADBFF4
:103060002F6C6A2C44B4A2BF0D5555555555D53F0C
:10307000FF8300922449C23F6E204CC5CD45B73F27
:10308000513DD0A0660DB13FEB0D76244B7BA93F9F
:1030900011DA22E33AAD903F00000000000000008A
:1030A000C030000800000020CC0000008022000892
:1030B0008C310008CC000020940800009022000809
:1030C00000A24A0400000000000000000102030406
:1030D00006070809000000000102030401020304BE
:1030E00006070809020406080000000000000000AE
:1030F0000000803F00000000000034449A99D93F4E
:1031000000000000000000000000000000000CC3F0
:10311000333333BF00000000000000000000000057
:1031200000000000000000000AD7A33C00000000DF
:103130006F12833AA69B443B0000003F0AD7A33B93
:10314000010000000000000000000000000000007E
:10315000000000000000000000000000000000006F
:1031600000000000000000000000803F00000000A0
:10317000000000000000803F000000000000000090
:0C31800000000000000000000000000043
:0400000508000131BD
:00000001FF
