:020000040800F2
:100000003004002045010008650C0008330C00088E
:10001000610C0008E50800089312000800000000C9
:100020000000000000000000000000003D0E00087D
:10003000E908000800000000ED0C0008510F00085E
:100040005F0100085F0100085F0100085F01000810
:100050005F0100085F0100085F0100085F01000800
:100060005F0100085F010008950900085F010008B2
:100070005F0100085F0100085F0100085F010008E0
:100080005F0100085F0100085F0100085F010008D0
:100090005F0100085F0100085F0100085F010008C0
:1000A0005F0100085F0100085F0100085F010008B0
:1000B0005F010008B50F00085F0100085F0100083C
:1000C0005F0100085F0100085F0100085F01000890
:1000D0005F010008D11000085F0100085F010008FF
:1000E0005F0100085F0100085F0100085F01000870
:1000F0005F0100085F0100085F0100085F01000860
:100100005F0100085F0100085F0100085F0100084F
:100110005F0100085F0100085F0100085F0100083F
:100120005F0100085F0100085F0100085F0100082F
:10013000DFF80CD000F06AF900480047B51200085B
:10014000300400200648804706480047FEE7FEE7E7
:10015000FEE7FEE7FEE7FEE7FEE7FEE7FEE7FEE777
:10016000550F0008310100082DE9FE4F81EA030414
:1001700004F0004421F0004100944FF0000B23F004
:10018000004350EA01045ED052EA03045BD0C3F39B
:100190000A54C1F30A552C44A4F2F3340194A0FB91
:1001A0000254C1F3130141F48011C3F3130343F468
:1001B000801301FB024400FB034E840A970A44EAC1
:1001C000815447EA8357A4FB076802958D0A05FB13
:1001D00007854FEA932C04FB0C542705029D4FEA38
:1001E000065847EA1637B5EB08056EEB070C870E85
:1001F000920E47EA811742EA8312A7FB0201B6EB8F
:100200000B0164EB00042B0D43EA0C335E1844EB46
:100210001C50DA465146E7FB0201C5F313044FEACE
:100220000B3343EA14534FEA0432019C43EA0603BA
:10023000A4F10C040294009CCDE900B400F098F8FD
:1002400003B0BDE8F08F00200146F9E796230022B5
:10025000114600F050B800F0004230F000400AD0E3
:10026000C10D01F56071C0F3160042EA0151C208E8
:1002700040071143704700200146704730B5041E07
:1002800071F1000404DB4FF00044404264EB0101D3
:10029000141E73F1000405DB1C464FF0004352426C
:1002A00063EB0403994208BF904230BD01F0004364
:1002B00030B421F0004150EA010206D00A0DA2F547
:1002C0006072C1F31301002A02DC30BC00207047C9
:1002D000440F44EAC104C100E01830BC00EBC25036
:1002E000AFF300800029A8BF7047401C490008BF39
:1002F00020F00100704710B4B0FA80FC00FA0CF056
:1003000050EA010404BF10BC704749B1CCF120048D
:1003100021FA04F411FA0CF118BF0121214308431A
:10032000A3EB0C01CB1D4FEA00614FEA102042BF46
:10033000002010BC704700EBC35010440029A4BF3C
:1003400010BC7047401C490008BF20F0010010BCE1
:10035000704710B5141E73F1000408DA401C41F117
:10036000000192185B411A4301D120F0010010BD39
:100370002DE9F04D92469B4611B1B1FA81F202E0AF
:10038000B0FA80F22032904600F052F804460F4650
:1003900040EA0A0041EA0B0153465A46084313D08B
:1003A000114653EA010019D0C8F14002504600F04E
:1003B0004EF805460E4650465946424600F038F87B
:1003C000084305D0012004E020463946BDE8F08D01
:1003D0000020054346EAE0762C4337430A9863053C
:1003E000E40AA0EB08000022FD0A44EA47540A3060
:1003F00002D500200146E9E7010510196941DDE950
:10040000084500196941BDE8F04DA2E7064C074DCB
:1004100006E0E06840F0010394E8070098471034D4
:10042000AC42F6D3FFF788FEE81200080813000874
:10043000202A04DB203A00FA02F1002070479140A4
:10044000C2F1200320FA03F3194390407047202A99
:1004500004DB203A21FA02F00021704721FA02F36E
:10046000D040C2F12002914008431946704721B1A3
:10047000826842F00102826003E0826822F0010299
:100480008260704710B504461248844208D10121A9
:10049000401500F059FC0021601500F055FC17E0F4
:1004A0000D48844208D10121001500F04DFC0021C7
:1004B000201500F049FC0BE00848844208D10121D6
:1004C000C80300F041FC00214FF4004000F03CFC68
:1004D00010BD00000024014000280140003C014004
:1004E000014600208A6802F004020AB1012000E0FF
:1004F000002070470146C86C80B270470246002059
:1005000013680B400BB1012000E00020704701464A
:1005100000208A6802F008020AB1012000E00020F1
:100520007047000030B502460020002350680F4C91
:1005300020400D790C6844EA0524204350609068FF
:100540000B4C2040D1E902542C434D7944EA450438
:1005500020439060D06A20F470000C7C641EE4B2EA
:10056000234340EA0350D06230BD0000FFFEF0FF9D
:10057000FDF7F1FFF0B504460D4600200021092DDE
:1005800011DDE068A5F10A0606EB4607072606FA24
:1005900007F18843A5F10A0606EB460603FA06F1C1
:1005A0000843E0600CE0206905EB4507072606FAE2
:1005B00007F1884305EB450603FA06F1084320617D
:1005C000072A0FDA606B561E06EB86071F2606FA0F
:1005D00007F18843561E06EB860605FA06F1084326
:1005E000606322E00D2A0FDA206BD61F06EB860728
:1005F0001F2606FA07F18843D61F06EB860605FA82
:1006000006F10843206310E0E06AA2F10D0606EB54
:1006100086071F2606FA07F18843A2F10D0606EBAE
:10062000860605FA06F10843E062F0BD816841F0F4
:1006300008018160704721B1826842F4A0028260A3
:1006400003E0826822F4A00282607047816841F072
:1006500004018160704700002DE9F0470A21012064
:1006600000F0D0FA04462046FFF7F0FD8246FFF77F
:10067000F2FD07464FF066320D4BFFF775FD05465C
:10068000FFF714FE814640F6B830844208DC484645
:10069000FFF7E1FD05460022064BFFF7EFFD02D212
:1006A00000F0D4FA01E000F0C7FABDE8F0870000DE
:1006B00066664A3F0000044000B585B001214FF452
:1006C000017000F031FB0220ADF8100000208DF821
:1006D000130004A9194800F0EBF94FF4004000F0B2
:1006E00007FB1748FFF7CEFE002000908DF80400AE
:1006F0008DF805004FF46020029000200390012047
:100700008DF8100069460E48FFF70CFF01210C48D8
:10071000FFF7ADFE0A48FFF789FF00BF0848FFF763
:10072000F6FE0028FAD10648FFF790FF00BF044804
:10073000FFF7D6FE0028FAD105B000BD0008014041
:10074000002401401CB50121042000F0EDFA012134
:10075000084600F0E9FA1020ADF8040048208DF8B2
:10076000070001A9124800F0A3F910200090002012
:100770008DF8040008208DF8050001208DF8060092
:10078000684600F02BF90421002000F071F90A20DE
:100790008DF8040002208DF8050000208DF8060079
:1007A00001208DF8070001A800F05EFA1CBD0000D2
:1007B0000008014008B50121102000F0B5FA4FF4FF
:1007C0000050ADF8000010208DF8030003208DF8D4
:1007D00002006946014800F06BF908BD00100140B5
:1007E0003EB505460C460121022000F08DFA681E38
:1007F00080B2ADF80400601E80B2ADF800000020A9
:10080000ADF80600ADF8020069460E4800F00CFC99
:100810001D208DF8080003208DF8090000208DF8B8
:100820000A0001208DF80B0002A800F01DFA012239
:100830001146044800F0EEFB0121024800F0CDFB18
:100840003EBD0000000400401FB50446012144F2F3
:10085000040000F069FA4FF40070ADF80C000320BA
:100860008DF80E0018208DF80F0003A91B4800F02A
:100870001FF94FF48060ADF80C0004208DF80F00D4
:1008800003A9164800F014F925208DF80C00032068
:100890008DF80D008DF80E0001208DF80F0003A8D3
:1008A00000F0E2F900940020ADF80400ADF8060075
:1008B000ADF80800ADF80C000C20ADF80A00694650
:1008C000074800F071FC012240F22551044800F075
:1008D00045FC0121024800F00BFC1FBD000801404F
:1008E0000038014000BFFEE77047000010B5044823
:1008F00000F0C6FCC4B22146014800F0C6FC10BDA1
:100900000038014010B56FF0040000F00DFB0A48FC
:1009100000680A49B0FBF1F0094908700846007800
:1009200000EB4001C1EBC0104FF6FF7101EAC000BF
:100930000449088010BD00000000002000127A0069
:10094000280000202A0000200146114A12884A434C
:100950004FF0E0235A6100229A611A46126942F070
:1009600001021A6100BF4FF0E022106900F001029D
:100970001AB100F48032002AF5D04FF0E02212695B
:1009800022F001024FF0E0231A6100229A617047C1
:100990002A00002010B5102000F00CF810B1102033
:1009A00000F002F810BD0000014908607047000027
:1009B00014040140014600200022074B1B6803EA93
:1009C0000102054B14331B680B4013B10AB101201F
:1009D00000E000207047000000040140002123498E
:1009E0008279002A3AD00A46126803689A430B4675
:1009F0001A600A1D126803689A430B1D1A60027977
:100A000011440A6803681A430A60184A08321268D7
:100A100003689A43154B08331A601A1D126803685D
:100A20009A43124B0C331A604279102A0ED11A1FC6
:100A3000126803681A430D4B08331A601A1D1268B6
:100A400003681A43094B0C331A600DE007494279D9
:100A500011440A6803681A430A6005E002791144E8
:100A60000A6803689A430A60704700000004014066
:100A700030B500228B071C0F0F2303FA04F20B4B37
:100A80008C1053F824309343084C8D1044F82530D3
:100A900023468C1053F824308C07240F00FA04F4FA
:100AA0002343024C8D1044F8253030BD080001402E
:100AB0002DE9F041024600250026002000230024F5
:100AC000002791F803C00CF00F0591F803C00CF05B
:100AD000100CBCF1000F03D091F802C04CEA0505E0
:100AE00091F800C0BCF1000F31D0146800202BE059
:100AF0004FF0010C0CFA00F3B1F800C00CEA030649
:100B00009E4220D183004FF00F0C0CFA03F7BC4338
:100B100005FA03FC4CEA040491F803C0BCF1280F69
:100B200006D14FF0010C0CFA00FCC2F814C00AE028
:100B300091F803C0BCF1480F05D14FF0010C0CFA3D
:100B400000FCC2F810C0401C0828D1D31460B1F8D2
:100B500000C0BCF1FF0F34DD546800202EE000F12E
:100B6000080C4FF0010808FA0CF3B1F800C00CEAC9
:100B700003069E4221D183004FF00F0C0CFA03F7BD
:100B8000BC4305FA03FC4CEA040491F803C0BCF131
:100B9000280F05D100F1080C08FA0CF8C2F81480EF
:100BA00091F803C0BCF1480F07D100F1080C4FF0D9
:100BB000010808FA0CF8C2F81080401C0828CED3AF
:100BC0005460BDE8F08141617047016170470000E9
:100BD00010B504460723012221460948FFF7CAFC45
:100BE00001210748FFF727FD00BF02210448FFF756
:100BF00085FC0028F9D00248FFF77CFC10BD0000FE
:100C0000002401402DE9F04107460C46002500264E
:100C100008E03846FFF7DCFF05440520FFF794FEA7
:100C2000701CC6B2A642F4DBB5FBF4F080B2BDE89E
:100C3000F08100BFFEE7000010B54FF400510248FC
:100C4000FFF7C3FF10BD00000010014010B54FF4C6
:100C500000510248FFF7B7FF10BD0000001001402F
:100C600000BFFEE77047000070B5002100230F228F
:100C7000C47804B3154C246804F4E064C4F5E0645B
:100C8000210AC1F10403CA40447804FA03F18478CC
:100C90001440214309010E4C0678A155047804F054
:100CA0001F050124AC4005786D11AD0005F1E0256C
:100CB000C5F8004109E0047804F01F050124AC40A8
:100CC000044D0678761145F8264070BD0CED00E025
:100CD00000E400E080E100E002490143024A1160C3
:100CE000704700000000FA050CED00E070470000BE
:100CF00001460020034A506820F4404008435060F9
:100D0000704700000010024029B1064AD269024330
:100D1000044BDA6104E0034AD2698243014BDA6191
:100D2000704700000010024029B1064A9269024350
:100D3000044B9A6104E0034A92698243014B9A6131
:100D4000704700000010024029B1064AD2680243F1
:100D5000044BDA6004E0034AD2688243014BDA6054
:100D6000704700000010024030B50021002200242E
:100D700000232D4D6D6805F00C0121B1042905D02B
:100D8000082923D105E0294D056022E0274D0560A3
:100D90001FE0254D6D6805F47012234D6D6805F454
:100DA0008034022505EB92421CB9214D5543056064
:100DB0000BE01D4D6D6805F400351DB11C4D55430C
:100DC000056002E0194D5543056002E0174D0560CE
:100DD00000BF00BF144D6D6805F0F0010909154D05
:100DE0006B5C0568DD4045600F4D6D6805F4E061A2
:100DF000090A104D6B5C4568DD4085600A4D6D68E1
:100E000005F46051C90A0B4D6B5C4568DD40C56057
:100E1000054D6D6805F44041890B074D6B5CC56855
:100E2000B5FBF3F5056130BD0010024000127A00F9
:100E300000093D001400002024000020704710B578
:100E400000F002F810BD00000CB5002001900090E9
:100E50003348006840F480303149086000BF3048B2
:100E6000006800F4003000900198401C0190009848
:100E700018B90198B0F5A06FF1D12948006800F4C5
:100E8000003010B10120009001E000200090009897
:100E9000012843D12348006840F010002149086030
:100EA0000846006820F0030008600846006840F02B
:100EB000020008601A4840681949486008464068BE
:100EC00048600846406840F48060486008464068D2
:100ED00020F47C1048600846406840F4E810486000
:100EE0000846006840F08070086000BF0C48006849
:100EF00000F000700028F9D00948406820F0030095
:100F0000074948600846406840F00200486000BF5A
:100F10000348406800F00C000828F9D10CBD00001F
:100F20000010024000200240042808D14FF0E021C8
:100F3000096941F004014FF0E022116107E04FF030
:100F4000E021096921F004014FF0E02211617047AE
:100F50007047000010B51348006840F001001149C7
:100F6000086008464068104908400E494860084635
:100F700000680E4908400B4908600846006820F4E4
:100F8000802008600846406820F4FE0048604FF466
:100F90001F008860FFF753FF4FF0006004490860AE
:100FA00010BD0000001002400000FFF8FFFFF6FE39
:100FB00008ED00E010B50121054800F01AF828B14D
:100FC00000F084F80121024800F004F810BD000090
:100FD00000040040CA430282704721B1028842F0F7
:100FE0000102028004E002884FF6FE731A4002807C
:100FF000704730B50246002000230024158A05EA18
:101000000103958905EA010413B10CB1012000E048
:10101000002030BD1AB183890B43838102E08389AC
:101020008B43838170470000002202881D4B984249
:101030000ED01D4B98420BD0B0F1804F08D01B4B07
:10104000984205D01A4B984202D01A4B984204D1CC
:101050004FF68F731A404B881A43174B984207D0AC
:10106000164B984204D04FF6FF431A40CB881A43E0
:1010700002808B8883850B8803850A4B98420BD0AE
:10108000094B984208D00E4B984205D00D4B984220
:1010900002D00D4B984201D10B7A03860123838243
:1010A00070470000002C0140003401400004004063
:1010B00000080040000C00400010004000140040F8
:1010C00000400140004401400048014070470000DA
:1010D00010B540F22551054800F016F828B1FFF789
:1010E00005FC40F22550FFF75FFC10BD00380140C1
:1010F00021B1828942F40052828104E082894DF656
:10110000FF731A408281704770B5024600240023A5
:101110000025002040F66A16B14200D100BFC1F39D
:10112000421501F01F03012606FA03F3012D02D137
:101130009689334006E0022D02D1168A334001E041
:10114000968A33400C12012606FA04F416883440BD
:1011500013B10CB1012000E0002070BDF0B50346D2
:10116000002400260025002040F66A17B94200D16D
:1011700000BF1846C1F3421401F01F06012707FA09
:1011800006F5012C01D10C3004E0022C01D1103005
:1011900000E014301AB107682F43076002E00768C7
:1011A000AF430760F0BD00002DE9F04786B005466B
:1011B0000E460024A24600BFA1460027B08900B118
:1011C00000BF2F462C8A4CF6FF700440F088044381
:1011D0002C82AC894EF6F3100440B0883189084364
:1011E000718908430443AC81AC8A4FF6FF40044048
:1011F000B0890443AC8201A8FFF7B6FD1F488742BF
:1012000002D1DDF810A001E0DDF80CA0A88900F4FF
:10121000004040B10AEBCA0000EB0A1031684900F7
:10122000B0FBF1F807E00AEBCA0000EB0A103168E6
:101230008900B0FBF1F86420B8FBF0F0040120094C
:10124000642101FB1089A88900F4004040B13220DC
:1012500000EBC900B0FBF1F000F00700044308E028
:10126000322000EB09106421B0FBF1F000F00F0018
:1012700004432C8106B0BDE8F0870000003801402F
:1012800001468888C0F308007047C1F308028280D5
:10129000704700BFFEE702E008C8121F08C1002A1D
:1012A000FAD170477047002001E001C1121F002AE7
:1012B000FBD170474FF4A060FFF70EFD4FF4E13013
:1012C000FFF7C2FAFFF71EFBFFF774FAFFF73AFACF
:1012D0004FF4E15142F21070FFF782FAFFF7ECF998
:1012E00001E0FFF7B9F9FCE708130008000000204F
:1012F0002C00000096120008341300082C00002077
:1013000004040000A612000800A24A040000000025
:1013100000000000010203040607080900000000A5
:101320000102030401020304060708090204060877
:0413300000000000B9
:0400000508000131BD
:00000001FF
