:020000040800F2
:1000000000040020450100089B010008930100083E
:10001000970100088D01000801030008000000009E
:10002000000000000000000000000000B301000814
:100030009101000800000000B10100089D020008C5
:100040005F0100085F0100085F0100085F01000810
:100050005F0100085F0100085F0100085F01000800
:100060005F0100085F0100085F0100085F010008F0
:100070005F0100085F0100085F0100085F010008E0
:100080005F0100085F0100085F0100085F010008D0
:100090005F0100085F0100085F0100085F010008C0
:1000A0005F0100085F0100085F0100085F010008B0
:1000B0005F0100085F0100085F0100085F010008A0
:1000C0005F0100085F0100085F0100085F01000890
:1000D0005F0100085F0100085F0100085F01000880
:1000E0005F0100085F0100085F0100085F01000870
:1000F0005F0100085F0100085F0100085F01000860
:100100005F0100085F0100085F0100085F0100084F
:100110005F0100085F0100085F0100085F0100083F
:100120005F0100085F0100085F0100085F0100082F
:10013000DFF80CD000F018F800480047230300084F
:10014000000400200648804706480047FEE7FEE717
:10015000FEE7FEE7FEE7FEE7FEE7FEE7FEE7FEE777
:10016000A102000831010008064C074D06E0E068D6
:1001700040F0010394E8070098471034AC42F6D3EE
:10018000FFF7DAFF300300084003000800BFFEE776
:10019000704700BFFEE700BFFEE77047024901431A
:1001A000024A1160704700000000FA050CED00E003
:1001B0007047704710B500F001F810BD0CB5002075
:1001C000019000903348006840F480303149086065
:1001D00000BF3048006800F4003000900198401CD7
:1001E0000190009818B90198B0F5A06FF1D1294895
:1001F000006800F4003010B10120009001E0002000
:1002000000900098012843D12348006840F0100076
:10021000214908600846006820F00300086008468D
:10022000006840F0020008601A48406819494860B8
:100230000846406848600846406840F4806048606E
:100240000846406820F47C1048600846406840F446
:10025000E81048600846006840F08070086000BF01
:100260000C48006800F000700028F9D00948406888
:1002700020F00300074948600846406840F002004B
:10028000486000BF0348406800F00C000828F9D11E
:100290000CBD00000010024000200240704700002A
:1002A00010B51348006840F0010011490860084685
:1002B0004068104908400E494860084600680E49E9
:1002C00008400B4908600846006820F48020086058
:1002D0000846406820F4FE0048604FF41F00886024
:1002E000FFF768FF4FF000600449086010BD000090
:1002F000001002400000FFF8FFFFF6FE08ED00E0EE
:1003000000BFFEE702E008C8121F08C1002AFAD1A8
:1003100070477047002001E001C1121F002AFBD185
:1003200070474FF4A060FFF739FF00BFFEE7000001
:10033000400300080000002000040000140300082F
:0400000508000131BD
:00000001FF
