:020000040800F2
:10000000700F00204501000883130008090C000848
:100010007F1300081B090008B3210008000000003E
:10002000000000000000000000000000FD170008B4
:100030001F090008000000009D16000811190008A3
:100040005F0100085F0100085F0100085F01000810
:100050005F0100085F0100085F0100085F01000800
:100060005F0100085F0100085F0100085F010008F0
:100070005F0100085F0100085F0100085F010008E0
:100080005F0100085F0100085F0100085F010008D0
:100090005F0100085F0100085F01000839090008DE
:1000A0005F0100085F0100085F0100085F010008B0
:1000B000B51B0008CD1B0008E91B00085F01000804
:1000C0005F0100085F0100085F0100085F01000890
:1000D0005F010008F11F00085F0100085F010008D0
:1000E0005F0100085F0100085F0100085F01000870
:1000F0005F0100085F0100085F0100085F01000860
:100100005F0100085F0100085F0100085F0100084F
:100110005F0100085F0100085F0100085F0100083F
:100120005F0100085F0100085F0100085F0100082F
:10013000DFF80CD000F0C8FB00480047E12D0008B4
:10014000700F00200648804706480047FEE7FEE79C
:10015000FEE7FEE7FEE7FEE7FEE7FEE7FEE7FEE777
:100160001519000831010008D2B201E000F8012B96
:10017000491EFBD270470022F6E710B513460A4627
:1001800004461946FFF7F0FF204610BDF0B480EAA0
:100190000102D40F4200B2EB410F02D202460846E0
:1001A00011464A0042D0C30DDDB2C1F3C752AD1AA9
:1001B000202D35DAC1F3160141F4000204B1524298
:1001C000C5F1200602FA06F12A411044B3EBD05FD4
:1001D00023D0C4B1012DA0EBC35009DCF0BC4FF01B
:1001E000004202EAC352DBB200F5000000F0E0BAC0
:1001F000400000F1807000EBC350A0F1807040EA35
:10020000D170490009E0490841EAC071A0EBC35030
:1002100000F50000400800EBC350F0BC00F0BFBA8E
:100220006142012202EB4101001BF6E7F0BC70477E
:1002300081F00041AAE780F00040A7E780EA0102D0
:1002400010B502F00043400022D04A001FD0010E3A
:1002500001EB1261C0F35600C2F3560240F40000F5
:1002600042F40002A0FB022000047F39140400D0F5
:10027000401C50EA124001D44000491EC2B20C0694
:1002800004EBD010401C4008802A02D003E000207C
:1002900010BD20F00100002900DA0020184310BD35
:1002A00030B480EA010202F0004530F0004221F053
:1002B000004013D090B1C30DD40DC2F31601C0F3AA
:1002C0001600E41A41F4000140F400027D3491422A
:1002D00001D3641C00E04900002C02DA30BC00208D
:1002E00070474FF400000023914201D3891A034361
:1002F00040084FEA4101F7D151B1914202D14FF08C
:10030000004105E002D24FF0010101E06FF0010170
:1003100003EBC450284430BC00F041BA2DE9FE4F35
:10032000804681EA0300C00F0C46009021F0004196
:1003300023F00045B8EB0200A94105D24046214612
:1003400090461C460B46024623F00040104347D01F
:10035000270DC7F30A00C3F30A510290401A019017
:1003600040286BDAC3F3130040F4801B00989246D8
:1003700020B10023D2EB030A63EB0B0B0198594623
:10038000C0F14002504600F0D9F906460D465046ED
:100390005946019A00F0F1F910EB08006141002480
:1003A00087EA115284EAE7731A4340D0009A62B395
:1003B000019A012A4FEA075215DC001B61EB02018A
:1003C0004FF0004202EA0752CDE90042001C41F51D
:1003D000801132462B4600F028FA03B0BDE8F08FBA
:1003E00040462146F9E7001B61EB0201001C41F584
:1003F000801300185B412018A2F5001747EB03019A
:1004000040EAD570B6196D4111E06D084FEA360625
:1004100045EAC0754FEA0752001B61EB0201001C60
:1004200041F5801149084FEA300000195141324628
:100430002B4603B0BDE8F04F00F0E8B90098012268
:1004400040000023D0EB020263EBE07300982146EA
:100450004FEAE074B8EB000061EB0401E9E783F0D8
:1004600000435BE781F0004158E72DE9FE4F81EA48
:10047000030404F0004421F0004100944FF0000B0D
:1004800023F0004350EA01045ED052EA03045BD03B
:10049000C3F30A54C1F30A552C44A4F2F334019473
:1004A000A0FB0254C1F3130141F48011C3F3130301
:1004B00043F4801301FB024400FB034E840A970AB5
:1004C00044EA815447EA8357A4FB076802958D0AE2
:1004D00005FB07854FEA932C04FB0C542705029D6E
:1004E0004FEA065847EA1637B5EB08056EEB070CDE
:1004F000870E920E47EA811742EA8312A7FB020198
:10050000B6EB0B0164EB00042B0D43EA0C335E18D1
:1005100044EB1C50DA465146E7FB0201C5F31304D5
:100520004FEA0B3343EA14534FEA0432019C43EA87
:100530000603A4F10C040294009CCDE900B400F081
:1005400074F903B0BDE8F08F00200146F9E72DE90A
:10055000F04D81EA030404F0004B21F000451446FD
:100560004FF0000A23F0004150EA050220D054EA7F
:1005700001021DD0C5F30A570246C5F31303C1F3A8
:100580001300C1F30A5640F4801543F48013A7EB1F
:100590000608101BD64608F2FD3873EB050002D39F
:1005A00008F1010801E092185B41B8F1000F03DA8D
:1005B00000200146BDE8F08D00204FF48011064672
:1005C00084460EE0171B73EB050705D3121B63EB84
:1005D000050306434CEA010C49084FEA3000921823
:1005E0005B4150EA0107EDD152EA030012D082EAE2
:1005F000040083EA0501084305D0101BAB4106D275
:100600000122002306E000224FF0004302E06FF0D9
:10061000010253101AEB06004CEB085110EB0A00D4
:1006200041EB0B01BDE8F04D00F0F0B8C10F80EADE
:10063000E0700844CA079623002100F0B9B8962359
:100640000022114600F0B4B80EB5C10F80EAE07088
:100650000844CA07002140F233438DE80E000A46E1
:100660000B4600F0E2F803B000BD00F0004220F0BD
:100670000040C10DC0F3160040F400007F2901DAEC
:1006800000207047962903DCC1F19601C84001E0C3
:1006900096398840002AF4D04042704770B5C1F3C3
:1006A0000A5201F000450024C1F3130140F2FF3368
:1006B00041F480119A4201DA002070BD40F23343C8
:1006C0009A42A2F2334203DC524200F046F800E0C4
:1006D00090402C43F1D0404270BD000030B5041E64
:1006E00071F1000404DB4FF00044404264EB01016F
:1006F000141E73F1000405DB1C464FF00043524208
:1007000063EB04038B4208BF824230BD30B5041E48
:1007100071F1000404DB4FF00044404264EB01013E
:10072000141E73F1000405DB1C464FF000435242D7
:1007300063EB0403994208BF904230BD202A04DBDA
:10074000203A00FA02F1002070479140C2F12003E4
:1007500020FA03F3194390407047202A04DB203A23
:1007600021FA02F00021704721FA02F3D040C2F1D1
:1007700020029140084319467047202A06DBCB1718
:10078000203A41FA02F043EAE07306E041FA02F34C
:10079000D040C2F120029140084319467047002919
:1007A000A8BF7047401C490008BF20F001007047F7
:1007B00010B4B0FA80FC00FA0CF050EA010404BF57
:1007C00010BC704749B1CCF1200421FA04F411FAAD
:1007D0000CF118BF012121430843A3EB0C01CB1DF1
:1007E0004FEA00614FEA102042BF002010BC704762
:1007F00000EBC35010440029A4BF10BC7047401C3C
:10080000490008BF20F0010010BC704710B5141E4D
:1008100073F1000408DA401C41F1000192185B41B9
:100820001A4301D120F0010010BD2DE9F04D924690
:100830009B4611B1B1FA81F202E0B0FA80F22032A7
:100840009046FFF77BFF04460F4640EA0A0041EA64
:100850000B0153465A46084313D0114653EA010090
:1008600019D0C8F140025046FFF777FF05460E4603
:10087000504659464246FFF761FF084305D0012024
:1008800004E020463946BDE8F08D0020054346EAE5
:10089000E0762C4337430A986305E40AA0EB08008E
:1008A0000022FD0A44EA47540A3002D500200146DE
:1008B000E9E7010510196941DDE9084500196941B9
:1008C000BDE8F04DA2E70000064C074D06E0E068E9
:1008D00040F0010394E8070098471034AC42F6D387
:1008E000FFF72AFC50A5000870A5000870B521F09C
:1008F000004303430CD0C1F30A550024D5EB040593
:1009000064EB0403D617AD1AB34102DB00200146A5
:1009100070BD201841EB025170BD00BFFEE770476B
:1009200010B5044801F03CFCC4B22146014801F076
:100930003CFC10BD0038014010B5202000F00EF83E
:10094000012801D102F0D2F8202000F001F810BDFA
:10095000014908607047000014040140014600206E
:100960000022074B1B6803EA0102054B14331B6886
:100970000B4013B10AB1012000E0002070470000D5
:1009800000040140002123498279002A3AD00A4616
:10099000126803689A430B461A600A1D12680368BE
:1009A0009A430B1D1A60027911440A6803681A43BE
:1009B0000A60184A0832126803689A43154B0833D4
:1009C0001A601A1D126803689A43124B0C331A609E
:1009D0004279102A0ED11A1F126803681A430D4B70
:1009E00008331A601A1D126803681A43094B0C3346
:1009F0001A600DE00749427911440A6803681A43F6
:100A00000A6005E0027911440A6803689A430A60A3
:100A1000704700000004014030B500228B071C0F16
:100A20000F2303FA04F20B4B8C1053F8243093433A
:100A3000084C8D1044F8253023468C1053F8243090
:100A40008C07240F00FA04F42343024C8D1044F861
:100A5000253030BD080001402DE9F0410246002557
:100A60000026002000230024002791F803C00CF08A
:100A70000F0591F803C00CF0100CBCF1000F03D06F
:100A800091F802C04CEA050591F800C0BCF1000FD6
:100A900031D0146800202BE04FF0010C0CFA00F369
:100AA000B1F800C00CEA03069E4220D183004FF04B
:100AB0000F0C0CFA03F7BC4305FA03FC4CEA0404E0
:100AC00091F803C0BCF1280F06D14FF0010C0CFACD
:100AD00000FCC2F814C00AE091F803C0BCF1480F52
:100AE00005D14FF0010C0CFA00FCC2F810C0401CFC
:100AF0000828D1D31460B1F800C0BCF1FF0F34DD79
:100B0000546800202EE000F1080C4FF0010808FAAC
:100B10000CF3B1F800C00CEA03069E4221D1830019
:100B20004FF00F0C0CFA03F7BC4305FA03FC4CEA38
:100B3000040491F803C0BCF1280F05D100F1080CA2
:100B400008FA0CF8C2F8148091F803C0BCF1480F01
:100B500007D100F1080C4FF0010808FA0CF8C2F8B0
:100B60001080401C0828CED35460BDE8F0810000FE
:100B7000F0B50A46002300240021002500F00046BD
:100B8000B6F1004F02D11D4EF16901E01B4E7168B4
:100B9000C0F3034583B200F44016B6F5401F08D1F8
:100BA00021F07061154E766826F07066134F7E60F6
:100BB00012E000F48016B6F5801F06D1032606FA6F
:100BC00005F4A14341F0706106E0460D360103FAD9
:100BD00006F6B14341F0706122B1460D360103FAC9
:100BE00006F6314300F00046B6F1004F02D1034E45
:100BF000F16101E0014E7160F0BD000000000140B4
:100C0000416170470161704700BFFEE710B50020E9
:100C10000949086000F0E0FD00200849C1F8A4017E
:100C200000F05AFA01200449086000F055FA00204B
:100C30000249C1F8A00110BDA081214200802142DB
:100C400010B500200949086000F0C6FD01200849E0
:100C5000C1F8A40100F040FA01200449086000F046
:100C60003BFA00200249C1F8A00110BDA081214239
:100C70000080214270B50546002400F09BFD00264F
:100C800014E000200E49086000F026FA01200D490A
:100C9000C1F8A0016006040E09487C38006808B15C
:100CA000601CC4B200F018FA701CC6B2082EE8DB53
:100CB00015B9FFF7C5FF01E0FFF7A8FF204670BD9B
:100CC000A08121420080214270B5044600F084FDDD
:100CD00000200D490860002512E0E0090A49091DBD
:100CE00008606006040E01200849C1F8A00100F068
:100CF000F3F900200449086000F0EEF9681CC5B261
:100D0000082DEADB70BD0000A08121420080214255
:100D100010B500F061FD0120084908600849C1F8DC
:100D2000A00100F0D9F900200449086000F0D4F9CE
:100D300000200349C1F8A00110BD0000A481214298
:100D40000080214210B500F047FD002007490860EF
:100D50000749C1F8A40100F0BFF901200349086068
:100D60000349C1F8A40100F0B7F910BDA0812142E8
:100D70000080214210B5002400F01CFD01200E4926
:100D8000086000F0A9F901200C49C1F8A00100F0A9
:100D9000A3F907E0601CC4B2FA2C03DDFFF7D2FF11
:100DA000012010BD0448803800680028F2D10249B3
:100DB000091F086000BFF4E7A4812142008021429E
:100DC0002DE9F04105460C46894801682046FFF7A9
:100DD0002FFA0746874801683846FFF72FFA06467C
:100DE000854801683046FFF7D1F983490860834898
:100DF000416883480068FFF71BFA06467F48816810
:100E00003046FFF715FA7F4908607C48C06880F0DB
:100E1000004048607948C06880F0004088607A48A7
:100E20000068C860086873490968FFF707FA064652
:100E3000724801683046FFF7A9F9704908607149A6
:100E400048686C490968FFF7F9F906466B4841683C
:100E50003046FFF79BF9694948606A4988686549E7
:100E60000968FFF7EBF90646644881683046FFF7EA
:100E70008DF9624988606349C8685E490968FFF76F
:100E8000DDF906465D48C1683046FFF77FF95B49EA
:100E9000C860594801682846FFF7CAF95B490860ED
:100EA0005B480078FFF7CBFB0646544801683046A4
:100EB000FFF7C4F95749086055480078FFF7BFFBB2
:100EC00006464E4881683046FFF7B8F95249086037
:100ED0004F480078FFF7B3FB07464E480168384695
:100EE000FFF7ACF906464D4801683046FFF74EF96A
:100EF0004B4908600846016846480068FFF7D0F98A
:100F0000484908604648016843480068FFF7C8F947
:100F1000454908603F480068444908603C480078FB
:100F2000FFF78DFB0646354841683046FFF786F9E6
:100F30003F4908603D4801683A480068FFF77EF97C
:100F400006462E4801683046FFF775F92B490860C0
:100F50003748016833480068FFF770F906462748AC
:100F600041683046FFF767F9244948602F48016817
:100F70002D480068FFF762F9064620488168304630
:100F8000FFF759F91D49886029480168264800681B
:100F9000FFF754F906461948C1683046FFF74BF988
:100FA0001649C860194801681E480068FFF746F9ED
:100FB0000646114801683046FFF7E8F80E49086018
:100FC0001248016818480068FFF738F906460848D3
:100FD00001683046FFF7DAF80549086008460168FD
:100FE0002046FFF725F913490860BDE8F0810000AD
:100FF000840000207C000020B8000020A800002011
:101000007000002060010020740000208800002093
:10101000800000208C00002090000020780000203C
:1010200094000020980000209C000020A0000020D8
:10103000A40000206C0000202DE9FC4104460D4670
:1010400016466B4606223B21682000F0E8F807466A
:10105000BFB99DF801009DF8001040EA012000B2E0
:1010600020809DF803009DF8021040EA012000B2A4
:1010700028809DF805009DF8041040EA012000B288
:1010800030803846BDE8FC812DE9FC4104460D4620
:1010900016466B4606224321682000F0C0F807463A
:1010A000BFB99DF801009DF8001040EA012000B290
:1010B00020809DF803009DF8021040EA012000B254
:1010C00028809DF805009DF8041040EA012000B238
:1010D00030803846BDE8FC8110B5022001F0FAFDF1
:1010E00010BD000008B50121082000F0E9FA4FF416
:1010F0008070ADF8000003208DF8020014208DF8F8
:10110000030069460B48FFF7A7FC4FF40070ADF8E9
:10111000000003208DF8020014208DF803006946BA
:101120000448FFF799FC0120034908600349C1F80E
:10113000A40108BD000C0140A08121420080214291
:1011400010B5FFF7CFFF80226B21682000F0F1F887
:10115000642001F099FD00226B21682000F0E9F87D
:10116000032000F09FF8002000F093F8C82000F062
:10117000C2F801223821682000F0DBF800226A2141
:10118000682000F0D6F800222321682000F0D1F872
:101190009C223721682000F0CCF87521682000F0EF
:1011A00019F80B4908700846007868280CD101220C
:1011B0006B2100F0BEF800226C21682000F0B9F825
:1011C000C82000F098F801E0012010BD0020FCE7E5
:1011D000C800002070B504460D460026FFF798FDB4
:1011E000002141EA4401C8B2FFF76EFDFFF7C2FDDE
:1011F0002846FFF769FDFFF7BDFDFFF789FD0121D7
:1012000001EB4401C8B2FFF75FFDFFF7B3FD00201B
:10121000FFF730FD0646FFF795FD304670BD2DE91E
:10122000F04106460F4614461D46FFF771FD0021AA
:1012300041EA4601C8B2FFF747FDFFF79BFD20B129
:10124000FFF780FD0120BDE8F0813846FFF73CFD47
:10125000FFF790FDFFF75CFD012101EB4601C8B2ED
:10126000FFF732FDFFF786FD0DE0012C04D10020D1
:10127000FFF700FD287003E00120FFF7FBFC28705A
:10128000601EC4B26D1C002CEFD1FFF75BFD002087
:10129000D9E710B50446E006020E1C21682000F0D4
:1012A00048F810BD10B50446032000EBC400C2B2DC
:1012B0001B21682000F03DF810BD70B504460025E4
:1012C000BC2C01DB012510E0622C01DB02250CE0C7
:1012D0002A2C01DB032508E0142C01DB042504E0A3
:1012E0000A2C01DB052500E006252A461A21682084
:1012F00000F01FF870BD70B50446B4F57A7F01DDCB
:101300004FF47A74042C00DA04244FF47A7090FBC2
:10131000F4F0401EC5B22A461921682000F009F8F1
:101320000546264604EBD671C1F34F00FFF7C5FF13
:1013300070BD70B504460D461646FFF7E9FC002166
:1013400041EA4401C8B2FFF7BFFCFFF713FD18B133
:10135000FFF7F8FC012070BD2846FFF7B5FCFFF74A
:1013600009FD3046FFF7B0FCFFF704FD18B1FFF7A9
:10137000E9FC0120EFE7FFF7E5FC0020EBE700BF09
:10138000FEE7704770B5002100230F22C47804B334
:10139000154C246804F4E064C4F5E064210AC1F14A
:1013A0000403CA40447804FA03F1847814402143CA
:1013B00009010E4C0678A155047804F01F0501249C
:1013C000AC4005786D11AD0005F1E025C5F8004190
:1013D00009E0047804F01F050124AC40044D0678B0
:1013E000761145F8264070BD0CED00E000E400E009
:1013F00080E100E002490143024A116070470000A9
:101400000000FA050CED00E070B500240CE00025AA
:1014100006E00020074901EBC5010855681CC5B26C
:10142000802DF6DB601CC4B2082CF0DB00F0DAF88B
:1014300070BD00007001002008B50121084600F0D1
:101440003FF901211C2000F03BF901216248FFF720
:101450008FFB4FF40040ADF8000014208DF803001E
:1014600003208DF8020069465C48FFF7F5FA4FF457
:1014700000415A48FFF7C6FB4FF48040ADF800002A
:1014800069465648FFF7E8FA4FF480415348FFF7A2
:10149000B9FB4FF40050ADF8000010208DF80300A8
:1014A00003208DF8020069464C48FFF7D5FA4FF447
:1014B00000514A48FFF7A6FB1020ADF800008DF858
:1014C000030003208DF8020069464548FFF7C4FA7F
:1014D00010214348FFF796FB4FF400513F48FFF7B8
:1014E0008FFBC82001F0D0FB4FF400513B48FFF7C1
:1014F00089FB0021AE2000F09BF80021084600F097
:1015000097F80021102000F093F80021402000F00F
:101510008FF80021812000F08BF80021CF2000F00F
:1015200087F80021A12000F083F80021C82000F0F6
:101530007FF80021A62000F07BF80021A82000F011
:1015400077F800213F2000F073F80021D32000F04D
:101550006FF80021084600F06BF80021D52000F05C
:1015600067F80021802000F063F80021D92000F006
:101570005FF80021F12000F05BF80021DA2000F094
:1015800057F80021122000F053F80021DB2000F072
:101590004FF80021402000F04BF80021202000F0FF
:1015A00047F80021022000F043F800218D2000F0D0
:1015B0003FF80021142000F03BF80021A42000F0A7
:1015C00037F80021A62000F033F8FFF71DFF0021B7
:1015D000AF2000F02DF808BD0002300000100140DF
:1015E000000C014070B500241CE004F1B001C8B249
:1015F000002100F01DF80021084600F019F8002134
:10160000102000F015F8002508E0084901EBC5019D
:10161000085D012100F00CF8681CC5B2802DF4DBD8
:10162000601CC4B2082CE0DB70BD0000700100201B
:1016300070B504460E4626B110211648FFF7E2FAAF
:1016400003E010211348FFF7DBFA00251BE04FF4FD
:1016500000411148FFF7D4FA04F0800028B14FF49C
:1016600080410D48FFF7CEFA04E04FF480410A486C
:10167000FFF7C6FA4FF400410748FFF7C3FA6006C8
:10168000040E681CC5B2082DE1DB10210148FFF7EC
:10169000B9FA70BD000C0140001001407047000015
:1016A00029B1064AD2690243044BDA6104E0034AD5
:1016B000D2698243014BDA6170470000001002409A
:1016C00029B1064A92690243044B9A6104E0034A35
:1016D00092698243014B9A617047000000100240FA
:1016E00030B500210022002400232D4D6D6805F047
:1016F0000C0121B1042905D0082923D105E0294D89
:10170000056022E0274D05601FE0254D6D6805F45A
:101710007012234D6D6805F48034022505EB92426A
:101720001CB9214D554305600BE01D4D6D6805F456
:1017300000351DB11C4D5543056002E0194D554360
:10174000056002E0174D056000BF00BF144D6D68D5
:1017500005F0F0010909154D6B5C0568DD40456039
:101760000F4D6D6805F4E061090A104D6B5C45682A
:10177000DD4085600A4D6D6805F46051C90A0B4D66
:101780006B5C4568DD40C560054D6D6805F4404102
:10179000890B074D6B5CC568B5FBF3F5056130BD82
:1017A0000010024000127A0000093D0014000020E1
:1017B0002400002008B54FF40070ADF800000320AD
:1017C0008DF8020048208DF8030069460148FFF7B4
:1017D00043F908BD000C014008B54FF40070ADF8A6
:1017E000000003208DF8020014208DF803006946E4
:1017F0000148FFF731F908BD000C0140704710B5F2
:1018000000F002F810BD00000CB50020019000901F
:101810003348006840F480303149086000BF3048E8
:10182000006800F4003000900198401C019000987E
:1018300018B90198B0F5A06FF1D12948006800F4FB
:10184000003010B10120009001E0002000900098CD
:10185000012843D12348006840F010002149086066
:101860000846006820F0030008600846006840F061
:10187000020008601A4840681949486008464068F4
:1018800048600846406840F4806048600846406808
:1018900020F47C1048600846406840F4E810486036
:1018A0000846006840F08070086000BF0C4800687F
:1018B00000F000700028F9D00948406820F00300CB
:1018C000074948600846406840F00200486000BF91
:1018D0000348406800F00C000828F9D10CBD000056
:1018E0000010024000200240042808D14FF0E021FF
:1018F000096941F004014FF0E022116107E04FF067
:10190000E021096921F004014FF0E02211617047E4
:101910007047000010B51348006840F001001149FD
:10192000086008464068104908400E49486008466B
:1019300000680E4908400B4908600846006820F41A
:10194000802008600846406820F4FE0048604FF49C
:101950001F008860FFF753FF4FF0006004490860E4
:1019600010BD0000001002400000FFF8FFFFF6FE6F
:1019700008ED00E0F0B50C46154600220021068C6B
:101980004FF6FE773E400684028B018C4FF60C76B4
:1019900032407E1C06EA03162E433243104EB042FC
:1019A0000ED0104EB0420BD0B0F1804F08D00E4E8A
:1019B000B04205D00D4EB04202D00D4EB04206D11D
:1019C0004FF6FD76314044F00106314305E04FF615
:1019D000F576314044F00106314302830184F0BDC5
:1019E000002C014000340140000400400008004089
:1019F000000C0040F0B50C461546002200210026E0
:101A0000078C4FF6EF7C07EA0C070784028B018CEA
:101A10004FF6FF7707EA041640F6FF473A404FF6C5
:101A2000FF7707EA03373A434FF6FF7707EA0527C0
:101A30003A43114FB8420ED0104FB8420BD0B0F11C
:101A4000804F08D00E4FB84205D00E4FB84202D09A
:101A50000D4FB84206D14FF6DF77394046F01007F8
:101A6000394305E04FF65F77394044F010073943BA
:101A700002830184F0BD0000002C014000340140CD
:101A80000004004000080040000C0040F0B50C4687
:101A90001546002200210026078C4FF6FF6C07EA4E
:101AA0000C070784828B018C4FF6FF7707EA042628
:101AB0004FF60C773A404FF6FF7707EA03172F43AC
:101AC0003A43114FB8420ED0104FB8420BD0B0F18C
:101AD000804F08D00E4FB84205D00E4FB84202D00A
:101AE0000D4FB84206D14FF6FF57394046F4807784
:101AF000394305E04FF2FF57394044F480773943CA
:101B000082830184F0BD0000002C014000340140BC
:101B10000004004000080040000C0040F0B50C46F6
:101B20001546002200210026078C4EF6FF7C07EAAE
:101B30000C070784828B018C4FF6FF7707EA043687
:101B400040F6FF473A404FF6FF7707EA05273A434A
:101B50004FF6FF7707EA03373A43114FB8420ED0EA
:101B6000104FB8420BD0B0F1804F08D00E4FB842A2
:101B700005D00E4FB84202D00D4FB84206D14DF6F7
:101B8000FF77394046F48057394305E047F6FF5761
:101B9000394044F48057394382830184F0BD00000A
:101BA000002C0140003401400004004000080040C7
:101BB000000C00404FF08040008A4FF08040008AC7
:101BC00020F001004FF080410882704710B50121DC
:101BD000044800F063F818B10121024800F01FF832
:101BE00010BD00000004004004480088034800883D
:101BF00020F00100014908807047000010080040F3
:101C000021B1028842F08002028004E002884FF68F
:101C10007F731A4002807047CA4302827047CA43EA
:101C20000282704721B1028842F00102028004E082
:101C300002884FF6FE731A400280704731B1B0F847
:101C4000442042F40042A0F8442005E0B0F84420CB
:101C5000C2F30E02A0F844207047F0B50C461546BA
:101C60001E460021002200230189028B038C4FF6BF
:101C7000F877394021434FF6FC473A4040F20117CC
:101C80003A434FF6DD773B404FF6FF7707EA0617FA
:101C90002F433B43018102830384F0BD30B50246EC
:101CA000002000230024158A05EA0103958905EA2E
:101CB000010413B10CB1012000E0002030BD000090
:101CC00070B505460C46244885420ED0234885420F
:101CD0000BD0B5F1804F08D02148854205D021486E
:101CE000854202D02048854200D100E000BF208814
:101CF00050B92389A28861882846FFF73BFEE18816
:101D0000284600F0EDF825E0208804280AD1238930
:101D1000A28861882846FFF76DFEE188284600F01A
:101D2000E8F817E0208808280AD12389A28861886A
:101D30002846FFF7ABFEE188284600F0E7F809E007
:101D40002389A28861882846FFF7E8FEE1882846B3
:101D500000F0E5F870BD0000002C014000340140A7
:101D60000004004000080040000C004000210180F9
:101D70004180012181800021C180018170471AB119
:101D800083890B43838102E083898B43838170477E
:101D900070B5002400220023058C4FF6FE763540F6
:101DA0000584028C8388048B4FF68F752C40B51EFA
:101DB0002C400D882C43751E2A400D892A434D88DE
:101DC0002A43144DA8420BD0134DA84208D0134DFE
:101DD000A84205D0124DA84202D0124DA84213D1FC
:101DE0004FF6F7752A404D892A434FF6FB752A4076
:101DF0008D882A434FF6FF652B404FF6FF552B4049
:101E00008D892B43CD892B4383800483CD888586A0
:101E1000028470BD002C01400034014000400140AC
:101E200000440140004801400A460021018B4FF662
:101E3000F7731940114301837047000070B5002209
:101E400000230024058C4EF6FF7635400584038C74
:101E50008488828B48F6FF752A404FF6FF452A405A
:101E60000D884FF6FF7606EA05252A434DF6FF75E5
:101E70002B400D8906EA05352B434D8806EA0535CA
:101E80002B430B4DA84202D00A4DA84208D14BF675
:101E9000FF752C408D894FF6FF7606EA85152C4399
:101EA00084808283CD88A0F84050038470BD0000F8
:101EB000002C0140003401400A460021818B4FF282
:101EC000FF7319404FF6FF7303EA0223194381831E
:101ED000704781867047A0F8401070478184704732
:101EE000028B4FF6F3731A400283028B0A4302837C
:101EF0007047028B4FF2FF331A400283028B4FF67A
:101F0000FF7303EA01231A4302837047828B4FF663
:101F1000F3731A408283828B0A4382837047828BD9
:101F20004FF2FF331A408283828B4FF6FF7303EA2E
:101F300001231A4382837047002202881D4B984276
:101F40000ED01D4B98420BD0B0F1804F08D01B4BE8
:101F5000984205D01A4B984202D01A4B984204D1AD
:101F60004FF68F731A404B881A43174B984207D08D
:101F7000164B984204D04FF6FF431A40CB881A43C1
:101F800002808B8883850B8803850A4B98420BD08F
:101F9000094B984208D00E4B984205D00D4B984201
:101FA00002D00D4B984201D10B7A03860123838224
:101FB00070470000002C0140003401400004004044
:101FC00000080040000C00400010004000140040D9
:101FD0000040014000440140004801404FF6FF71BD
:101FE000818000210180C180418001727047000022
:101FF00010B540F22551054800F016F828B1FEF75B
:102000008FFC40F22550FEF7A3FC10BD00380140C4
:1020100021B1828942F40052828104E082894DF626
:10202000FF731A408281704770B502460024002376
:102030000025002040F66A16B14200D100BFC1F36E
:10204000421501F01F03012606FA03F3012D02D108
:102050009689334006E0022D02D1168A334001E012
:10206000968A33400C12012606FA04F4168834408E
:1020700013B10CB1012000E0002070BDF0B50346A3
:10208000002400260025002040F66A17B94200D13E
:1020900000BF1846C1F3421401F01F06012707FADA
:1020A00006F5012C01D10C3004E0022C01D11030D6
:1020B00000E014301AB107682F43076002E0076898
:1020C000AF430760F0BD00002DE9F04786B005463C
:1020D0000E460024A24600BFA1460027B08900B1E9
:1020E00000BF2F462C8A4CF6FF700440F088044352
:1020F0002C82AC894EF6F3100440B0883189084335
:10210000718908430443AC81AC8A4FF6FF40044018
:10211000B0890443AC8201A8FFF7E2FA1F48874266
:1021200002D1DDF810A001E0DDF80CA0A88900F4D0
:10213000004040B10AEBCA0000EB0A1031684900C8
:10214000B0FBF1F807E00AEBCA0000EB0A103168B7
:102150008900B0FBF1F86420B8FBF0F0040120091D
:10216000642101FB1089A88900F4004040B13220AD
:1021700000EBC900B0FBF1F000F00700044308E0F9
:10218000322000EB09106421B0FBF1F000F00F00E9
:1021900004432C8106B0BDE8F08700000038014000
:1021A00001468888C0F308007047C1F308028280A6
:1021B000704700BFFEE7490050EAC12018BF042065
:1021C0004A0D18BF40F0010040F2FF72B2EB515FC0
:1021D00008BF40F00200012808BF052070472DE924
:1021E000F0414F1E00EBC7010446D1E9000115463E
:1021F0001E4637F006020DD02A463346FEF735F963
:102200007F1E04EBC703D3E90023FEF787F837F0FE
:102210000602F1D1022F25D0042F13D0062F18BFAC
:10222000BDE8F0812A463346FEF71FF9D4E90A23B8
:10223000FEF774F82A463346FEF717F9D4E9082367
:10224000FEF76CF82A463346FEF70FF9D4E9062369
:10225000FEF764F82A463346FEF707F9D4E904236B
:10226000FEF75CF82A463346FEF7FFF8D4E902236E
:10227000FEF754F82A463346FEF7F7F8D4E9002370
:10228000BDE8F041FEF74AB80122FEF72FBBFEF78A
:1022900045B80000024A00201107FEF727BB0000E6
:1022A00001FDFFFF02E008C8121F08C1002AFAD191
:1022B00070477047002001E001C1121F002AFBD1C6
:1022C000704700002DE9F041002400250026124847
:1022D000016812480068FDF7ABFF0446104801682A
:1022E0002046FDF7ABFF0746FEF7BFF905B20D48E4
:1022F000B0F90000FEF79AF980460B4801684046A5
:10230000FDF79CFF0746FEF7B0F906B2A81900B228
:1023100006490880BDE8F081B800002030000020A8
:1023200038000020360000203C000020340000204F
:102330002DE9F84F04460D4621F000400091734905
:10234000814211DC7249884201DC06D12CB1204661
:102350002946BDE8F84FFFF797BF6E48002DCCBF68
:102360006D496E49BDE8F88F6D49814211DD6D49B7
:102370008142D8BF4FF0FF366DDD20462946FFF77A
:102380001AFF042808BFFFF785FF20462946BDE84D
:10239000F88F6549654F25F00045814233DD64497A
:1023A000814219DD002632464FF0804320462946FF
:1023B000FDF7B4FF80468A46012220462946FEF7F3
:1023C00095FA00223B46FEF74AF842465346FEF78E
:1023D000BEF804460D463EE001260022BA463B46C2
:1023E00020462946FDF79AFF80460F4600225346B5
:1023F00020462946FEF733F842463B46FEF7A7F84B
:1024000004460D4627E04B4981421BDDDFF828A139
:1024100002260022534620462946FEF726F80022CF
:102420003B46FDF77BFF80460F4600225346204681
:102430002946FEF714F842463B46FEF788F8044664
:102440000D4608E0032622462B4600203B49FEF7B6
:102450007EF804460D4622462B4610461946FEF7E6
:1024600004F88B46824602460B46FDF7FEFF074600
:102470000246334888460B4606217844FFF7AFFEF4
:1024800052465B46FDF7F1FF82462E488B463A46A0
:10249000434605217844FFF7A2FE3A464346FDF73E
:1024A000E4FF02460B46002E504659460CDAFDF773
:1024B00035FF22462B46FDF7D8FF01B022462B46BA
:1024C000BDE8F04FFDF7CEBFFDF728FF22462B46B3
:1024D000FDF7CBFF1C4A7A4402EBC603D3E9002385
:1024E000FDF7BDFF22462B46FDF7B9FF174A7A4498
:1024F00002EBC603D3E90023FDF7B4FF009A002ADC
:10250000B8BF81F00041BDE8F88F00000000104422
:102510000000F07F182D4454FB21F93FFB21F9BF47
:102520000000DC3F0000203E0000F33F0000F03FD1
:102530000000E63F008003400000F83F0000F0BFCD
:102540009A80000058800000F67F0000BE7F0000E7
:102550002DE9F04D9446CCF1000423F000464CEAFE
:102560000404524F46EAD4749A46884621F0004249
:10257000BC4206D8454240EA050442EAD474BC4253
:1025800004D9BDE8F04D6246FFF781BEAAF140557F
:10259000A5F17F6555EA0C040BD0022404EAAA7465
:1025A000434DDFF810E144EAD87452EA000B04D03E
:1025B0000CE0BDE8F04DFFF7BBBE002C14BF012CB2
:1025C000BDE8F08D022C30D0032C32D056EA0C0B33
:1025D0000AD0BE4220D1BA4209D126F0804622F06C
:1025E00080423346114617E000291ADB25E0DFF868
:1025F000C8B0FB44002C04BFDBE90001BDE8F08D4E
:10260000012C02BFDBE9000181F00041BDE8F08D43
:10261000022C0AD0032C0CD0BA4212D1B8F1000F10
:102620000BDA23482549BDE8F08D28462449BDE84A
:10263000F08D28467146BDE8F08D1D482149BDE862
:10264000F08D921B12153C2AC4BF19481D490EDC9F
:10265000BAF1000FBEBF12F13C0F0020014606DBAD
:102660006246FDF774FF21F00041FFF761FE002C88
:1026700008BFBDE8F08D012C04BF81F00041BDE82A
:10268000F08D114A114B022C07D0FDF7E8FE2A46C7
:10269000BDE8F04D0A4BFDF7E2BEFDF7E0FE2A462D
:1026A000BDE8F04D064BFDF7DDBE00000000F07FF9
:1026B000182D4454FB2109C0527F0000FB21F9BFB3
:1026C000FB210940FB21F93F075C143326A6A13CFE
:1026D0000EB501210846FEF7E3FF01210420FEF7B5
:1026E000EFFF0320ADF8080004208DF80B0002A9CD
:1026F0004048FEF7B1F96846FFF770FC0020ADF8DE
:1027000000004FF6FF70ADF804000020ADF80600A1
:10271000ADF8020069464FF08040FFF70DFC002342
:102720001A4603214FF08040FFF797FA6846FFF7FB
:102730001DFB0A20ADF8080069464007FFF7C0FA04
:1027400001218807FFF768FA012211469007FFF779
:1027500016FB00214FF08040FFF7C0FB01218807E6
:10276000FFF760FA01210420FEF79AFF01210820FB
:10277000FEF7A6FFC020ADF8080004208DF80B007E
:1027800002A91D48FEF768F96846FFF727FC0020FC
:10279000ADF800004FF6FF70ADF804000020ADF872
:1027A0000600ADF8020069461448FFF7C5FB002398
:1027B0001A4603211148FFF750FA6846FFF7D6FA88
:1027C0000A20ADF8080069460C48FFF779FA0121A4
:1027D0000A48FFF721FA012211460848FFF7CFFA0D
:1027E00000210648FFF77AFB01210448FFF71AFA97
:1027F0000EBD000000080140000C01400008004030
:102800001CB501210820FEF75BFF01210846FEF7F9
:1028100057FF2020ADF8040048208DF8070001A9DB
:102820001248FEF719F92020009000208DF80400CE
:102830000C208DF8050001208DF806006846FEF793
:10284000A1F805210120FEF7E7F817208DF8040014
:1028500002208DF8050003208DF8060001208DF878
:10286000070001A8FEF78EFD1CBD0000000C014012
:1028700008B501210420FEF723FF01210846FEF7D9
:102880001FFF01210748FEF773F94FF40040ADF830
:10289000000048208DF8030069460348FEF7DCF885
:1028A00008BD0000000230000008014008B5012109
:1028B0000420FEF705FF01211020FEF701FF4FF471
:1028C0000050ADF8000010208DF8030003208DF8B3
:1028D000020069460548FEF7BFF84FF48050ADF896
:1028E000000069460248FEF7B7F808BD0010014035
:1028F0000008014008B501210820FEF7E1FE4FF471
:102900007040ADF8000010208DF8030003208DF812
:10291000020069460148FEF79FF808BD000C01401F
:1029200010B5FFF7E7FF01214FF4E15000F004F884
:10293000FFF7CEFE10BD000030B589B005460C464D
:102940000121C802FEF7BCFE01210420FEF7B8FEFB
:102950004FF41060ADF8200018208DF823000320FC
:102960008DF8220008A91E48FEF776F8681E80B28E
:10297000ADF81800601E80B2ADF814000020ADF86C
:102980001A00ADF8160005A91648FFF7D5FA602021
:10299000ADF804000120ADF806000020ADF80A00F3
:1029A000ADF80C0001A90F48FFF7F2F901A90D4895
:1029B000FFF744FA01210B48FFF740F908210948C5
:1029C000FFF732FA08210748FFF776FA0121054898
:1029D000FFF716F901210348FFF724F909B030BDCC
:1029E00000080140002C01403EB505460C4601217F
:1029F0000220FEF755FE681E80B2ADF80400601E8E
:102A000080B2ADF800000020ADF80600ADF802007D
:102A100069460E48FFF790FA1D208DF80800032044
:102A20008DF8090000208DF80A0001208DF80B00B8
:102A300002A8FEF7A7FC012211460448FFF79FF900
:102A400001210248FFF7EEF83EBD000000040040FF
:102A50001FB50446012144F20400FEF731FE4FF495
:102A60000070ADF80C0003208DF80E0018208DF8D2
:102A70000F0003A91B48FDF7EFFF4FF48060ADF88E
:102A80000C0004208DF80F0003A91648FDF7E4FFA1
:102A900025208DF80C0003208DF80D008DF80E0018
:102AA00001208DF80F0003A8FEF76CFC00940020B5
:102AB000ADF80400ADF80600ADF80800ADF80C0064
:102AC0000C20ADF80A0069460748FFF7FDFA01221D
:102AD00040F225510448FFF7D1FA01210248FFF7DF
:102AE00097FA1FBD00080140003801402DE9FC5F46
:102AF0004348007808B9012000E0002040490870F0
:102B000008460078012854D13E4A3F493F48FEF725
:102B1000BBFA3F4A3F494048FEF78EFA3C48B0F9BD
:102B20000000FDF791FD06460F463B48B0F9000056
:102B3000FDF78AFD804632463B46FFF709FD044615
:102B40000022364BFDF791FC8246354A354BFDF7A6
:102B5000FEFCCDE90001FDF7A1FD00B22D49088082
:102B60002948B0F90000304908802748B0F9000032
:102B7000FDF76AFD06464FF066322C4BFDF7E7FC89
:102B80000446FDF78BFD00B21F4908800846B0F9E6
:102B900000004042FDF74AFD04461E48B0F900001F
:102BA000FDF744FD05462146FEF70AF90020BDE881
:102BB000FC9FFFF787FB00F0D5F900F079FA1C487D
:102BC00000881C49098808441B490988084400B248
:102BD0001A49088016480088164909880844164989
:102BE0000988401A00B2164908800846B0F900105A
:102BF0001248B0F9000000F019F90020D7E70000F2
:102C000060000020C0000020BE000020BC000020AA
:102C1000C6000020C4000020C200002000806640E2
:102C20001F85EB51B81E0940360000206666304013
:102C30003400002048000020540000202C00002018
:102C40002E00002010B56FF00400FEF74DFE0A487C
:102C500000680A49B0FBF1F009490870084600789D
:102C600000EB4001C1EBC0104FF6FF7101EAC0005C
:102C70000449088010BD00000000002000127A0006
:102C8000280000202A0000200146114A12884A43E9
:102C90004FF0E0235A6100229A611A46126942F00D
:102CA00001021A6100BF4FF0E022106900F001023A
:102CB0001AB100F48032002AF5D04FF0E0221269F8
:102CC00022F001024FF0E0231A6100229A6170475E
:102CD0002A0000200146114A12784A434FF0E023AF
:102CE0005A6100229A611A46126942F001021A6181
:102CF00000BF4FF0E022106900F001021AB100F4A9
:102D00008032002AF5D04FF0E022126922F0010251
:102D10004FF0E0231A6100229A61704728000020DA
:102D200010B50446204600F0FDF90121204600F0D0
:102D3000F0FA0021204600F0E9FA2149204600F08F
:102D4000D5FA20A314220021204600F097FA012191
:102D5000204600F0DBFA1C49204600F0C7FA1BA30E
:102D600008221521204600F089FA0021204600F0B3
:102D7000CDFA1549204600F0B9FA15A31E223321D9
:102D8000204600F07BFA13A31E224321204600F0C8
:102D900075FA0021204600F0B9FA0F49204600F0EC
:102DA000A5FA0EA31E224621204600F067FA20460F
:102DB00000F093FA4FF47A70FFF766FF10BD000041
:102DC00028460008550000004C8D0008380000001F
:102DD00067000000B20000009D6800083132330037
:102DE0004FF4A060FEF706FB4FF4E130FFF730FE32
:102DF000FFF728FFFFF75AFDFFF702FD482141F2D8
:102E00008830FFF7F1FDFFF733FDFFF789FDFEF78F
:102E100097F9FEF711FB044800F06AF902E0024856
:102E2000FFF77EFFFBE70000CC0000202DE9F0411A
:102E300005460C462846FDF707FC064600222F4BA8
:102E4000FDF764FC02D24FF4B45509E02846FDF7C3
:102E5000FBFB064600222A4BFDF740FC00D2294D21
:102E60002046FDF7F1FB06460022244BFDF74EFC01
:102E700002D24FF4B45409E02046FDF7E5FB0646C4
:102E800000221F4BFDF72AFC00D21E4C002D0BDD4B
:102E900001201D49086000201C49C1F8B401A9B2F5
:102EA0001B48FFF718F80BE00020174908600120C5
:102EB0001649C1F8B401684281B21548FFF70BF812
:102EC000002C0CDD002010490831086001200F495A
:102ED000C1F8BC01A1B20E48FEF7FBFF0CE00120D7
:102EE00009490831086000200849C1F8BC01604266
:102EF00081B20748FEF7EDFFBDE8F0810080B640E3
:102F00000080B6C080E9FFFFB081214200802142ED
:102F1000002C01400146022904D003290BD00429CA
:102F200017D10FE04FF08042928C10B200224FF088
:102F300080439A840FE0094A128810B20022074B9E
:102F40001A8008E0064A128810B20022044B1A8048
:102F500001E0002000BF00BF7047000024040040D3
:102F6000240800402DE9F05F0024454D002600278D
:102F70000220FFF7CFFF404200B242490880042000
:102F8000FFF7C8FF00B2404908803E480088098822
:102F9000084400B23D4908803D49B1F900103B4A60
:102FA000B2F90020881AFDF741FB04463948B0F910
:102FB0000000FDF73BFB83462946FDF73FF98146BC
:102FC00029464FF07E50FDF733F983462146FDF741
:102FD00035F982464946FDF7D9F88046FDF745FBAD
:102FE00000B22D4908800846B0F900002949088040
:102FF0002A48B0F90000FDF719FB81462146FDF78C
:10300000C5F88046FDF731FB00B224490880084628
:10301000B0F9000042F21071884202DD08461F49F3
:1030200008801E48B0F900001D49884203DA4DF6B9
:10303000F0001A4908801848B0F90000FDF7F6FAC8
:103040008146184801684846FDF7F8F88046FDF7C4
:103050000CFB06B21148B0F90000FDF7E7FA814613
:10306000114801684846FDF7E9F88046FDF7FDFA8A
:1030700007B2F01900B20D490880BDE8F09F0000CA
:10308000CDCC4C3F400000204200002046000020F4
:103090004400002064000020620000206600002040
:1030A000F0D8FFFF4C000020500000204800002016
:1030B0002DE9F0410024002500BF0A48B0F90000C6
:1030C000FDF7B4FA0746084801683846FDF7B6F838
:1030D0000646FDF7CAFA05B2601900B20349088036
:1030E000BDE8F081C00000205C00002054000020FA
:1030F00010B50446084B094A0949204600F050F92A
:10310000204600F050FF0021204600F05EFF2046E0
:1031100000F008F810BD0000ED4400085940000818
:103120000CA3000870B504462068057C94F83800AC
:103130004543ED002946606BFDF71DF870BD2DE994
:10314000F04104460D4616461F467020005D30B122
:1031500001280AD002280ED0032818D111E02046F9
:10316000E16D8847304486B211E02046E16D884722
:10317000281A85B20BE02046E16D8847301A86B2E6
:1031800005E02046E16D8847284485B200BF00BFB6
:103190003B4632462946204600F065FCBDE8F081FA
:1031A0007FB582B004460A9D94F88C00002863D055
:1031B000BDF8140000285FD0BDF8140001281CDD04
:1031C000022D0CD1BDF80C00BDF81410401A80B2CD
:1031D0000390BDF80C00401C80B203900DE0032D5D
:1031E0000BD1BDF81000BDF81410401A80B2049045
:1031F000BDF81000401C80B2049005F00105C5B96F
:10320000B4F84C00BDF81010884201DD06B070BD66
:10321000B4F84E00BDF81010884200DCF6E7B4F8B0
:103220004A30B4F8482005A903A800F086F9C0B9CF
:10323000ECE7B4F84800BDF80C10884200DDE5E783
:10324000B4F84A00BDF80C10884200DCDEE7B4F8A0
:103250004E30B4F84C2005A904A800F06EF900B96E
:10326000D4E70095206BBDF81430BDF81020BDF8F0
:103270000C1086682046B04700BFC7E72DE9F04133
:1032800004460D4616461F46044860603B463246DB
:103290002946204600F050FABDE8F081474000087A
:1032A0002DE9F04104460D4616461F46DDF818800C
:1032B000B4F84E10B4F84C004346324600F069FCB6
:1032C00010B90020BDE8F081B4F84A10B4F8480005
:1032D0003B462A4600F05DFCF4E710B50446204664
:1032E00000F05EFD204600F067FE10BD70B504469C
:1032F0000D46A06DA84208D0A565294604F17400CA
:1033000000F0DEFC204600F06DF870BD7022115414
:1033100070476D22115470470149C1657047000024
:10332000C937000810B50446002030342084A0843A
:103330004FF6FF706084E08454F8300941682046FD
:10334000884710BD2DE9F04104460D4616461F463C
:10335000DDF818800020A065E762656384F83860B6
:1033600084F8390000216D20015500207434607705
:1033700060760120A077E07744F8448C54F8440C40
:10338000743C0168204688472046FFF7CBFF204663
:10339000FFF7C2FF002170200155BDE8F081000059
:1033A0002DE9FC4107460C4615461E462B460A4AA7
:1033B0000A493846009600F012FE01A800F078FC99
:1033C0008046074B00949DF8042041463846FFF79D
:1033D000B9FFBDE8FC810000B74100087143000857
:1033E000C33B0008816D01B970478121095C80F8F9
:1033F0008E108221095C80F88F1090F88D1099B39F
:1034000090F88D10012914D190F98E2090F9831035
:103410008A4203DA8321095C80F88E1090F98F20AC
:1034200090F984108A421FDD8421095C80F88F1096
:103430001AE090F97E2090F98010114490F98E20C6
:10344000914207DD7E210A5C8021095C114449B26A
:1034500080F88E1090F98F2090F980108A4203DD59
:103460008021095C80F88F1000BFBDE710B523B143
:10347000012B05D0022B09D105E04418A0B208E0C9
:10348000841AA0B205E0441AA0B202E08418A0B2E7
:1034900000BF00BF10BD10B523B1012B05D0022B1A
:1034A00009D105E08418A0B208E04418A0B205E0F4
:1034B000841AA0B202E0441AA0B200BF00BF10BD3F
:1034C00038B504465034E08800906388A28834F808
:1034D00050192046FFF7E4FE18B9002084F88C004C
:1034E0002AE0012084F88C00B4F84800B4F85010A9
:1034F000884203DAB4F85000A4F84800B4F84A004F
:10350000B4F85210884203DDB4F85200A4F84A001F
:10351000B4F84C00B4F85410884203DAB4F85400FC
:10352000A4F84C00B4F84E00B4F85610884203DDFD
:10353000B4F85600A4F84E0038BD70B505460E46E6
:10354000144629880A463088104482B2914206DD2A
:10355000994203DA1A46501E82B200E0214699428F
:1035600001DB002070BDA24201DC0020FAE7A1428D
:1035700000DA21469A4200DD1A462980501A82B2AA
:1035800032800120EEE72DE9F84304460E46154649
:103590001F46DDF82080E08F281A85B2CDF8008024
:1035A0003B462A4631462046D4F82CC0E047BDE8C9
:1035B000F8832DE9F84305460E4691461F46DDF88F
:1035C0002080B5F84440A01B84B208F0010010B977
:1035D000E01B84B201E0601E84B23B464A462146AD
:1035E0002846CDF80080FFF7CEFFBDE8F8832DE92F
:1035F000F84304460D4616461F46DDF820803B463C
:10360000324629462046CDF80080FFF7BCFFBDE8D2
:10361000F8832DE9F84F06460F46904699460A9DD5
:10362000BA46B6F84640A4EB080084B2601E84B2E5
:10363000681CC5B2022D05D1A4EB090084B2601C40
:1036400084B200254B465246214630460095FFF78E
:103650009AFFBDE8F88F2DE9F84F06468946924655
:103660001F46DDF82880B6F84650A5EB0A0085B263
:10367000B6F84440A4EB090084B2B8F1000F04D1BD
:10368000681E85B2E01B84B206E0B8F1010F03D1D9
:10369000601E84B2E81B85B23B462A46214630466E
:1036A000CDF80080FFF76FFFBDE8F88F2DE9F84FE8
:1036B00005460E4617469846DDF82890BA46B5F8F6
:1036C0004440A01B84B2B9F1000F09D1601E84B23E
:1036D000A4EB080084B2601C84B24FF0010903E03F
:1036E000601E84B24FF000094346224651462846E8
:1036F000CDF80090FFF747FFBDE8F88F2DE9F843BC
:103700000546894616461F46DDF82080B5F8464036
:10371000A01B84B208F0010010B1E01B84B201E0EC
:10372000601E84B23B46224649462846CDF80080BA
:10373000FFF729FFBDE8F8832DE9F04706460F465D
:1037400090469946304600F06BFF4FF0000A00BFEC
:1037500099F8001030467268904705464FF6FF71A1
:103760008D4200D12CE009F101094FF6FE7085422F
:10377000EED02B46424639463046FFF7E0FC044681
:103780007020805D30B1012807D002280AD00328BC
:1037900010D10AE0381987B20CE008EB04001FFAD8
:1037A00080F807E0381B87B204E0A8EB04001FFA9A
:1037B00080F800BF00BF0AEB04001FFA80FAC7E7D9
:1037C00000BF5046BDE8F087014600207047F0B5C5
:1037D00007460C462146384600F00BF845B2012654
:1037E000601EC4B206FA04F046B2A81B45B22846D1
:1037F000F0BD70B502460C46117B1568287808416B
:103800000B461D19EBB2082B0EDB08256E1AF5B21C
:103810001668761C166016683678AE400643F0B21D
:10382000A3F10806F3B200BF0125A5406D1E284094
:10383000137370BD2DE9F34F85B0054605F16004A3
:103840002846069900F085F995F96B607A20415D6C
:103850002046FFF7BCFF02907B20415D2046FFF72A
:10386000B6FF83467C20415D2046FFF7B0FF019004
:1038700094F90A00002871DD237C06EB0B01494214
:103880004AB2A0880299FFF7F1FDA080237C06EBE5
:103890000B0149424AB2E0880299FFF7FCFDE08043
:1038A000A788B4F80680B946C246207C30B101280A
:1038B0000ED002281AD0032842D12EE094F90A0033
:1038C00048441FFA80F90AEB06001FFA80FA37E035
:1038D000B81B87B2781C87B209F101001FFA80F982
:1038E00094F90A0050441FFA80FA29E094F90A007A
:1038F000381A87B2781C87B209F101001FFA80F9E3
:10390000A8EB06001FFA80F808F101001FFA80F802
:103910000AF101001FFA80FA12E009EB06001FFA13
:1039200080F994F90A00A8EB00001FFA80F808F16A
:1039300001001FFA80F80AF101001FFA80FA00BFA7
:1039400000BF4B46424639462846CDF800A0FFF757
:10395000A7FC20B9019807B0BDE8F08F29E000204E
:103960002072607200BF7620415D2046FFF741FF64
:1039700004907720415D2046FFF73BFF039000BF96
:1039800000222846049900F016F8012228460399DF
:1039900000F011F801212046FFF72BFF0028EFD19E
:1039A00094F90900B042DEDB00BF00BFA07B85F8C0
:1039B00092000198CFE72DE9FF5F80468A46934643
:1039C00008F160045546277A94F8099000BFA67A5A
:1039D000F01BC6B20396B54200DA0395A0880290A8
:1039E000E0880190237C4FFA89F279B20298FFF7C0
:1039F0003DFD0290237C4FFA89F279B20198FFF7DE
:103A00004AFD0190BBF1000F0BD0A07B88F892001B
:103A1000207C00904046DDE90213019AFFF7C0FBCD
:103A20000CE0607B50B9E07B88F89200207C00902D
:103A30004046DDE90213019AFFF7B2FBB54200DA16
:103A400007E0A81BC5B2002709F1010000F0FF093B
:103A5000BDE700BF7819C7B278B220724FFA89F07B
:103A60006072BDE8FF9F2DE9F04704460D461646FB
:103A70001F464FF00009642005536620065339465F
:103A8000204600F011F88046B8F1000F05D04146FD
:103A90002046FFF7CFFE1FFA80F94846BDE8F087C1
:103AA00002460A44107870472DE9F04107460D465A
:103AB000BC6D1734FF2D18DC612D03DB8820C05B43
:103AC000044404E0412D02DB8620C05B044400BFB7
:103AD000607800B908E02078A84202D1A01CBDE8B7
:103AE000F08160780444F3E725E08A20C05B044459
:103AF000A04600BF0021404600F01FF80444022108
:103B0000404600F01AF8064608F10408AE42F1DB20
:103B100000BF26784FF6FF7000EA0626607806435D
:103B200006B906E0AE4201D1E01CD8E7A078044413
:103B3000EFE700BF00BF0020D1E702460A4410783B
:103B4000521C4FF6FF7303EA00201378034498B227
:103B5000704770B505460E4605F1600426600020EA
:103B600020737820415D2046FFF743FE40B2A072EB
:103B70007920415D2046FFF73CFE40B2E07295F8A7
:103B80009200A073A07B08B9012000E00020E07340
:103B900070BD10B504468A4209DAA34201DD012056
:103BA00010BD9A4201DD0120FAE70020F8E7A342A8
:103BB00005DD9A4201DD0120F2E70020F0E7002058
:103BC000EEE72DE9F04704468946DDF82080D1B2C2
:103BD00001F00701012606FA01FA0AF0FF060027A4
:103BE000BC4694F892A0BAF1010F00DC374694F875
:103BF00092A0BAF1010F00D0B446154625F0070592
:103C0000D4F800A09AF810A00AFB05FA1FFA8AF56A
:103C1000606B28444844B8F1000F14D100BF90F8FD
:103C200000A04AEA070A80F800A090F800A08AEAFB
:103C30000C0A80F800A0401CA3F1010A1FFA8AF3C5
:103C4000002BECD132E000BF90F800A04AEA070A4E
:103C500080F800A090F800A08AEA0C0A80F800A082
:103C600001F1010A0AF0FF0101F00701A3F1010AC5
:103C70001FFA8AF381B9B4F83AA0504494F892A09C
:103C8000BAF1010F00DC012794F892A0BAF1010FFC
:103C90000AD04FF0010C07E04FEA476A4FEA1A6773
:103CA0004FEA4C6A4FEA1A6C002BCDD1BDE8F08781
:103CB0000146082008700148704700007007002086
:103CC00070B504460D4600212846FFF7E9FE207036
:103CD00001212846FFF7E4FE607002212846FFF725
:103CE000DFFEA07003212846FFF7DAFEE070042112
:103CF0002846FFF7D5FE207105212846FFF7D0FEA4
:103D0000607106212846FFF7CBFEA07107212846E7
:103D1000FFF7C6FEE07108212846FFF7C1FE2072BA
:103D200009212846FFF7BCFE40B260720A212846EE
:103D3000FFF7B6FE40B2A0720B212846FFF7B0FE97
:103D400040B2E0720C212846FFF7AAFE40B2207371
:103D50000D212846FFF7A4FE40B260730E212846CD
:103D6000FFF79EFE40B2A0730F212846FFF798FE92
:103D700040B2E07310212846FFF792FE40B2207453
:103D800011212846FFF7D9FE608213212846FFF74C
:103D9000D4FEA08215212846FFF7CFFEE08270BD39
:103DA0002DE9F0410446002594F8387094F8396004
:103DB000206890F8118000BF32462946204600F066
:103DC0000AF8681CC5B2701CC6B2BD4201DA46458D
:103DD000F2DBBDE8F0812DE9F84305460E46914639
:103DE000286890F8108034466F6B04FB08F084B2AA
:103DF0004FF6FF7000EAC404274443464A460021B8
:103E00002846009700F0B6F8BDE8F88310B51A30E0
:103E100050F81A2C817F4FF6FF7303EAC1014184E9
:103E2000117C03EAC1010184C17F03EAC1018184DD
:103E3000817FC37F1A380B44547CA34204DD537C3A
:103E400090F839401B1B99B24FF6FF7303EAC1018A
:103E500030F83E3F43804388838083880B448380CF
:103E6000938AC380D38A03813E3810BD10B50446BF
:103E70002046FFF7CBFF10BD10B504462046FFF7E4
:103E8000C5FF2068808AA4F846002068C08AA4F88C
:103E9000440010BD10B504462046FFF7B7FF10BD23
:103EA00010B504462046FFF7B1FF2068808AA4F8C9
:103EB00046002068C08AA4F8440010BD10B504462E
:103EC000002040342081A08860812088A081608803
:103ED000E081403C2046FFF7F3FA10BD10B50446E0
:103EE00034F8400F2081608860810020A081E08844
:103EF000E081403C2046FFF7E3FA10BD10B50446D0
:103F000000204234E0806088208100206081A08809
:103F100034F84219884205DB4234A0882188401ACF
:103F20006081423C4034E0882188401AE081403C76
:103F30002046FFF7C5FA10BD10B5044600204234F4
:103F4000E080608834F84219884205DB423460889A
:103F50002188401AE080423C4034A0882188401AE1
:103F600060810020A081E088E081403C2046FFF78E
:103F7000A7FA10BD2DE9FC4104460D4616461F4622
:103F8000DDF820808DF805508DF806608DF80470FE
:103F9000CDF800806B4601220F212046D4F808C0DE
:103FA000E047BDE8FC8170B5044600231A460A21AB
:103FB0002046A568A84770BD70B5044600231A4680
:103FC00010212046A568A84770BD70B504460D466F
:103FD00000232A460B212046A668B04770BD2DE974
:103FE000F04104460D4617461E46DDF8188020466F
:103FF00000F00AF8A560E7602661C4F81480204646
:1040000000F018F8BDE8F0810021016008498160E6
:10401000C16001614161002180F8231080F8261001
:104020008161FF2180F8241080F82810704700007B
:10403000C944000870B5044600231A4609212046E9
:10404000A568A84770BD024609B10A2902D14FF6FA
:10405000FF7070470846FCE72DE9F84F04460F460D
:10406000154698462068007B00F0010BCBF101005B
:104070000090182F5BD004DC142F43D0172F75D17C
:1040800004E0192F62D0202F70D14AE0464636E076
:1040900096F800A0761C681EC5B24FF000092BE010
:1040A0000AF0800028B101224121204600F010FAD8
:1040B00004E000224121204600F00AFA4FEA4A605B
:1040C0004FEA106A40212046009A00F001FA206869
:1040D00082792C21204600F0FBF95A4640212046E7
:1040E00000F0F6F92068C2792C21204600F0F0F9A2
:1040F00009F1010000F0FF09B9F1080FD0DB002D34
:10410000C6DC36E0206842784921204600F0E0F91C
:104110002068007B00F001024021204600F0D8F921
:1041200027E02A464A21204600F0D2F921E0206803
:1041300002784921204600F0CBF9206882780023DC
:104140002C212046D4F814C0E04712E02068C27841
:1041500000232C212046D4F814C0E0472068427880
:104160004921204600F0B4F903E0FFE70020BDE854
:10417000F88F00BF0120FAE713B5044601AA012118
:10418000204600F001F81CBD2DE9F04104460D4623
:10419000164633462A46172120462769B847BDE808
:1041A000F08170B504460D4600232A4620212046A2
:1041B0002669B04770BD2DE9F04104460D4616460C
:1041C0001F46A5F11400062826D2DFE800F01A03E6
:1041D0000C151B1C00212046FFF7E3FF314620464B
:1041E000FFF7CAFF1AE000212046FFF7DAFF314649
:1041F0002046FFF7C1FF11E001212046FFF7D1FF64
:1042000000BF00BF00BF3B46324629462046D4F8D7
:1042100010C0E047BDE8F0810020FBE700BF0120AF
:10422000F8E770B5044600231A4619212046E568D0
:10423000A84770BD70B504460D4600232A461621D6
:104240002046E668B04770BD70B504460D460023B1
:104250002A4615212046E668B04770BD2DE9F04199
:1042600004460D46164633462A4617212046E7687F
:10427000B847BDE8F081F8B505460C4600BF267882
:10428000641C182E21D006DC152E09D0162E08D05D
:10429000172E2CD110E0192E18D0FE2E27D11CE09D
:1042A00000BF2078009000239DF80020314628466A
:1042B000EF68B847641C1BE0207800906A46012133
:1042C0002846FFF7CBFF641C12E000BF00231A460C
:1042D00031462846EF68B8470AE0207800909DF8FC
:1042E00000202921284600F0F3F8641C00E0F8BD06
:1042F000C5E770B5044600231A4618212046E56834
:10430000A84770BD70B5044600231A4628212046F0
:104310006569A84700231A4614212046E568A84786
:1043200001224B21204600F0D3F820680279292190
:10433000204600F0CDF800224B21204600F0C8F8BE
:10434000206802792921204600F0C2F801224B2181
:10435000204600F0BDF8206842792921204600F06F
:10436000B7F870BD01600268927C80F82220704727
:104370002DE9F04105460C4616461F463B4632469F
:104380002146284600F01EF810B10120BDE8F0815A
:10439000092C09D00A2C0CD12846FFF7B3FF074996
:1043A0002846FFF768FF06E005492846FFF7DAFFD1
:1043B00001E00020EAE700BF0120E7E754A300087E
:1043C0007CA400082DE9F0470446884615461E46A1
:1043D000B8F10B0F09D0B8F10D0F11D0B8F10E0FD5
:1043E00021D0B8F10F0F60D12CE025B93249204619
:1043F000FFF741FF03E031492046FFF73CFF57E05C
:1044000045B92F492046FFF736FF2068807C84F8A5
:10441000220007E02B492046FFF72DFF2068C07CD3
:1044200084F8220044E02046FFF763FF8121204604
:10443000FFF70AFF29462046FFF7FCFE2046FFF75C
:10444000F0FE35E02046FFF754FF7779F806070EB7
:1044500094F822003844C7B240212046FFF7F4FE0A
:10446000102040EA27112046FFF7EEFE07F00F016B
:104470002046FFF7DFFEB07940F0B0012046FFF79D
:10448000D9FE00BF96F80490D6F800A04FEAC960A4
:10449000010E52462046FFF7E1FE681EC5B2002D10
:1044A000F0DC2046FFF7BDFE02E00020BDE8F0870B
:1044B00000BF0120FAE7000055A400085AA4000834
:1044C0005FA4000866A4000810B50446002010BDD3
:1044D0002DE9F04104460D46164600233246294692
:1044E00020466769B847BDE8F08100002DE9F0413A
:1044F00005460E4614461F463046492E48D00EDC6F
:104500002D2825D006DC29281ED02A2813D02B28B8
:1045100078D10EE040282DD0412873D11CE04A38D4
:104520000A286FD2DFE800F0424F6E6E6E6E5D615A
:10453000666A00BF6AE0002002E000BF411C88B24A
:10454000B0F5A07FF9DB61E00120FEF79DFB5DE0A7
:104550000520FEF7BFFB59E0012C04D1A1032D4833
:10456000FCF750FB05E024B94FF480412948FCF7E3
:1045700047FB4BE0012C04D1E1032648FCF742FB4A
:1045800005E024B94FF400412248FCF739FB3DE037
:10459000012C04D121022048FCF734FB05E024B9AA
:1045A0004FF480711C48FCF72BFB2FE0012C04D149
:1045B00010211A48FCF726FB04E01CB9102117480B
:1045C000FCF71EFB22E0012C04D161031148FCF72B
:1045D00019FB05E024B94FF400510E48FCF710FB1D
:1045E00014E0002085F8270010E0002085F827005F
:1045F0000CE007E0002085F8270007E0002085F8A0
:10460000270003E0012085F8270000BF00BF01203C
:10461000BDE8F0810010014000080140000C01409D
:10462000002180F826107047BF020504050601042A
:1046300006152600F918FA19F904E10AAE225820E5
:104640000BD51CF587FFFF7F17002119D51CF587B7
:10465000532316588BF417879CFB0011689E0D920C
:104660000F2F002224D51CF58743A28845065164EC
:1046700010450651641045065164104506516410FA
:104680004506F9F0FF13002343D51CF587EB838C17
:104690003506596390350659638C45C6380F8CF141
:1046A000C018171A83AC31C81A83AC31C62263A074
:1046B00007C478608C07C61964AC31C81A83AC3162
:1046C000061B632C32C622637C78243BD51CF587FD
:1046D0005B2412689A520C91900C11448843041187
:1046E000011141560984654D6B8925464259449014
:1046F000450431811041CA182490F240302EAD5645
:1047000022F56114002541D51CF587DBE410720AFF
:10471000298810A204294490500A112410E3100A99
:10472000049D4016110412582015956AA81D34489E
:1047300021810C524820831022C820848C4448399F
:104740008598F2E136002641D51CF587EBC621A6F7
:1047500054114411421221241142122163114118B3
:104760006AC799861A09848842061145904202193F
:10477000A42042CC21E494428C3145A4F2802869E3
:1047800090634AF8701B002710D51CF5875B429296
:10479000487F1FFE7F06002823D51CF5877B2396C4
:1047A000675C793548450A92487F9244124B24B1A0
:1047B0008A241A686289448A02002925D51CF58753
:1047C000BD210BB46215492C9148122949227D90D4
:1047D000440A125820058BB35E8143860F0E002ACF
:1047E00029D51CF5879F2591B6C6204398128628A7
:1047F000E40161DC2AD038C488208A0C920A21881E
:1048000098A1C2111F7E14002B18D51CF5875F20BC
:1048100091BEF580200F08F2805024D2F7E1770195
:104820002C15D51CF587FFFF9D110B34CFC0124905
:104830009C228963012D0ED51CF587FFCD67BE0F25
:10484000FF97002E11D51CF587FFFF2281E65990B6
:104850007CB805002F29D51CF58783818E4841122D
:10486000491C91C411294822812412482281241212
:104870004822812412482281448E0FDB003043D528
:104880001CF587FBC5A5B592092591420E31C510CF
:10489000530C29A610630A29231042C810849031B2
:1048A0000621648C41081183506114428E21A518A1
:1048B000628A21A618724821C80493D64AAE7C7831
:1048C0003116D51CF58717C8330D2DC548202C107F
:1048D00012E9FFBF0F0F3221D51CF587F3C625C59E
:1048E0005211E61043904024D2208904D25E05E99B
:1048F0002249C1FC3E9C063328D51CF587F3C5250B
:10490000C55211260953220D9276186AA8A558455A
:104910001A0A889C61C831C220A654331F5E003435
:104920002FD51CF587474624B07AC65D6D04C24872
:10493000206C08B2C6206B0CA20621891092462179
:10494000E881501E08E581E048A4F7E13A003525EA
:10495000D51CF587D3EE788744BAB8144B0D915225
:10496000CE3844924867C621861C624E38A7A5D52A
:10497000CC87073635D51CF587FBC5A5B59209054B
:10498000952212892352C1A8861A32A39C52C8A12B
:104990000C39C490430C39C4904319724821A9883A
:1049A00092D64AAE7C7801003721D51CF587D3EE2C
:1049B0007871441247A4E288248E48C511A9382290
:1049C0000549A42089E4C323003839D51CF587F3B1
:1049D000A629C552110591520E31E410430E31043F
:1049E0001142521164298618094511421031141AD6
:1049F00086205208228520528A21C708839852CDEA
:104A00007C783935D51CF587F3C5A5B59209259174
:104A1000420E31E450861C62C821861C624A29A7D6
:104A20000C731C6ACA0412A9382249A2905482410C
:104A30006CA5663E3C01003A16D51CF587FF1A812D
:104A4000E659907C788940F32C483EDC023B1CD52B
:104A50001CF587FF1A81E659907C7869C402CD3332
:104A6000B04412A748E29881013C1BD51CF5879FF2
:104A70000A72C0E20EBBE70A34F08206DE60896487
:104A80008A0F0F023D1BD51CF587BFFD80200F0844
:104A9000F280F830F880200F08F280F8F02F023E04
:104AA00019D51CF5872F073A6481E8E17B5633ED71
:104AB000B03B671E89E2C3073F25D51CF58753A588
:104AC00029C59011E6104390400405442205092CA5
:104AD000AF8254A43E240934CF82E4C3034043D5BB
:104AE0001CF587FBA629C59011E55085A451864188
:104AF0006410350659630C23C818A210328620852D
:104B00008C214821630842CA18A304338860648C4E
:104B100045C8288110224B3C8224A6163B1FAE03B9
:104B20004138D51CF58717C21C728A051668DC0847
:104B3000C38D301A09848D31D818449141D428434B
:104B400031D4903BE310430E3123114212214491A2
:104B500031161164910F9701423AD51CF587CB4B62
:104B600035E40E21C790530A41A410440A41A49091
:104B7000430C21C7B8D3D033E49442102924114206
:104B800012212411421221049142CA29CFB8C33EF6
:104B90009C07432AD51CF587FBA6A9D4CE11C614C1
:104BA000434A418490240C8124D24F92486241E2CE
:104BB0001443CC11E634A59AF9701E00443ED51C6E
:104BC000F587CB4B35E40E21C710530C39A51044A3
:104BD0000A41A490440849849044084984904408B8
:104BE000498490440849A310440A41A490430C31DD
:104BF000C510624E432CA90F2F004522D51CF58706
:104C0000CB0F84F240280F8442227DD11DEF9048C3
:104C1000BFF840280F84F240F8701A004616D51CE1
:104C2000F587D3CF7C8644FA62431D2291FEFBF0C8
:104C30000C004732D51CF587FBC525D58E19E550EC
:104C400085A061480A67447A051152102105119226
:104C5000082189148248218818728839C21C971447
:104C60003B1FCE034846D51CF587CB049142102943
:104C70000491421029049142102904914210290400
:104C8000914210290F84F240280F84421029049188
:104C900042102904914210290491421029049142A2
:104CA000102904914210F9701A004913D51CF58798
:104CB000D30D758D44FAFFC71AEA3E1C074A1CD56E
:104CC0001CF587EB2C718D44FAFF5430240D5250A3
:104CD0001145AD955CF9F006004B40D51CF587C336
:104CE0000415421029E410431D52082284243288FE
:104CF00022A22812CA4A0CB5C41223822C3288225E
:104D0000A324424822852052CA21A618728821A7CE
:104D100014820A21897C380D004C11D51CF587CBF3
:104D200024D2FFFFC567BE0FB7014D4ED51CF587D6
:104D3000C3630D4212212411524E21E514628A21CF
:104D4000A61872C621671C42C2140821610A841089
:104D50005104214414410819631042C618841012EA
:104D6000089508218910920821891092082189103C
:104D7000920821897C380D004E4DD51CF587CB0457
:104D800091421029E590520E29C690720A29A790E7
:104D9000820829240C420A09649042C418A41041D4
:104DA00015328620850C12482164045208418594EE
:104DB000538831851853C829859C52082285205272
:104DC000481A1F4E034F3BD51CF587F3A629C59003
:104DD00011E6104321520822842832882283283287
:104DE0008822832832882283283288228328428698
:104DF0001A8520520822863A4618C4946AE6C303EC
:104E00005029D51CF587CB2C35E40E29C690530AC2
:104E100041A410440A41A410440A39A59062CC333D
:104E2000EEB04422FDFBF00E005143D51CF587F394
:104E3000A629C59011E610530A41A41044CA506433
:104E40001045065164104506516410450651641022
:104E50004506516410450841A410440C31152988B9
:104E600029D50E1C92C4D4903B1F3800523ED51C4D
:104E7000F587CB2C35E40E21C790530A41A410448A
:104E80000A41A410440A39C490628C3B0DB1440815
:104E9000498490440A41A410440C39C414430E318F
:104EA000E49442102904950F97015330D51CF587DF
:104EB000FBA6A9D49011C614330E41E29048248970
:104EC00006A287DE8127124922314191221429034B
:104ED0009172C4310E31763E9C075416D51CF5876D
:104EE000C30F08F280200F884522FDFFDF871700DF
:104EF0005542D51CF587CB241142122124114212B0
:104F00002124114212212411421221241142122182
:104F1000241142122124114212212411421221246F
:104F2000114212210495420E316698D3D262E7C332
:104F30007900563BD51CF587C34491411419448D23
:104F4000421029041133D038E48C430C41C38C4403
:104F5000CA48841035C858648C450461438C46C2E5
:104F600068C899674112891C527C7802005752D553
:104F70001CF587BB848D31D818A38832C628838C52
:104F800041C834283206354619A38851C628629490
:104F9000218C188504234621615648106284618C57
:104FA00018411C23CC31A39C42CA29A49C420A1A52
:104FB00066A461461A66A4614612487C380E005801
:104FC00039D51CF587C32491421031D4216624427F
:104FD0004822642C22C8228134E4CC3390C0028D54
:104FE000430D3122C822822842482284206228446C
:104FF0000A418410453E5C065929D51CF587C344F7
:10500000914112290491420E65C82185244248220B
:10501000642C22C8226234D4CE33AF44FAEFC30BDF
:10502000005A2ED51CF587CB0F84F240280F044878
:105030002281542490C411092491402A1248E28804
:1050400004923858200F08F280200F880F97015BD8
:1050500014D51CF5873B2C718944FAFFFF224BDCE9
:10506000870A005C2BD51CF587BD11892491481255
:1050700089249148128924914812892491481289DF
:105080001C92C8214924924422870C1F0E015D12F4
:10509000D51CF5872B0D7591FEFF7FA8F721030026
:1050A0005E20D51CF5871784249140E3501B813086
:1050B00022C81A642842082266A870C287FF8701A6
:1050C0005F13D51CF587FFFF671F18E381311E189A
:1050D0001F1A00601AD51CF5873B818A29E69024A7
:1050E0009258C112899CE690E2C3FF4100612AD523
:1050F0001CF5877FE1B0951A2AC2A48048A4123B10
:10510000CE3C530C290491424E29C498620432EFDC
:10511000B85406F9701A006233D51CF5872324D2DF
:105120004F14D5903B4718530C754A218814824878
:105130002188148248218814824821879862883106
:10514000C318774648688CF2E1016321D51CF587C6
:105150007FC234A51832C2986228240C89F42489AD
:10516000E5087444412DA9663E9C076435D51CF5BD
:10517000878324D2A78A20A81D678C388698520876
:10518000228520520822852052082285205208229A
:10519000A51C628829C688731C6AAA08F2E134003B
:1051A000652CD51CF5877FC134A5582AC21C62C85E
:1051B0001988148248792094074279201412492CC6
:1051C00091A0908C30A7A5D5CC87F300661CD51C88
:1051D000F58763A629C552110511231289546BA8BE
:1051E0006324D2FFFBF006006736D51CF587BF5F4E
:1051F000C838AF3C100A21E510331031E410430EDB
:105200002905155112534AA54562810EB9F30A4189
:105210008490440849849C61CC3B6CA10E006836A4
:10522000D51CF5872B24D26F94440242EEA0508EF9
:1052300029C414431D62C821861C62C821861C62D1
:10524000C821861C62C821861C62C821861C62C8CF
:10525000211F4E036919D51CF58753431258228923
:10526000E3838C1A16E9FF1A4BDC87E3006A1FD52B
:105270001CF58773231658C5F181554B8BF4FF53EA
:10528000C190244A414594B45672E6036B35D51C4F
:10529000F5872324D2EF94424C31A49443484164CF
:1052A00094440459241096B112C8228328324A2209
:1052B000A42052CA21861C628A21A71482CA87CBE5
:1052C000006C12D51CF5872B896591FEFFC7DCF1B8
:1052D0003EDC066D1DD51CF5873F4D0219A43C2010
:1052E000C8036394604219F4FFFFFFFFDF87CB0020
:1052F0006E35D51CF587BF4D46492420E40E0AE5DE
:1053000098424C31D421861C62C821861C62C82177
:10531000861C62C821861C62C821861C62C8218640
:105320001CF2E136006F30D51CF5877FC1B4B4188C
:1053300032C19C528A218714920821891092082137
:1053400089109208218914728829861C134C622ABC
:10535000B9F2E105007034D51CF587BF4D44510DFD
:10536000B9738431C550A71482482188148248211A
:10537000881482482188147288298698238C71A702
:1053800021228A2291DE0705007132D51CF587BFE4
:105390005F0441ED3863C431C49442102904914242
:1053A000102904914210290491421031E410434C19
:1053B00031469CE350534590485F06721CD51CF55E
:1053C00087BF4E464924A4F34C0AE418234E8105B6
:1053D0009248FF7D7805007328D51CF5877FE1B0E2
:1053E00095DA31E21872C62128A012CF530E41136C
:1053F0008B118998814839C21C87D8421FCE03740B
:105400001DD51CF58757492471C8A9B9E32D12E9A8
:10541000BF22940964AD959AF9701C007535D51CAE
:10542000F587BF4D0E31E410430E31E410430E31C9
:10543000E410430E31E410430E31E410430E31E426
:1054400010430E31A59463C2390E355504F9701B13
:10545000007630D51CF5873F5DD228248D4210316F
:10546000038D43CE38C41044CA48A40C35C85864D0
:105470008C450461248C869C79E69548E2F8F0041A
:10548000007743D51CF587BF4C16196391318A20EC
:10549000640C42066D0C420619A38C51C4284318B3
:1054A00031CA10468C428208438C428210230C631E
:1054B000843946985386398594534841849034CC36
:1054C000F8701C00782FD51CF587BF4D1029C590AA
:1054D000430A4984104504592490769E790516683C
:1054E0001C6244104506518410440C315521887CBF
:1054F000380D007939D51CF587BF4D122104914232
:105500001031E41043CE40C31044CA508310450606
:1055100051640C460261240C37C270E7155820898B
:10552000D40A84AC21CA4A0CBDF2C1007A1DD51C34
:10553000F5873FFECC07E9607915A4C1F2CA7B204C
:1055400094074279207C380D007B21D51CF58727F4
:105550000E4B4B29F348A40F12775C812616392491
:1055600089F48B059EA7586A28037C0ED51CF58705
:105570005324D2FFFFFFE7017D1FD51CF587D3C75A
:1055800025A6609124D227493CCF72E591487FB08F
:1055900038B3D44A0C7D007E17D51CF5877FF314F1
:1055A000515628E301510641AE7CF87F0200A00B62
:1055B000D51CF587FFFF7F1700A118D51CF5875371
:1055C000049A6783E40334E414E91FAC17C7872700
:1055D00000A240D51CF58737482471C8018B4BAA1F
:1055E0009D129029828461C818231842C6088690AB
:1055F000A108198A90A1C8208A0CA2C8188C8841D9
:10560000C229610C815028A8A5C58E1B72F66101C4
:1056100000A32BD51CF587FBC5A5B59209249512CF
:105620001489144C2C73449248174724F098605600
:1056300018E501418A5025A0F2E13800A429D51CC3
:10564000F5878F8B24CE3B2DAD540649E30C34CE29
:1056500040E30C440A492594D4CE334314314E50D0
:10566000E2C3BF0900A52FD51CF587C34411421022
:10567000290411431D624622842442C6228230122C
:105680004643CE3C030973C7632412E68EC748A481
:105690003EBC0000A611D51CF5875324D2FFF701AC
:1056A0002791FE9F07A73AD51CF5874BA629C5521F
:1056B00011E610331031229158A281A82935C44136
:1056C0008498430C39C4906308414CA986A089256D
:1056D00012240E39C3147344414DA9663EE401A857
:1056E00018D51CF587C541862AA2A4224A2AA2A859
:1056F00041C687FFFF1500A948D51CF5875F284ED6
:1057000029864829860413082101053246506188FC
:1057100011081961881146196284498D30A9112632
:1057200035C208848831C2105418630415C61802A3
:105730000542C620829462C8694A35F3E13C00AA5A
:1057400025D51CF587F3C621A698208385421A5AD1
:105750004AAD440849A3904446494C2D96BA3BDED5
:1057600087BF0E00AB2ED51CF587FF5A30810D3256
:105770005411241541121924914112194415515400
:10578000114515515411451541D6208305133E7C12
:105790000800AC10D51CF587FF4BEE7891DE873FF3
:1057A0000400AD0ED51CF587FFCD67BE0FFF970037
:1057B000AE47D51CF5875F284E2986482946094201
:1057C0004648810C21C61862464618621A448C303D
:1057D000441A230C91C608432032C2101319818445
:1057E0003186186384318618E390430822C50C7310
:1057F0009A52CD7C380F00AF0ED51CF587E34B6D68
:105800001FFEFF4700B01CD51CF587F3A625A65444
:105810001125114212212415519462C8950FFF1FC2
:1058200004B120D51CF5876F91486F3D20C80382D5
:105830003C201489F4FBC03E20C803823C203E5C1F
:1058400006B21ED51CF5874BC5A5B51419448D327B
:10585000E4880492573D02096489FBF0BF0A00B353
:1058600021D51CF5874BC5A5B5D620430E779C796D
:105870004712399430231142D25AC9950FFFCB00F9
:10588000B414D51CF58789304924B0402A8E293EAE
:10589000FCFFEB00B53BD51CF5873F4D0E31E41006
:1058A000430E31E410430E31E410430E31E4104353
:1058B0000E31E410430E31E410430E31A51421C41F
:1058C000094B3C40C4124650641012E97D6000B69A
:1058D0004CD51CF5874B0BB5E38C12A32C31CA12A7
:1058E000A32C31CA12A32C318C12C328314E1203BF
:1058F0002131941183113118118311311811831141
:10590000311811831131181183113118118311319C
:1059100018118311311811E3431900B711D51CF583
:1059200087FF0D02CDB320F9F0BF0C00B813D51CD2
:10593000F587FFFFF7C524B1B031064BAE2000B9A3
:1059400013D51CF5875B031677B930869CFF3EFCA8
:105950002F03BA2AD51CF587FBC521A6D620241112
:1059600042D230230D33D230230D33D228241142BA
:105970009462E8910F843BDE87BF0E00BB2ED51CDE
:10598000F587FF5230810D321611651151161964D9
:105990009141161924155150110515515011251119
:1059A00051D4208305133E7C0C00BC4ED51CF587DA
:1059B000BD81C2296810830609629C81C6196818D6
:1059C00082861969149246196A10A206196B0C1284
:1059D0004724714412472464A841482284A4414AC0
:1059E0001A438481C61861A021A643823243A8428B
:1059F000D040210D393EA401BD4DD51CF587BD8198
:105A0000C2296810730809629C8186216898918672
:105A1000196994A146196A10A206196B0C12472441
:105A20007144124724A2A8214E1A6108728610649C
:105A30009C818619689CE99042D028049132942870
:105A400089A50F6100BE4FD51CF587B9F2501945E5
:105A50008C51861A841C43C831832C22880965889E
:105A600071C4208198240642812832462471441250
:105A700047247190A108196A1092C828690C83C83C
:105A80001061A0318418680855C65065A081041AB9
:105A9000727C4803BF28D51CF5874B049A6741F2F6
:105AA0000127918204965741020B2491420111244F
:105AB0001031E498701053AA950F2F00C03ED51CEA
:105AC0003517B23C04CB141F9C30879C6281051AA9
:105AD00037C270238C460261630C36065164103560
